{
	"contracts/FundMe.sol": {
		"FundMe": {
			"abi": [
				{
					"inputs": [],
					"name": "fund",
					"outputs": [],
					"stateMutability": "payable",
					"type": "function"
				},
				{
					"inputs": [],
					"name": "getVer",
					"outputs": [
						{
							"internalType": "uint256",
							"name": "",
							"type": "uint256"
						}
					],
					"stateMutability": "view",
					"type": "function"
				},
				{
					"inputs": [],
					"name": "minUsd",
					"outputs": [
						{
							"internalType": "uint256",
							"name": "",
							"type": "uint256"
						}
					],
					"stateMutability": "view",
					"type": "function"
				}
			],
			"devdoc": {
				"kind": "dev",
				"methods": {},
				"version": 1
			},
			"evm": {
				"assembly": "    /* \"contracts/FundMe.sol\":411:1940  contract FundMe {\r... */\n  mstore(0x40, 0x80)\n    /* \"contracts/FundMe.sol\":497:506  50 * 1e18 */\n  0x02b5e3af16b1880000\n    /* \"contracts/FundMe.sol\":473:506  uint256 public minUsd = 50 * 1e18 */\n  0x00\n  sstore\n    /* \"contracts/FundMe.sol\":411:1940  contract FundMe {\r... */\n  callvalue\n  dup1\n  iszero\n  tag_1\n  jumpi\n  0x00\n  dup1\n  revert\ntag_1:\n  pop\n  dataSize(sub_0)\n  dup1\n  dataOffset(sub_0)\n  0x00\n  codecopy\n  0x00\n  return\nstop\n\nsub_0: assembly {\n        /* \"contracts/FundMe.sol\":411:1940  contract FundMe {\r... */\n      mstore(0x40, 0x80)\n      jumpi(tag_1, lt(calldatasize, 0x04))\n      shr(0xe0, calldataload(0x00))\n      dup1\n      0x51b80e41\n      eq\n      tag_2\n      jumpi\n      dup1\n      0x8793ad55\n      eq\n      tag_3\n      jumpi\n      dup1\n      0xb60d4288\n      eq\n      tag_4\n      jumpi\n    tag_1:\n      0x00\n      dup1\n      revert\n        /* \"contracts/FundMe.sol\":473:506  uint256 public minUsd = 50 * 1e18 */\n    tag_2:\n      callvalue\n      dup1\n      iszero\n      tag_5\n      jumpi\n      0x00\n      dup1\n      revert\n    tag_5:\n      pop\n      tag_6\n      tag_7\n      jump\t// in\n    tag_6:\n      mload(0x40)\n      tag_8\n      swap2\n      swap1\n      tag_9\n      jump\t// in\n    tag_8:\n      mload(0x40)\n      dup1\n      swap2\n      sub\n      swap1\n      return\n        /* \"contracts/FundMe.sol\":1357:1558  function getVer() public view returns(uint256){\r... */\n    tag_3:\n      callvalue\n      dup1\n      iszero\n      tag_10\n      jumpi\n      0x00\n      dup1\n      revert\n    tag_10:\n      pop\n      tag_11\n      tag_12\n      jump\t// in\n    tag_11:\n      mload(0x40)\n      tag_13\n      swap2\n      swap1\n      tag_9\n      jump\t// in\n    tag_13:\n      mload(0x40)\n      dup1\n      swap2\n      sub\n      swap1\n      return\n        /* \"contracts/FundMe.sol\":515:892  function fund() public payable{\r... */\n    tag_4:\n      tag_14\n      tag_15\n      jump\t// in\n    tag_14:\n      stop\n        /* \"contracts/FundMe.sol\":473:506  uint256 public minUsd = 50 * 1e18 */\n    tag_7:\n      sload(0x00)\n      dup2\n      jump\t// out\n        /* \"contracts/FundMe.sol\":1357:1558  function getVer() public view returns(uint256){\r... */\n    tag_12:\n        /* \"contracts/FundMe.sol\":1395:1402  uint256 */\n      0x00\n        /* \"contracts/FundMe.sol\":1414:1445  AggregatorV3Interface priceFeed */\n      dup1\n        /* \"contracts/FundMe.sol\":1470:1512  0x5f4eC3Df9cbd43714FE2740f5E3616155c5b8419 */\n      0x5f4ec3df9cbd43714fe2740f5e3616155c5b8419\n        /* \"contracts/FundMe.sol\":1414:1513  AggregatorV3Interface priceFeed = AggregatorV3Interface(0x5f4eC3Df9cbd43714FE2740f5E3616155c5b8419) */\n      swap1\n      pop\n        /* \"contracts/FundMe.sol\":1531:1540  priceFeed */\n      dup1\n        /* \"contracts/FundMe.sol\":1531:1548  priceFeed.version */\n      0xffffffffffffffffffffffffffffffffffffffff\n      and\n      0x54fd4d50\n        /* \"contracts/FundMe.sol\":1531:1550  priceFeed.version() */\n      mload(0x40)\n      dup2\n      0xffffffff\n      and\n      0xe0\n      shl\n      dup2\n      mstore\n      0x04\n      add\n      0x20\n      mload(0x40)\n      dup1\n      dup4\n      sub\n      dup2\n      dup7\n      dup1\n      extcodesize\n      iszero\n      dup1\n      iszero\n      tag_17\n      jumpi\n      0x00\n      dup1\n      revert\n    tag_17:\n      pop\n      gas\n      staticcall\n      iszero\n      dup1\n      iszero\n      tag_19\n      jumpi\n      returndatasize\n      0x00\n      dup1\n      returndatacopy\n      revert(0x00, returndatasize)\n    tag_19:\n      pop\n      pop\n      pop\n      pop\n      mload(0x40)\n      returndatasize\n      not(0x1f)\n      0x1f\n      dup3\n      add\n      and\n      dup3\n      add\n      dup1\n      0x40\n      mstore\n      pop\n      dup2\n      add\n      swap1\n      tag_20\n      swap2\n      swap1\n      tag_21\n      jump\t// in\n    tag_20:\n        /* \"contracts/FundMe.sol\":1524:1550  return priceFeed.version() */\n      swap2\n      pop\n      pop\n        /* \"contracts/FundMe.sol\":1357:1558  function getVer() public view returns(uint256){\r... */\n      swap1\n      jump\t// out\n        /* \"contracts/FundMe.sol\":515:892  function fund() public payable{\r... */\n    tag_15:\n        /* \"contracts/FundMe.sol\":722:728  minUsd */\n      sload(0x00)\n        /* \"contracts/FundMe.sol\":675:718  PriceConverter.getConversionRate(msg.value) */\n      tag_23\n        /* \"contracts/FundMe.sol\":708:717  msg.value */\n      callvalue\n        /* \"contracts/FundMe.sol\":675:707  PriceConverter.getConversionRate */\n      tag_24\n        /* \"contracts/FundMe.sol\":675:718  PriceConverter.getConversionRate(msg.value) */\n      jump\t// in\n    tag_23:\n        /* \"contracts/FundMe.sol\":675:728  PriceConverter.getConversionRate(msg.value) >= minUsd */\n      lt\n      iszero\n        /* \"contracts/FundMe.sol\":667:751  require(PriceConverter.getConversionRate(msg.value) >= minUsd ,\"Didn't send enough\") */\n      tag_25\n      jumpi\n      mload(0x40)\n      0x08c379a000000000000000000000000000000000000000000000000000000000\n      dup2\n      mstore\n      0x04\n      add\n      tag_26\n      swap1\n      tag_27\n      jump\t// in\n    tag_26:\n      mload(0x40)\n      dup1\n      swap2\n      sub\n      swap1\n      revert\n    tag_25:\n        /* \"contracts/FundMe.sol\":515:892  function fund() public payable{\r... */\n      jump\t// out\n        /* \"contracts/PriceConverter.sol\":775:1123  function getConversionRate(uint256 ethAmount)\r... */\n    tag_24:\n        /* \"contracts/PriceConverter.sol\":871:878  uint256 */\n      0x00\n        /* \"contracts/PriceConverter.sol\":896:912  uint256 ethPrice */\n      dup1\n        /* \"contracts/PriceConverter.sol\":915:925  getPrice() */\n      tag_29\n        /* \"contracts/PriceConverter.sol\":915:923  getPrice */\n      tag_30\n        /* \"contracts/PriceConverter.sol\":915:925  getPrice() */\n      jump\t// in\n    tag_29:\n        /* \"contracts/PriceConverter.sol\":896:925  uint256 ethPrice = getPrice() */\n      swap1\n      pop\n        /* \"contracts/PriceConverter.sol\":936:958  uint256 ethAmountInUsd */\n      0x00\n        /* \"contracts/PriceConverter.sol\":986:1005  1000000000000000000 */\n      0x0de0b6b3a7640000\n        /* \"contracts/PriceConverter.sol\":973:982  ethAmount */\n      dup5\n        /* \"contracts/PriceConverter.sol\":962:970  ethPrice */\n      dup4\n        /* \"contracts/PriceConverter.sol\":962:982  ethPrice * ethAmount */\n      tag_31\n      swap2\n      swap1\n      tag_32\n      jump\t// in\n    tag_31:\n        /* \"contracts/PriceConverter.sol\":961:1005  (ethPrice * ethAmount) / 1000000000000000000 */\n      tag_33\n      swap2\n      swap1\n      tag_34\n      jump\t// in\n    tag_33:\n        /* \"contracts/PriceConverter.sol\":936:1005  uint256 ethAmountInUsd = (ethPrice * ethAmount) / 1000000000000000000 */\n      swap1\n      pop\n        /* \"contracts/PriceConverter.sol\":1101:1115  ethAmountInUsd */\n      dup1\n        /* \"contracts/PriceConverter.sol\":1094:1115  return ethAmountInUsd */\n      swap3\n      pop\n      pop\n      pop\n        /* \"contracts/PriceConverter.sol\":775:1123  function getConversionRate(uint256 ethAmount)\r... */\n      swap2\n      swap1\n      pop\n      jump\t// out\n        /* \"contracts/PriceConverter.sol\":307:748  function getPrice() internal view returns (uint256) {\r... */\n    tag_30:\n        /* \"contracts/PriceConverter.sol\":350:357  uint256 */\n      0x00\n        /* \"contracts/PriceConverter.sol\":469:500  AggregatorV3Interface priceFeed */\n      dup1\n        /* \"contracts/PriceConverter.sol\":539:581  0x8A753747A1Fa494EC906cE90E9f37563A8AF630e */\n      0x8a753747a1fa494ec906ce90e9f37563a8af630e\n        /* \"contracts/PriceConverter.sol\":469:592  AggregatorV3Interface priceFeed = AggregatorV3Interface(\r... */\n      swap1\n      pop\n        /* \"contracts/PriceConverter.sol\":606:619  int256 answer */\n      0x00\n        /* \"contracts/PriceConverter.sol\":629:638  priceFeed */\n      dup2\n        /* \"contracts/PriceConverter.sol\":629:654  priceFeed.latestRoundData */\n      0xffffffffffffffffffffffffffffffffffffffff\n      and\n      0xfeaf968c\n        /* \"contracts/PriceConverter.sol\":629:656  priceFeed.latestRoundData() */\n      mload(0x40)\n      dup2\n      0xffffffff\n      and\n      0xe0\n      shl\n      dup2\n      mstore\n      0x04\n      add\n      0xa0\n      mload(0x40)\n      dup1\n      dup4\n      sub\n      dup2\n      dup7\n      dup1\n      extcodesize\n      iszero\n      dup1\n      iszero\n      tag_36\n      jumpi\n      0x00\n      dup1\n      revert\n    tag_36:\n      pop\n      gas\n      staticcall\n      iszero\n      dup1\n      iszero\n      tag_38\n      jumpi\n      returndatasize\n      0x00\n      dup1\n      returndatacopy\n      revert(0x00, returndatasize)\n    tag_38:\n      pop\n      pop\n      pop\n      pop\n      mload(0x40)\n      returndatasize\n      not(0x1f)\n      0x1f\n      dup3\n      add\n      and\n      dup3\n      add\n      dup1\n      0x40\n      mstore\n      pop\n      dup2\n      add\n      swap1\n      tag_39\n      swap2\n      swap1\n      tag_40\n      jump\t// in\n    tag_39:\n        /* \"contracts/PriceConverter.sol\":603:656  (, int256 answer, , , ) = priceFeed.latestRoundData() */\n      pop\n      pop\n      pop\n      swap2\n      pop\n      pop\n        /* \"contracts/PriceConverter.sol\":728:739  10000000000 */\n      0x02540be400\n        /* \"contracts/PriceConverter.sol\":719:725  answer */\n      dup2\n        /* \"contracts/PriceConverter.sol\":719:739  answer * 10000000000 */\n      tag_41\n      swap2\n      swap1\n      tag_42\n      jump\t// in\n    tag_41:\n        /* \"contracts/PriceConverter.sol\":704:740  return uint256(answer * 10000000000) */\n      swap3\n      pop\n      pop\n      pop\n        /* \"contracts/PriceConverter.sol\":307:748  function getPrice() internal view returns (uint256) {\r... */\n      swap1\n      jump\t// out\n        /* \"#utility.yul\":7:148   */\n    tag_44:\n        /* \"#utility.yul\":63:68   */\n      0x00\n        /* \"#utility.yul\":94:100   */\n      dup2\n        /* \"#utility.yul\":88:101   */\n      mload\n        /* \"#utility.yul\":79:101   */\n      swap1\n      pop\n        /* \"#utility.yul\":110:142   */\n      tag_46\n        /* \"#utility.yul\":136:141   */\n      dup2\n        /* \"#utility.yul\":110:142   */\n      tag_47\n      jump\t// in\n    tag_46:\n        /* \"#utility.yul\":7:148   */\n      swap3\n      swap2\n      pop\n      pop\n      jump\t// out\n        /* \"#utility.yul\":154:297   */\n    tag_48:\n        /* \"#utility.yul\":211:216   */\n      0x00\n        /* \"#utility.yul\":242:248   */\n      dup2\n        /* \"#utility.yul\":236:249   */\n      mload\n        /* \"#utility.yul\":227:249   */\n      swap1\n      pop\n        /* \"#utility.yul\":258:291   */\n      tag_50\n        /* \"#utility.yul\":285:290   */\n      dup2\n        /* \"#utility.yul\":258:291   */\n      tag_51\n      jump\t// in\n    tag_50:\n        /* \"#utility.yul\":154:297   */\n      swap3\n      swap2\n      pop\n      pop\n      jump\t// out\n        /* \"#utility.yul\":303:444   */\n    tag_52:\n        /* \"#utility.yul\":359:364   */\n      0x00\n        /* \"#utility.yul\":390:396   */\n      dup2\n        /* \"#utility.yul\":384:397   */\n      mload\n        /* \"#utility.yul\":375:397   */\n      swap1\n      pop\n        /* \"#utility.yul\":406:438   */\n      tag_54\n        /* \"#utility.yul\":432:437   */\n      dup2\n        /* \"#utility.yul\":406:438   */\n      tag_55\n      jump\t// in\n    tag_54:\n        /* \"#utility.yul\":303:444   */\n      swap3\n      swap2\n      pop\n      pop\n      jump\t// out\n        /* \"#utility.yul\":450:801   */\n    tag_21:\n        /* \"#utility.yul\":520:526   */\n      0x00\n        /* \"#utility.yul\":569:571   */\n      0x20\n        /* \"#utility.yul\":557:566   */\n      dup3\n        /* \"#utility.yul\":548:555   */\n      dup5\n        /* \"#utility.yul\":544:567   */\n      sub\n        /* \"#utility.yul\":540:572   */\n      slt\n        /* \"#utility.yul\":537:656   */\n      iszero\n      tag_57\n      jumpi\n        /* \"#utility.yul\":575:654   */\n      tag_58\n      tag_59\n      jump\t// in\n    tag_58:\n        /* \"#utility.yul\":537:656   */\n    tag_57:\n        /* \"#utility.yul\":695:696   */\n      0x00\n        /* \"#utility.yul\":720:784   */\n      tag_60\n        /* \"#utility.yul\":776:783   */\n      dup5\n        /* \"#utility.yul\":767:773   */\n      dup3\n        /* \"#utility.yul\":756:765   */\n      dup6\n        /* \"#utility.yul\":752:774   */\n      add\n        /* \"#utility.yul\":720:784   */\n      tag_48\n      jump\t// in\n    tag_60:\n        /* \"#utility.yul\":710:784   */\n      swap2\n      pop\n        /* \"#utility.yul\":666:794   */\n      pop\n        /* \"#utility.yul\":450:801   */\n      swap3\n      swap2\n      pop\n      pop\n      jump\t// out\n        /* \"#utility.yul\":807:1778   */\n    tag_40:\n        /* \"#utility.yul\":910:916   */\n      0x00\n        /* \"#utility.yul\":918:924   */\n      dup1\n        /* \"#utility.yul\":926:932   */\n      0x00\n        /* \"#utility.yul\":934:940   */\n      dup1\n        /* \"#utility.yul\":942:948   */\n      0x00\n        /* \"#utility.yul\":991:994   */\n      0xa0\n        /* \"#utility.yul\":979:988   */\n      dup7\n        /* \"#utility.yul\":970:977   */\n      dup9\n        /* \"#utility.yul\":966:989   */\n      sub\n        /* \"#utility.yul\":962:995   */\n      slt\n        /* \"#utility.yul\":959:1079   */\n      iszero\n      tag_62\n      jumpi\n        /* \"#utility.yul\":998:1077   */\n      tag_63\n      tag_59\n      jump\t// in\n    tag_63:\n        /* \"#utility.yul\":959:1079   */\n    tag_62:\n        /* \"#utility.yul\":1118:1119   */\n      0x00\n        /* \"#utility.yul\":1143:1206   */\n      tag_64\n        /* \"#utility.yul\":1198:1205   */\n      dup9\n        /* \"#utility.yul\":1189:1195   */\n      dup3\n        /* \"#utility.yul\":1178:1187   */\n      dup10\n        /* \"#utility.yul\":1174:1196   */\n      add\n        /* \"#utility.yul\":1143:1206   */\n      tag_52\n      jump\t// in\n    tag_64:\n        /* \"#utility.yul\":1133:1206   */\n      swap6\n      pop\n        /* \"#utility.yul\":1089:1216   */\n      pop\n        /* \"#utility.yul\":1255:1257   */\n      0x20\n        /* \"#utility.yul\":1281:1344   */\n      tag_65\n        /* \"#utility.yul\":1336:1343   */\n      dup9\n        /* \"#utility.yul\":1327:1333   */\n      dup3\n        /* \"#utility.yul\":1316:1325   */\n      dup10\n        /* \"#utility.yul\":1312:1334   */\n      add\n        /* \"#utility.yul\":1281:1344   */\n      tag_44\n      jump\t// in\n    tag_65:\n        /* \"#utility.yul\":1271:1344   */\n      swap5\n      pop\n        /* \"#utility.yul\":1226:1354   */\n      pop\n        /* \"#utility.yul\":1393:1395   */\n      0x40\n        /* \"#utility.yul\":1419:1483   */\n      tag_66\n        /* \"#utility.yul\":1475:1482   */\n      dup9\n        /* \"#utility.yul\":1466:1472   */\n      dup3\n        /* \"#utility.yul\":1455:1464   */\n      dup10\n        /* \"#utility.yul\":1451:1473   */\n      add\n        /* \"#utility.yul\":1419:1483   */\n      tag_48\n      jump\t// in\n    tag_66:\n        /* \"#utility.yul\":1409:1483   */\n      swap4\n      pop\n        /* \"#utility.yul\":1364:1493   */\n      pop\n        /* \"#utility.yul\":1532:1534   */\n      0x60\n        /* \"#utility.yul\":1558:1622   */\n      tag_67\n        /* \"#utility.yul\":1614:1621   */\n      dup9\n        /* \"#utility.yul\":1605:1611   */\n      dup3\n        /* \"#utility.yul\":1594:1603   */\n      dup10\n        /* \"#utility.yul\":1590:1612   */\n      add\n        /* \"#utility.yul\":1558:1622   */\n      tag_48\n      jump\t// in\n    tag_67:\n        /* \"#utility.yul\":1548:1622   */\n      swap3\n      pop\n        /* \"#utility.yul\":1503:1632   */\n      pop\n        /* \"#utility.yul\":1671:1674   */\n      0x80\n        /* \"#utility.yul\":1698:1761   */\n      tag_68\n        /* \"#utility.yul\":1753:1760   */\n      dup9\n        /* \"#utility.yul\":1744:1750   */\n      dup3\n        /* \"#utility.yul\":1733:1742   */\n      dup10\n        /* \"#utility.yul\":1729:1751   */\n      add\n        /* \"#utility.yul\":1698:1761   */\n      tag_52\n      jump\t// in\n    tag_68:\n        /* \"#utility.yul\":1688:1761   */\n      swap2\n      pop\n        /* \"#utility.yul\":1642:1771   */\n      pop\n        /* \"#utility.yul\":807:1778   */\n      swap3\n      swap6\n      pop\n      swap3\n      swap6\n      swap1\n      swap4\n      pop\n      jump\t// out\n        /* \"#utility.yul\":1784:2150   */\n    tag_69:\n        /* \"#utility.yul\":1926:1929   */\n      0x00\n        /* \"#utility.yul\":1947:2014   */\n      tag_71\n        /* \"#utility.yul\":2011:2013   */\n      0x12\n        /* \"#utility.yul\":2006:2009   */\n      dup4\n        /* \"#utility.yul\":1947:2014   */\n      tag_72\n      jump\t// in\n    tag_71:\n        /* \"#utility.yul\":1940:2014   */\n      swap2\n      pop\n        /* \"#utility.yul\":2023:2116   */\n      tag_73\n        /* \"#utility.yul\":2112:2115   */\n      dup3\n        /* \"#utility.yul\":2023:2116   */\n      tag_74\n      jump\t// in\n    tag_73:\n        /* \"#utility.yul\":2141:2143   */\n      0x20\n        /* \"#utility.yul\":2136:2139   */\n      dup3\n        /* \"#utility.yul\":2132:2144   */\n      add\n        /* \"#utility.yul\":2125:2144   */\n      swap1\n      pop\n        /* \"#utility.yul\":1784:2150   */\n      swap2\n      swap1\n      pop\n      jump\t// out\n        /* \"#utility.yul\":2156:2274   */\n    tag_75:\n        /* \"#utility.yul\":2243:2267   */\n      tag_77\n        /* \"#utility.yul\":2261:2266   */\n      dup2\n        /* \"#utility.yul\":2243:2267   */\n      tag_78\n      jump\t// in\n    tag_77:\n        /* \"#utility.yul\":2238:2241   */\n      dup3\n        /* \"#utility.yul\":2231:2268   */\n      mstore\n        /* \"#utility.yul\":2156:2274   */\n      pop\n      pop\n      jump\t// out\n        /* \"#utility.yul\":2280:2699   */\n    tag_27:\n        /* \"#utility.yul\":2446:2450   */\n      0x00\n        /* \"#utility.yul\":2484:2486   */\n      0x20\n        /* \"#utility.yul\":2473:2482   */\n      dup3\n        /* \"#utility.yul\":2469:2487   */\n      add\n        /* \"#utility.yul\":2461:2487   */\n      swap1\n      pop\n        /* \"#utility.yul\":2533:2542   */\n      dup2\n        /* \"#utility.yul\":2527:2531   */\n      dup2\n        /* \"#utility.yul\":2523:2543   */\n      sub\n        /* \"#utility.yul\":2519:2520   */\n      0x00\n        /* \"#utility.yul\":2508:2517   */\n      dup4\n        /* \"#utility.yul\":2504:2521   */\n      add\n        /* \"#utility.yul\":2497:2544   */\n      mstore\n        /* \"#utility.yul\":2561:2692   */\n      tag_80\n        /* \"#utility.yul\":2687:2691   */\n      dup2\n        /* \"#utility.yul\":2561:2692   */\n      tag_69\n      jump\t// in\n    tag_80:\n        /* \"#utility.yul\":2553:2692   */\n      swap1\n      pop\n        /* \"#utility.yul\":2280:2699   */\n      swap2\n      swap1\n      pop\n      jump\t// out\n        /* \"#utility.yul\":2705:2927   */\n    tag_9:\n        /* \"#utility.yul\":2798:2802   */\n      0x00\n        /* \"#utility.yul\":2836:2838   */\n      0x20\n        /* \"#utility.yul\":2825:2834   */\n      dup3\n        /* \"#utility.yul\":2821:2839   */\n      add\n        /* \"#utility.yul\":2813:2839   */\n      swap1\n      pop\n        /* \"#utility.yul\":2849:2920   */\n      tag_82\n        /* \"#utility.yul\":2917:2918   */\n      0x00\n        /* \"#utility.yul\":2906:2915   */\n      dup4\n        /* \"#utility.yul\":2902:2919   */\n      add\n        /* \"#utility.yul\":2893:2899   */\n      dup5\n        /* \"#utility.yul\":2849:2920   */\n      tag_75\n      jump\t// in\n    tag_82:\n        /* \"#utility.yul\":2705:2927   */\n      swap3\n      swap2\n      pop\n      pop\n      jump\t// out\n        /* \"#utility.yul\":3014:3183   */\n    tag_72:\n        /* \"#utility.yul\":3098:3109   */\n      0x00\n        /* \"#utility.yul\":3132:3138   */\n      dup3\n        /* \"#utility.yul\":3127:3130   */\n      dup3\n        /* \"#utility.yul\":3120:3139   */\n      mstore\n        /* \"#utility.yul\":3172:3176   */\n      0x20\n        /* \"#utility.yul\":3167:3170   */\n      dup3\n        /* \"#utility.yul\":3163:3177   */\n      add\n        /* \"#utility.yul\":3148:3177   */\n      swap1\n      pop\n        /* \"#utility.yul\":3014:3183   */\n      swap3\n      swap2\n      pop\n      pop\n      jump\t// out\n        /* \"#utility.yul\":3189:3374   */\n    tag_34:\n        /* \"#utility.yul\":3229:3230   */\n      0x00\n        /* \"#utility.yul\":3246:3266   */\n      tag_87\n        /* \"#utility.yul\":3264:3265   */\n      dup3\n        /* \"#utility.yul\":3246:3266   */\n      tag_78\n      jump\t// in\n    tag_87:\n        /* \"#utility.yul\":3241:3266   */\n      swap2\n      pop\n        /* \"#utility.yul\":3280:3300   */\n      tag_88\n        /* \"#utility.yul\":3298:3299   */\n      dup4\n        /* \"#utility.yul\":3280:3300   */\n      tag_78\n      jump\t// in\n    tag_88:\n        /* \"#utility.yul\":3275:3300   */\n      swap3\n      pop\n        /* \"#utility.yul\":3319:3320   */\n      dup3\n        /* \"#utility.yul\":3309:3344   */\n      tag_89\n      jumpi\n        /* \"#utility.yul\":3324:3342   */\n      tag_90\n      tag_91\n      jump\t// in\n    tag_90:\n        /* \"#utility.yul\":3309:3344   */\n    tag_89:\n        /* \"#utility.yul\":3366:3367   */\n      dup3\n        /* \"#utility.yul\":3363:3364   */\n      dup3\n        /* \"#utility.yul\":3359:3368   */\n      div\n        /* \"#utility.yul\":3354:3368   */\n      swap1\n      pop\n        /* \"#utility.yul\":3189:3374   */\n      swap3\n      swap2\n      pop\n      pop\n      jump\t// out\n        /* \"#utility.yul\":3380:4371   */\n    tag_42:\n        /* \"#utility.yul\":3419:3426   */\n      0x00\n        /* \"#utility.yul\":3442:3461   */\n      tag_93\n        /* \"#utility.yul\":3459:3460   */\n      dup3\n        /* \"#utility.yul\":3442:3461   */\n      tag_94\n      jump\t// in\n    tag_93:\n        /* \"#utility.yul\":3437:3461   */\n      swap2\n      pop\n        /* \"#utility.yul\":3475:3494   */\n      tag_95\n        /* \"#utility.yul\":3492:3493   */\n      dup4\n        /* \"#utility.yul\":3475:3494   */\n      tag_94\n      jump\t// in\n    tag_95:\n        /* \"#utility.yul\":3470:3494   */\n      swap3\n      pop\n        /* \"#utility.yul\":3676:3677   */\n      dup3\n        /* \"#utility.yul\":3608:3674   */\n      0x7fffffffffffffffffffffffffffffffffffffffffffffffffffffffffffffff\n        /* \"#utility.yul\":3604:3678   */\n      div\n        /* \"#utility.yul\":3601:3602   */\n      dup3\n        /* \"#utility.yul\":3598:3679   */\n      gt\n        /* \"#utility.yul\":3593:3594   */\n      0x00\n        /* \"#utility.yul\":3590:3591   */\n      dup5\n        /* \"#utility.yul\":3586:3595   */\n      sgt\n        /* \"#utility.yul\":3582:3583   */\n      0x00\n        /* \"#utility.yul\":3579:3580   */\n      dup5\n        /* \"#utility.yul\":3575:3584   */\n      sgt\n        /* \"#utility.yul\":3571:3596   */\n      and\n        /* \"#utility.yul\":3567:3680   */\n      and\n        /* \"#utility.yul\":3564:3703   */\n      iszero\n      tag_96\n      jumpi\n        /* \"#utility.yul\":3683:3701   */\n      tag_97\n      tag_98\n      jump\t// in\n    tag_97:\n        /* \"#utility.yul\":3564:3703   */\n    tag_96:\n        /* \"#utility.yul\":3887:3888   */\n      dup2\n        /* \"#utility.yul\":3819:3885   */\n      0x8000000000000000000000000000000000000000000000000000000000000000\n        /* \"#utility.yul\":3814:3889   */\n      sdiv\n        /* \"#utility.yul\":3811:3812   */\n      dup4\n        /* \"#utility.yul\":3807:3890   */\n      slt\n        /* \"#utility.yul\":3802:3803   */\n      0x00\n        /* \"#utility.yul\":3799:3800   */\n      dup5\n        /* \"#utility.yul\":3795:3804   */\n      slt\n        /* \"#utility.yul\":3791:3792   */\n      0x00\n        /* \"#utility.yul\":3788:3789   */\n      dup5\n        /* \"#utility.yul\":3784:3793   */\n      sgt\n        /* \"#utility.yul\":3780:3805   */\n      and\n        /* \"#utility.yul\":3776:3891   */\n      and\n        /* \"#utility.yul\":3773:3914   */\n      iszero\n      tag_99\n      jumpi\n        /* \"#utility.yul\":3894:3912   */\n      tag_100\n      tag_98\n      jump\t// in\n    tag_100:\n        /* \"#utility.yul\":3773:3914   */\n    tag_99:\n        /* \"#utility.yul\":4098:4099   */\n      dup3\n        /* \"#utility.yul\":4030:4096   */\n      0x8000000000000000000000000000000000000000000000000000000000000000\n        /* \"#utility.yul\":4025:4100   */\n      sdiv\n        /* \"#utility.yul\":4022:4023   */\n      dup3\n        /* \"#utility.yul\":4018:4101   */\n      slt\n        /* \"#utility.yul\":4013:4014   */\n      0x00\n        /* \"#utility.yul\":4010:4011   */\n      dup5\n        /* \"#utility.yul\":4006:4015   */\n      sgt\n        /* \"#utility.yul\":4002:4003   */\n      0x00\n        /* \"#utility.yul\":3999:4000   */\n      dup5\n        /* \"#utility.yul\":3995:4004   */\n      slt\n        /* \"#utility.yul\":3991:4016   */\n      and\n        /* \"#utility.yul\":3987:4102   */\n      and\n        /* \"#utility.yul\":3984:4125   */\n      iszero\n      tag_101\n      jumpi\n        /* \"#utility.yul\":4105:4123   */\n      tag_102\n      tag_98\n      jump\t// in\n    tag_102:\n        /* \"#utility.yul\":3984:4125   */\n    tag_101:\n        /* \"#utility.yul\":4308:4309   */\n      dup3\n        /* \"#utility.yul\":4240:4306   */\n      0x7fffffffffffffffffffffffffffffffffffffffffffffffffffffffffffffff\n        /* \"#utility.yul\":4235:4310   */\n      sdiv\n        /* \"#utility.yul\":4232:4233   */\n      dup3\n        /* \"#utility.yul\":4228:4311   */\n      slt\n        /* \"#utility.yul\":4223:4224   */\n      0x00\n        /* \"#utility.yul\":4220:4221   */\n      dup5\n        /* \"#utility.yul\":4216:4225   */\n      slt\n        /* \"#utility.yul\":4212:4213   */\n      0x00\n        /* \"#utility.yul\":4209:4210   */\n      dup5\n        /* \"#utility.yul\":4205:4214   */\n      slt\n        /* \"#utility.yul\":4201:4226   */\n      and\n        /* \"#utility.yul\":4197:4312   */\n      and\n        /* \"#utility.yul\":4194:4335   */\n      iszero\n      tag_103\n      jumpi\n        /* \"#utility.yul\":4315:4333   */\n      tag_104\n      tag_98\n      jump\t// in\n    tag_104:\n        /* \"#utility.yul\":4194:4335   */\n    tag_103:\n        /* \"#utility.yul\":4363:4364   */\n      dup3\n        /* \"#utility.yul\":4360:4361   */\n      dup3\n        /* \"#utility.yul\":4356:4365   */\n      mul\n        /* \"#utility.yul\":4345:4365   */\n      swap1\n      pop\n        /* \"#utility.yul\":3380:4371   */\n      swap3\n      swap2\n      pop\n      pop\n      jump\t// out\n        /* \"#utility.yul\":4377:4725   */\n    tag_32:\n        /* \"#utility.yul\":4417:4424   */\n      0x00\n        /* \"#utility.yul\":4440:4460   */\n      tag_106\n        /* \"#utility.yul\":4458:4459   */\n      dup3\n        /* \"#utility.yul\":4440:4460   */\n      tag_78\n      jump\t// in\n    tag_106:\n        /* \"#utility.yul\":4435:4460   */\n      swap2\n      pop\n        /* \"#utility.yul\":4474:4494   */\n      tag_107\n        /* \"#utility.yul\":4492:4493   */\n      dup4\n        /* \"#utility.yul\":4474:4494   */\n      tag_78\n      jump\t// in\n    tag_107:\n        /* \"#utility.yul\":4469:4494   */\n      swap3\n      pop\n        /* \"#utility.yul\":4662:4663   */\n      dup2\n        /* \"#utility.yul\":4594:4660   */\n      0xffffffffffffffffffffffffffffffffffffffffffffffffffffffffffffffff\n        /* \"#utility.yul\":4590:4664   */\n      div\n        /* \"#utility.yul\":4587:4588   */\n      dup4\n        /* \"#utility.yul\":4584:4665   */\n      gt\n        /* \"#utility.yul\":4579:4580   */\n      dup3\n        /* \"#utility.yul\":4572:4581   */\n      iszero\n        /* \"#utility.yul\":4565:4582   */\n      iszero\n        /* \"#utility.yul\":4561:4666   */\n      and\n        /* \"#utility.yul\":4558:4689   */\n      iszero\n      tag_108\n      jumpi\n        /* \"#utility.yul\":4669:4687   */\n      tag_109\n      tag_98\n      jump\t// in\n    tag_109:\n        /* \"#utility.yul\":4558:4689   */\n    tag_108:\n        /* \"#utility.yul\":4717:4718   */\n      dup3\n        /* \"#utility.yul\":4714:4715   */\n      dup3\n        /* \"#utility.yul\":4710:4719   */\n      mul\n        /* \"#utility.yul\":4699:4719   */\n      swap1\n      pop\n        /* \"#utility.yul\":4377:4725   */\n      swap3\n      swap2\n      pop\n      pop\n      jump\t// out\n        /* \"#utility.yul\":4731:4807   */\n    tag_94:\n        /* \"#utility.yul\":4767:4774   */\n      0x00\n        /* \"#utility.yul\":4796:4801   */\n      dup2\n        /* \"#utility.yul\":4785:4801   */\n      swap1\n      pop\n        /* \"#utility.yul\":4731:4807   */\n      swap2\n      swap1\n      pop\n      jump\t// out\n        /* \"#utility.yul\":4813:4890   */\n    tag_78:\n        /* \"#utility.yul\":4850:4857   */\n      0x00\n        /* \"#utility.yul\":4879:4884   */\n      dup2\n        /* \"#utility.yul\":4868:4884   */\n      swap1\n      pop\n        /* \"#utility.yul\":4813:4890   */\n      swap2\n      swap1\n      pop\n      jump\t// out\n        /* \"#utility.yul\":4896:5001   */\n    tag_112:\n        /* \"#utility.yul\":4932:4939   */\n      0x00\n        /* \"#utility.yul\":4972:4994   */\n      0xffffffffffffffffffff\n        /* \"#utility.yul\":4965:4970   */\n      dup3\n        /* \"#utility.yul\":4961:4995   */\n      and\n        /* \"#utility.yul\":4950:4995   */\n      swap1\n      pop\n        /* \"#utility.yul\":4896:5001   */\n      swap2\n      swap1\n      pop\n      jump\t// out\n        /* \"#utility.yul\":5007:5187   */\n    tag_98:\n        /* \"#utility.yul\":5055:5132   */\n      0x4e487b7100000000000000000000000000000000000000000000000000000000\n        /* \"#utility.yul\":5052:5053   */\n      0x00\n        /* \"#utility.yul\":5045:5133   */\n      mstore\n        /* \"#utility.yul\":5152:5156   */\n      0x11\n        /* \"#utility.yul\":5149:5150   */\n      0x04\n        /* \"#utility.yul\":5142:5157   */\n      mstore\n        /* \"#utility.yul\":5176:5180   */\n      0x24\n        /* \"#utility.yul\":5173:5174   */\n      0x00\n        /* \"#utility.yul\":5166:5181   */\n      revert\n        /* \"#utility.yul\":5193:5373   */\n    tag_91:\n        /* \"#utility.yul\":5241:5318   */\n      0x4e487b7100000000000000000000000000000000000000000000000000000000\n        /* \"#utility.yul\":5238:5239   */\n      0x00\n        /* \"#utility.yul\":5231:5319   */\n      mstore\n        /* \"#utility.yul\":5338:5342   */\n      0x12\n        /* \"#utility.yul\":5335:5336   */\n      0x04\n        /* \"#utility.yul\":5328:5343   */\n      mstore\n        /* \"#utility.yul\":5362:5366   */\n      0x24\n        /* \"#utility.yul\":5359:5360   */\n      0x00\n        /* \"#utility.yul\":5352:5367   */\n      revert\n        /* \"#utility.yul\":5502:5619   */\n    tag_59:\n        /* \"#utility.yul\":5611:5612   */\n      0x00\n        /* \"#utility.yul\":5608:5609   */\n      dup1\n        /* \"#utility.yul\":5601:5613   */\n      revert\n        /* \"#utility.yul\":5625:5793   */\n    tag_74:\n        /* \"#utility.yul\":5765:5785   */\n      0x4469646e27742073656e6420656e6f7567680000000000000000000000000000\n        /* \"#utility.yul\":5761:5762   */\n      0x00\n        /* \"#utility.yul\":5753:5759   */\n      dup3\n        /* \"#utility.yul\":5749:5763   */\n      add\n        /* \"#utility.yul\":5742:5786   */\n      mstore\n        /* \"#utility.yul\":5625:5793   */\n      pop\n      jump\t// out\n        /* \"#utility.yul\":5799:5919   */\n    tag_47:\n        /* \"#utility.yul\":5871:5894   */\n      tag_121\n        /* \"#utility.yul\":5888:5893   */\n      dup2\n        /* \"#utility.yul\":5871:5894   */\n      tag_94\n      jump\t// in\n    tag_121:\n        /* \"#utility.yul\":5864:5869   */\n      dup2\n        /* \"#utility.yul\":5861:5895   */\n      eq\n        /* \"#utility.yul\":5851:5913   */\n      tag_122\n      jumpi\n        /* \"#utility.yul\":5909:5910   */\n      0x00\n        /* \"#utility.yul\":5906:5907   */\n      dup1\n        /* \"#utility.yul\":5899:5911   */\n      revert\n        /* \"#utility.yul\":5851:5913   */\n    tag_122:\n        /* \"#utility.yul\":5799:5919   */\n      pop\n      jump\t// out\n        /* \"#utility.yul\":5925:6047   */\n    tag_51:\n        /* \"#utility.yul\":5998:6022   */\n      tag_124\n        /* \"#utility.yul\":6016:6021   */\n      dup2\n        /* \"#utility.yul\":5998:6022   */\n      tag_78\n      jump\t// in\n    tag_124:\n        /* \"#utility.yul\":5991:5996   */\n      dup2\n        /* \"#utility.yul\":5988:6023   */\n      eq\n        /* \"#utility.yul\":5978:6041   */\n      tag_125\n      jumpi\n        /* \"#utility.yul\":6037:6038   */\n      0x00\n        /* \"#utility.yul\":6034:6035   */\n      dup1\n        /* \"#utility.yul\":6027:6039   */\n      revert\n        /* \"#utility.yul\":5978:6041   */\n    tag_125:\n        /* \"#utility.yul\":5925:6047   */\n      pop\n      jump\t// out\n        /* \"#utility.yul\":6053:6173   */\n    tag_55:\n        /* \"#utility.yul\":6125:6148   */\n      tag_127\n        /* \"#utility.yul\":6142:6147   */\n      dup2\n        /* \"#utility.yul\":6125:6148   */\n      tag_112\n      jump\t// in\n    tag_127:\n        /* \"#utility.yul\":6118:6123   */\n      dup2\n        /* \"#utility.yul\":6115:6149   */\n      eq\n        /* \"#utility.yul\":6105:6167   */\n      tag_128\n      jumpi\n        /* \"#utility.yul\":6163:6164   */\n      0x00\n        /* \"#utility.yul\":6160:6161   */\n      dup1\n        /* \"#utility.yul\":6153:6165   */\n      revert\n        /* \"#utility.yul\":6105:6167   */\n    tag_128:\n        /* \"#utility.yul\":6053:6173   */\n      pop\n      jump\t// out\n\n    auxdata: 0xa264697066735822122093c657944f4399bde9e53a5796b87ef44560182cde3202ddfc95dcd7f0c3b9f064736f6c63430008070033\n}\n",
				"bytecode": {
					"linkReferences": {},
					"object": "60806040526802b5e3af16b188000060005534801561001d57600080fd5b506106b68061002d6000396000f3fe6080604052600436106100345760003560e01c806351b80e41146100395780638793ad5514610064578063b60d42881461008f575b600080fd5b34801561004557600080fd5b5061004e610099565b60405161005b91906103b7565b60405180910390f35b34801561007057600080fd5b5061007961009f565b60405161008691906103b7565b60405180910390f35b61009761013d565b005b60005481565b600080735f4ec3df9cbd43714fe2740f5e3616155c5b841990508073ffffffffffffffffffffffffffffffffffffffff166354fd4d506040518163ffffffff1660e01b815260040160206040518083038186803b1580156100ff57600080fd5b505afa158015610113573d6000803e3d6000fd5b505050506040513d601f19601f8201168201806040525081019061013791906102bd565b91505090565b6000546101493461018c565b101561018a576040517f08c379a000000000000000000000000000000000000000000000000000000000815260040161018190610397565b60405180910390fd5b565b6000806101976101c6565b90506000670de0b6b3a764000084836101b0919061052b565b6101ba91906103e3565b90508092505050919050565b600080738a753747a1fa494ec906ce90e9f37563a8af630e905060008173ffffffffffffffffffffffffffffffffffffffff1663feaf968c6040518163ffffffff1660e01b815260040160a06040518083038186803b15801561022857600080fd5b505afa15801561023c573d6000803e3d6000fd5b505050506040513d601f19601f8201168201806040525081019061026091906102ea565b5050509150506402540be400816102779190610414565b9250505090565b60008151905061028d8161063b565b92915050565b6000815190506102a281610652565b92915050565b6000815190506102b781610669565b92915050565b6000602082840312156102d3576102d261060d565b5b60006102e184828501610293565b91505092915050565b600080600080600060a086880312156103065761030561060d565b5b6000610314888289016102a8565b95505060206103258882890161027e565b945050604061033688828901610293565b935050606061034788828901610293565b9250506080610358888289016102a8565b9150509295509295909350565b60006103726012836103d2565b915061037d82610612565b602082019050919050565b6103918161058f565b82525050565b600060208201905081810360008301526103b081610365565b9050919050565b60006020820190506103cc6000830184610388565b92915050565b600082825260208201905092915050565b60006103ee8261058f565b91506103f98361058f565b925082610409576104086105de565b5b828204905092915050565b600061041f82610585565b915061042a83610585565b9250827f7fffffffffffffffffffffffffffffffffffffffffffffffffffffffffffffff0482116000841360008413161615610469576104686105af565b5b817f800000000000000000000000000000000000000000000000000000000000000005831260008412600084131616156104a6576104a56105af565b5b827f800000000000000000000000000000000000000000000000000000000000000005821260008413600084121616156104e3576104e26105af565b5b827f7fffffffffffffffffffffffffffffffffffffffffffffffffffffffffffffff05821260008412600084121616156105205761051f6105af565b5b828202905092915050565b60006105368261058f565b91506105418361058f565b9250817fffffffffffffffffffffffffffffffffffffffffffffffffffffffffffffffff048311821515161561057a576105796105af565b5b828202905092915050565b6000819050919050565b6000819050919050565b600069ffffffffffffffffffff82169050919050565b7f4e487b7100000000000000000000000000000000000000000000000000000000600052601160045260246000fd5b7f4e487b7100000000000000000000000000000000000000000000000000000000600052601260045260246000fd5b600080fd5b7f4469646e27742073656e6420656e6f7567680000000000000000000000000000600082015250565b61064481610585565b811461064f57600080fd5b50565b61065b8161058f565b811461066657600080fd5b50565b61067281610599565b811461067d57600080fd5b5056fea264697066735822122093c657944f4399bde9e53a5796b87ef44560182cde3202ddfc95dcd7f0c3b9f064736f6c63430008070033",
					"opcodes": "PUSH1 0x80 PUSH1 0x40 MSTORE PUSH9 0x2B5E3AF16B1880000 PUSH1 0x0 SSTORE CALLVALUE DUP1 ISZERO PUSH2 0x1D JUMPI PUSH1 0x0 DUP1 REVERT JUMPDEST POP PUSH2 0x6B6 DUP1 PUSH2 0x2D PUSH1 0x0 CODECOPY PUSH1 0x0 RETURN INVALID PUSH1 0x80 PUSH1 0x40 MSTORE PUSH1 0x4 CALLDATASIZE LT PUSH2 0x34 JUMPI PUSH1 0x0 CALLDATALOAD PUSH1 0xE0 SHR DUP1 PUSH4 0x51B80E41 EQ PUSH2 0x39 JUMPI DUP1 PUSH4 0x8793AD55 EQ PUSH2 0x64 JUMPI DUP1 PUSH4 0xB60D4288 EQ PUSH2 0x8F JUMPI JUMPDEST PUSH1 0x0 DUP1 REVERT JUMPDEST CALLVALUE DUP1 ISZERO PUSH2 0x45 JUMPI PUSH1 0x0 DUP1 REVERT JUMPDEST POP PUSH2 0x4E PUSH2 0x99 JUMP JUMPDEST PUSH1 0x40 MLOAD PUSH2 0x5B SWAP2 SWAP1 PUSH2 0x3B7 JUMP JUMPDEST PUSH1 0x40 MLOAD DUP1 SWAP2 SUB SWAP1 RETURN JUMPDEST CALLVALUE DUP1 ISZERO PUSH2 0x70 JUMPI PUSH1 0x0 DUP1 REVERT JUMPDEST POP PUSH2 0x79 PUSH2 0x9F JUMP JUMPDEST PUSH1 0x40 MLOAD PUSH2 0x86 SWAP2 SWAP1 PUSH2 0x3B7 JUMP JUMPDEST PUSH1 0x40 MLOAD DUP1 SWAP2 SUB SWAP1 RETURN JUMPDEST PUSH2 0x97 PUSH2 0x13D JUMP JUMPDEST STOP JUMPDEST PUSH1 0x0 SLOAD DUP2 JUMP JUMPDEST PUSH1 0x0 DUP1 PUSH20 0x5F4EC3DF9CBD43714FE2740F5E3616155C5B8419 SWAP1 POP DUP1 PUSH20 0xFFFFFFFFFFFFFFFFFFFFFFFFFFFFFFFFFFFFFFFF AND PUSH4 0x54FD4D50 PUSH1 0x40 MLOAD DUP2 PUSH4 0xFFFFFFFF AND PUSH1 0xE0 SHL DUP2 MSTORE PUSH1 0x4 ADD PUSH1 0x20 PUSH1 0x40 MLOAD DUP1 DUP4 SUB DUP2 DUP7 DUP1 EXTCODESIZE ISZERO DUP1 ISZERO PUSH2 0xFF JUMPI PUSH1 0x0 DUP1 REVERT JUMPDEST POP GAS STATICCALL ISZERO DUP1 ISZERO PUSH2 0x113 JUMPI RETURNDATASIZE PUSH1 0x0 DUP1 RETURNDATACOPY RETURNDATASIZE PUSH1 0x0 REVERT JUMPDEST POP POP POP POP PUSH1 0x40 MLOAD RETURNDATASIZE PUSH1 0x1F NOT PUSH1 0x1F DUP3 ADD AND DUP3 ADD DUP1 PUSH1 0x40 MSTORE POP DUP2 ADD SWAP1 PUSH2 0x137 SWAP2 SWAP1 PUSH2 0x2BD JUMP JUMPDEST SWAP2 POP POP SWAP1 JUMP JUMPDEST PUSH1 0x0 SLOAD PUSH2 0x149 CALLVALUE PUSH2 0x18C JUMP JUMPDEST LT ISZERO PUSH2 0x18A JUMPI PUSH1 0x40 MLOAD PUSH32 0x8C379A000000000000000000000000000000000000000000000000000000000 DUP2 MSTORE PUSH1 0x4 ADD PUSH2 0x181 SWAP1 PUSH2 0x397 JUMP JUMPDEST PUSH1 0x40 MLOAD DUP1 SWAP2 SUB SWAP1 REVERT JUMPDEST JUMP JUMPDEST PUSH1 0x0 DUP1 PUSH2 0x197 PUSH2 0x1C6 JUMP JUMPDEST SWAP1 POP PUSH1 0x0 PUSH8 0xDE0B6B3A7640000 DUP5 DUP4 PUSH2 0x1B0 SWAP2 SWAP1 PUSH2 0x52B JUMP JUMPDEST PUSH2 0x1BA SWAP2 SWAP1 PUSH2 0x3E3 JUMP JUMPDEST SWAP1 POP DUP1 SWAP3 POP POP POP SWAP2 SWAP1 POP JUMP JUMPDEST PUSH1 0x0 DUP1 PUSH20 0x8A753747A1FA494EC906CE90E9F37563A8AF630E SWAP1 POP PUSH1 0x0 DUP2 PUSH20 0xFFFFFFFFFFFFFFFFFFFFFFFFFFFFFFFFFFFFFFFF AND PUSH4 0xFEAF968C PUSH1 0x40 MLOAD DUP2 PUSH4 0xFFFFFFFF AND PUSH1 0xE0 SHL DUP2 MSTORE PUSH1 0x4 ADD PUSH1 0xA0 PUSH1 0x40 MLOAD DUP1 DUP4 SUB DUP2 DUP7 DUP1 EXTCODESIZE ISZERO DUP1 ISZERO PUSH2 0x228 JUMPI PUSH1 0x0 DUP1 REVERT JUMPDEST POP GAS STATICCALL ISZERO DUP1 ISZERO PUSH2 0x23C JUMPI RETURNDATASIZE PUSH1 0x0 DUP1 RETURNDATACOPY RETURNDATASIZE PUSH1 0x0 REVERT JUMPDEST POP POP POP POP PUSH1 0x40 MLOAD RETURNDATASIZE PUSH1 0x1F NOT PUSH1 0x1F DUP3 ADD AND DUP3 ADD DUP1 PUSH1 0x40 MSTORE POP DUP2 ADD SWAP1 PUSH2 0x260 SWAP2 SWAP1 PUSH2 0x2EA JUMP JUMPDEST POP POP POP SWAP2 POP POP PUSH5 0x2540BE400 DUP2 PUSH2 0x277 SWAP2 SWAP1 PUSH2 0x414 JUMP JUMPDEST SWAP3 POP POP POP SWAP1 JUMP JUMPDEST PUSH1 0x0 DUP2 MLOAD SWAP1 POP PUSH2 0x28D DUP2 PUSH2 0x63B JUMP JUMPDEST SWAP3 SWAP2 POP POP JUMP JUMPDEST PUSH1 0x0 DUP2 MLOAD SWAP1 POP PUSH2 0x2A2 DUP2 PUSH2 0x652 JUMP JUMPDEST SWAP3 SWAP2 POP POP JUMP JUMPDEST PUSH1 0x0 DUP2 MLOAD SWAP1 POP PUSH2 0x2B7 DUP2 PUSH2 0x669 JUMP JUMPDEST SWAP3 SWAP2 POP POP JUMP JUMPDEST PUSH1 0x0 PUSH1 0x20 DUP3 DUP5 SUB SLT ISZERO PUSH2 0x2D3 JUMPI PUSH2 0x2D2 PUSH2 0x60D JUMP JUMPDEST JUMPDEST PUSH1 0x0 PUSH2 0x2E1 DUP5 DUP3 DUP6 ADD PUSH2 0x293 JUMP JUMPDEST SWAP2 POP POP SWAP3 SWAP2 POP POP JUMP JUMPDEST PUSH1 0x0 DUP1 PUSH1 0x0 DUP1 PUSH1 0x0 PUSH1 0xA0 DUP7 DUP9 SUB SLT ISZERO PUSH2 0x306 JUMPI PUSH2 0x305 PUSH2 0x60D JUMP JUMPDEST JUMPDEST PUSH1 0x0 PUSH2 0x314 DUP9 DUP3 DUP10 ADD PUSH2 0x2A8 JUMP JUMPDEST SWAP6 POP POP PUSH1 0x20 PUSH2 0x325 DUP9 DUP3 DUP10 ADD PUSH2 0x27E JUMP JUMPDEST SWAP5 POP POP PUSH1 0x40 PUSH2 0x336 DUP9 DUP3 DUP10 ADD PUSH2 0x293 JUMP JUMPDEST SWAP4 POP POP PUSH1 0x60 PUSH2 0x347 DUP9 DUP3 DUP10 ADD PUSH2 0x293 JUMP JUMPDEST SWAP3 POP POP PUSH1 0x80 PUSH2 0x358 DUP9 DUP3 DUP10 ADD PUSH2 0x2A8 JUMP JUMPDEST SWAP2 POP POP SWAP3 SWAP6 POP SWAP3 SWAP6 SWAP1 SWAP4 POP JUMP JUMPDEST PUSH1 0x0 PUSH2 0x372 PUSH1 0x12 DUP4 PUSH2 0x3D2 JUMP JUMPDEST SWAP2 POP PUSH2 0x37D DUP3 PUSH2 0x612 JUMP JUMPDEST PUSH1 0x20 DUP3 ADD SWAP1 POP SWAP2 SWAP1 POP JUMP JUMPDEST PUSH2 0x391 DUP2 PUSH2 0x58F JUMP JUMPDEST DUP3 MSTORE POP POP JUMP JUMPDEST PUSH1 0x0 PUSH1 0x20 DUP3 ADD SWAP1 POP DUP2 DUP2 SUB PUSH1 0x0 DUP4 ADD MSTORE PUSH2 0x3B0 DUP2 PUSH2 0x365 JUMP JUMPDEST SWAP1 POP SWAP2 SWAP1 POP JUMP JUMPDEST PUSH1 0x0 PUSH1 0x20 DUP3 ADD SWAP1 POP PUSH2 0x3CC PUSH1 0x0 DUP4 ADD DUP5 PUSH2 0x388 JUMP JUMPDEST SWAP3 SWAP2 POP POP JUMP JUMPDEST PUSH1 0x0 DUP3 DUP3 MSTORE PUSH1 0x20 DUP3 ADD SWAP1 POP SWAP3 SWAP2 POP POP JUMP JUMPDEST PUSH1 0x0 PUSH2 0x3EE DUP3 PUSH2 0x58F JUMP JUMPDEST SWAP2 POP PUSH2 0x3F9 DUP4 PUSH2 0x58F JUMP JUMPDEST SWAP3 POP DUP3 PUSH2 0x409 JUMPI PUSH2 0x408 PUSH2 0x5DE JUMP JUMPDEST JUMPDEST DUP3 DUP3 DIV SWAP1 POP SWAP3 SWAP2 POP POP JUMP JUMPDEST PUSH1 0x0 PUSH2 0x41F DUP3 PUSH2 0x585 JUMP JUMPDEST SWAP2 POP PUSH2 0x42A DUP4 PUSH2 0x585 JUMP JUMPDEST SWAP3 POP DUP3 PUSH32 0x7FFFFFFFFFFFFFFFFFFFFFFFFFFFFFFFFFFFFFFFFFFFFFFFFFFFFFFFFFFFFFFF DIV DUP3 GT PUSH1 0x0 DUP5 SGT PUSH1 0x0 DUP5 SGT AND AND ISZERO PUSH2 0x469 JUMPI PUSH2 0x468 PUSH2 0x5AF JUMP JUMPDEST JUMPDEST DUP2 PUSH32 0x8000000000000000000000000000000000000000000000000000000000000000 SDIV DUP4 SLT PUSH1 0x0 DUP5 SLT PUSH1 0x0 DUP5 SGT AND AND ISZERO PUSH2 0x4A6 JUMPI PUSH2 0x4A5 PUSH2 0x5AF JUMP JUMPDEST JUMPDEST DUP3 PUSH32 0x8000000000000000000000000000000000000000000000000000000000000000 SDIV DUP3 SLT PUSH1 0x0 DUP5 SGT PUSH1 0x0 DUP5 SLT AND AND ISZERO PUSH2 0x4E3 JUMPI PUSH2 0x4E2 PUSH2 0x5AF JUMP JUMPDEST JUMPDEST DUP3 PUSH32 0x7FFFFFFFFFFFFFFFFFFFFFFFFFFFFFFFFFFFFFFFFFFFFFFFFFFFFFFFFFFFFFFF SDIV DUP3 SLT PUSH1 0x0 DUP5 SLT PUSH1 0x0 DUP5 SLT AND AND ISZERO PUSH2 0x520 JUMPI PUSH2 0x51F PUSH2 0x5AF JUMP JUMPDEST JUMPDEST DUP3 DUP3 MUL SWAP1 POP SWAP3 SWAP2 POP POP JUMP JUMPDEST PUSH1 0x0 PUSH2 0x536 DUP3 PUSH2 0x58F JUMP JUMPDEST SWAP2 POP PUSH2 0x541 DUP4 PUSH2 0x58F JUMP JUMPDEST SWAP3 POP DUP2 PUSH32 0xFFFFFFFFFFFFFFFFFFFFFFFFFFFFFFFFFFFFFFFFFFFFFFFFFFFFFFFFFFFFFFFF DIV DUP4 GT DUP3 ISZERO ISZERO AND ISZERO PUSH2 0x57A JUMPI PUSH2 0x579 PUSH2 0x5AF JUMP JUMPDEST JUMPDEST DUP3 DUP3 MUL SWAP1 POP SWAP3 SWAP2 POP POP JUMP JUMPDEST PUSH1 0x0 DUP2 SWAP1 POP SWAP2 SWAP1 POP JUMP JUMPDEST PUSH1 0x0 DUP2 SWAP1 POP SWAP2 SWAP1 POP JUMP JUMPDEST PUSH1 0x0 PUSH10 0xFFFFFFFFFFFFFFFFFFFF DUP3 AND SWAP1 POP SWAP2 SWAP1 POP JUMP JUMPDEST PUSH32 0x4E487B7100000000000000000000000000000000000000000000000000000000 PUSH1 0x0 MSTORE PUSH1 0x11 PUSH1 0x4 MSTORE PUSH1 0x24 PUSH1 0x0 REVERT JUMPDEST PUSH32 0x4E487B7100000000000000000000000000000000000000000000000000000000 PUSH1 0x0 MSTORE PUSH1 0x12 PUSH1 0x4 MSTORE PUSH1 0x24 PUSH1 0x0 REVERT JUMPDEST PUSH1 0x0 DUP1 REVERT JUMPDEST PUSH32 0x4469646E27742073656E6420656E6F7567680000000000000000000000000000 PUSH1 0x0 DUP3 ADD MSTORE POP JUMP JUMPDEST PUSH2 0x644 DUP2 PUSH2 0x585 JUMP JUMPDEST DUP2 EQ PUSH2 0x64F JUMPI PUSH1 0x0 DUP1 REVERT JUMPDEST POP JUMP JUMPDEST PUSH2 0x65B DUP2 PUSH2 0x58F JUMP JUMPDEST DUP2 EQ PUSH2 0x666 JUMPI PUSH1 0x0 DUP1 REVERT JUMPDEST POP JUMP JUMPDEST PUSH2 0x672 DUP2 PUSH2 0x599 JUMP JUMPDEST DUP2 EQ PUSH2 0x67D JUMPI PUSH1 0x0 DUP1 REVERT JUMPDEST POP JUMP INVALID LOG2 PUSH5 0x6970667358 0x22 SLT KECCAK256 SWAP4 0xC6 JUMPI SWAP5 0x4F NUMBER SWAP10 0xBD 0xE9 0xE5 GASPRICE JUMPI SWAP7 0xB8 PUSH31 0xF44560182CDE3202DDFC95DCD7F0C3B9F064736F6C63430008070033000000 "
				},
				"gasEstimates": {
					"creation": {
						"codeDepositCost": "343600",
						"executionCost": "22486",
						"totalCost": "366086"
					},
					"external": {
						"fund()": "infinite",
						"getVer()": "infinite",
						"minUsd()": "2407"
					}
				},
				"methodIdentifiers": {
					"fund()": "b60d4288",
					"getVer()": "8793ad55",
					"minUsd()": "51b80e41"
				}
			},
			"storageLayout": {
				"storage": [
					{
						"astId": 57,
						"contract": "contracts/FundMe.sol:FundMe",
						"label": "minUsd",
						"offset": 0,
						"slot": "0",
						"type": "t_uint256"
					}
				],
				"types": {
					"t_uint256": {
						"encoding": "inplace",
						"label": "uint256",
						"numberOfBytes": "32"
					}
				}
			},
			"userdoc": {
				"kind": "user",
				"methods": {},
				"version": 1
			}
		}
	}
}