{
	"contracts/FundMe.sol": {
		"FundMe": {
			"abi": [
				{
					"inputs": [],
					"stateMutability": "nonpayable",
					"type": "constructor"
				},
				{
					"inputs": [
						{
							"internalType": "address",
							"name": "",
							"type": "address"
						}
					],
					"name": "addressToAmtFunded",
					"outputs": [
						{
							"internalType": "uint256",
							"name": "",
							"type": "uint256"
						}
					],
					"stateMutability": "view",
					"type": "function"
				},
				{
					"inputs": [],
					"name": "fund",
					"outputs": [],
					"stateMutability": "payable",
					"type": "function"
				},
				{
					"inputs": [
						{
							"internalType": "uint256",
							"name": "",
							"type": "uint256"
						}
					],
					"name": "funders",
					"outputs": [
						{
							"internalType": "address",
							"name": "",
							"type": "address"
						}
					],
					"stateMutability": "view",
					"type": "function"
				},
				{
					"inputs": [],
					"name": "minUsd",
					"outputs": [
						{
							"internalType": "uint256",
							"name": "",
							"type": "uint256"
						}
					],
					"stateMutability": "view",
					"type": "function"
				},
				{
					"inputs": [],
					"name": "owner",
					"outputs": [
						{
							"internalType": "address",
							"name": "",
							"type": "address"
						}
					],
					"stateMutability": "view",
					"type": "function"
				},
				{
					"inputs": [],
					"name": "withdraw",
					"outputs": [],
					"stateMutability": "nonpayable",
					"type": "function"
				}
			],
			"devdoc": {
				"kind": "dev",
				"methods": {},
				"version": 1
			},
			"evm": {
				"assembly": "    /* \"contracts/FundMe.sol\":277:2706  contract FundMe {\r... */\n  mstore(0x40, 0x80)\n    /* \"contracts/FundMe.sol\":399:408  50 * 1e18 */\n  0x02b5e3af16b1880000\n    /* \"contracts/FundMe.sol\":375:408  uint256 public minUsd = 50 * 1e18 */\n  0x00\n  sstore\n    /* \"contracts/FundMe.sol\":539:589  constructor(){\r... */\n  callvalue\n  dup1\n  iszero\n  tag_1\n  jumpi\n  0x00\n  dup1\n  revert\ntag_1:\n  pop\n    /* \"contracts/FundMe.sol\":571:581  msg.sender */\n  caller\n    /* \"contracts/FundMe.sol\":563:568  owner */\n  0x03\n  0x00\n    /* \"contracts/FundMe.sol\":563:581  owner = msg.sender */\n  0x0100\n  exp\n  dup2\n  sload\n  dup2\n  0xffffffffffffffffffffffffffffffffffffffff\n  mul\n  not\n  and\n  swap1\n  dup4\n  0xffffffffffffffffffffffffffffffffffffffff\n  and\n  mul\n  or\n  swap1\n  sstore\n  pop\n    /* \"contracts/FundMe.sol\":277:2706  contract FundMe {\r... */\n  dataSize(sub_0)\n  dup1\n  dataOffset(sub_0)\n  0x00\n  codecopy\n  0x00\n  return\nstop\n\nsub_0: assembly {\n        /* \"contracts/FundMe.sol\":277:2706  contract FundMe {\r... */\n      mstore(0x40, 0x80)\n      jumpi(tag_1, lt(calldatasize, 0x04))\n      shr(0xe0, calldataload(0x00))\n      dup1\n      0x2e715429\n      eq\n      tag_2\n      jumpi\n      dup1\n      0x3ccfd60b\n      eq\n      tag_3\n      jumpi\n      dup1\n      0x51b80e41\n      eq\n      tag_4\n      jumpi\n      dup1\n      0x8da5cb5b\n      eq\n      tag_5\n      jumpi\n      dup1\n      0xb60d4288\n      eq\n      tag_6\n      jumpi\n      dup1\n      0xdc0d3dff\n      eq\n      tag_7\n      jumpi\n    tag_1:\n      0x00\n      dup1\n      revert\n        /* \"contracts/FundMe.sol\":449:503  mapping(address => uint256)  public addressToAmtFunded */\n    tag_2:\n      callvalue\n      dup1\n      iszero\n      tag_8\n      jumpi\n      0x00\n      dup1\n      revert\n    tag_8:\n      pop\n      tag_9\n      0x04\n      dup1\n      calldatasize\n      sub\n      dup2\n      add\n      swap1\n      tag_10\n      swap2\n      swap1\n      tag_11\n      jump\t// in\n    tag_10:\n      tag_12\n      jump\t// in\n    tag_9:\n      mload(0x40)\n      tag_13\n      swap2\n      swap1\n      tag_14\n      jump\t// in\n    tag_13:\n      mload(0x40)\n      dup1\n      swap2\n      sub\n      swap1\n      return\n        /* \"contracts/FundMe.sol\":1187:2447  function withdraw() public onlyOwner{\r... */\n    tag_3:\n      callvalue\n      dup1\n      iszero\n      tag_15\n      jumpi\n      0x00\n      dup1\n      revert\n    tag_15:\n      pop\n      tag_16\n      tag_17\n      jump\t// in\n    tag_16:\n      stop\n        /* \"contracts/FundMe.sol\":375:408  uint256 public minUsd = 50 * 1e18 */\n    tag_4:\n      callvalue\n      dup1\n      iszero\n      tag_18\n      jumpi\n      0x00\n      dup1\n      revert\n    tag_18:\n      pop\n      tag_19\n      tag_20\n      jump\t// in\n    tag_19:\n      mload(0x40)\n      tag_21\n      swap2\n      swap1\n      tag_14\n      jump\t// in\n    tag_21:\n      mload(0x40)\n      dup1\n      swap2\n      sub\n      swap1\n      return\n        /* \"contracts/FundMe.sol\":512:532  address public owner */\n    tag_5:\n      callvalue\n      dup1\n      iszero\n      tag_22\n      jumpi\n      0x00\n      dup1\n      revert\n    tag_22:\n      pop\n      tag_23\n      tag_24\n      jump\t// in\n    tag_23:\n      mload(0x40)\n      tag_25\n      swap2\n      swap1\n      tag_26\n      jump\t// in\n    tag_25:\n      mload(0x40)\n      dup1\n      swap2\n      sub\n      swap1\n      return\n        /* \"contracts/FundMe.sol\":597:1169  function fund() public payable{\r... */\n    tag_6:\n      tag_27\n      tag_28\n      jump\t// in\n    tag_27:\n      stop\n        /* \"contracts/FundMe.sol\":417:442  address [] public funders */\n    tag_7:\n      callvalue\n      dup1\n      iszero\n      tag_29\n      jumpi\n      0x00\n      dup1\n      revert\n    tag_29:\n      pop\n      tag_30\n      0x04\n      dup1\n      calldatasize\n      sub\n      dup2\n      add\n      swap1\n      tag_31\n      swap2\n      swap1\n      tag_32\n      jump\t// in\n    tag_31:\n      tag_33\n      jump\t// in\n    tag_30:\n      mload(0x40)\n      tag_34\n      swap2\n      swap1\n      tag_26\n      jump\t// in\n    tag_34:\n      mload(0x40)\n      dup1\n      swap2\n      sub\n      swap1\n      return\n        /* \"contracts/FundMe.sol\":449:503  mapping(address => uint256)  public addressToAmtFunded */\n    tag_12:\n      mstore(0x20, 0x02)\n      dup1\n      0x00\n      mstore\n      keccak256(0x00, 0x40)\n      0x00\n      swap2\n      pop\n      swap1\n      pop\n      sload\n      dup2\n      jump\t// out\n        /* \"contracts/FundMe.sol\":1187:2447  function withdraw() public onlyOwner{\r... */\n    tag_17:\n        /* \"contracts/FundMe.sol\":2506:2511  owner */\n      0x03\n      0x00\n      swap1\n      sload\n      swap1\n      0x0100\n      exp\n      swap1\n      div\n      0xffffffffffffffffffffffffffffffffffffffff\n      and\n        /* \"contracts/FundMe.sol\":2492:2511  msg.sender == owner */\n      0xffffffffffffffffffffffffffffffffffffffff\n      and\n        /* \"contracts/FundMe.sol\":2492:2502  msg.sender */\n      caller\n        /* \"contracts/FundMe.sol\":2492:2511  msg.sender == owner */\n      0xffffffffffffffffffffffffffffffffffffffff\n      and\n      eq\n        /* \"contracts/FundMe.sol\":2484:2534  require(msg.sender == owner,\"Sender is not owner\") */\n      tag_36\n      jumpi\n      mload(0x40)\n      0x08c379a000000000000000000000000000000000000000000000000000000000\n      dup2\n      mstore\n      0x04\n      add\n      tag_37\n      swap1\n      tag_38\n      jump\t// in\n    tag_37:\n      mload(0x40)\n      dup1\n      swap2\n      sub\n      swap1\n      revert\n    tag_36:\n        /* \"contracts/FundMe.sol\":1305:1324  uint256 funderIndex */\n      0x00\n        /* \"contracts/FundMe.sol\":1301:1509  for(uint256 funderIndex = 0;funderIndex<=funders.length;funderIndex++){\r... */\n    tag_40:\n        /* \"contracts/FundMe.sol\":1342:1349  funders */\n      0x01\n        /* \"contracts/FundMe.sol\":1342:1356  funders.length */\n      dup1\n      sload\n      swap1\n      pop\n        /* \"contracts/FundMe.sol\":1329:1340  funderIndex */\n      dup2\n        /* \"contracts/FundMe.sol\":1329:1356  funderIndex<=funders.length */\n      gt\n        /* \"contracts/FundMe.sol\":1301:1509  for(uint256 funderIndex = 0;funderIndex<=funders.length;funderIndex++){\r... */\n      tag_41\n      jumpi\n        /* \"contracts/FundMe.sol\":1406:1420  address funder */\n      0x00\n        /* \"contracts/FundMe.sol\":1423:1430  funders */\n      0x01\n        /* \"contracts/FundMe.sol\":1431:1442  funderIndex */\n      dup3\n        /* \"contracts/FundMe.sol\":1423:1443  funders[funderIndex] */\n      dup2\n      sload\n      dup2\n      lt\n      tag_43\n      jumpi\n      mstore(0x00, 0x4e487b7100000000000000000000000000000000000000000000000000000000)\n      mstore(0x04, 0x32)\n      revert(0x00, 0x24)\n    tag_43:\n      swap1\n      0x00\n      mstore\n      keccak256(0x00, 0x20)\n      add\n      0x00\n      swap1\n      sload\n      swap1\n      0x0100\n      exp\n      swap1\n      div\n      0xffffffffffffffffffffffffffffffffffffffff\n      and\n        /* \"contracts/FundMe.sol\":1406:1443  address funder = funders[funderIndex] */\n      swap1\n      pop\n        /* \"contracts/FundMe.sol\":1488:1489  0 */\n      0x00\n        /* \"contracts/FundMe.sol\":1459:1477  addressToAmtFunded */\n      0x02\n        /* \"contracts/FundMe.sol\":1459:1485  addressToAmtFunded[funder] */\n      0x00\n        /* \"contracts/FundMe.sol\":1478:1484  funder */\n      dup4\n        /* \"contracts/FundMe.sol\":1459:1485  addressToAmtFunded[funder] */\n      0xffffffffffffffffffffffffffffffffffffffff\n      and\n      0xffffffffffffffffffffffffffffffffffffffff\n      and\n      dup2\n      mstore\n      0x20\n      add\n      swap1\n      dup2\n      mstore\n      0x20\n      add\n      0x00\n      keccak256\n        /* \"contracts/FundMe.sol\":1459:1489  addressToAmtFunded[funder] = 0 */\n      dup2\n      swap1\n      sstore\n      pop\n        /* \"contracts/FundMe.sol\":1301:1509  for(uint256 funderIndex = 0;funderIndex<=funders.length;funderIndex++){\r... */\n      pop\n        /* \"contracts/FundMe.sol\":1357:1370  funderIndex++ */\n      dup1\n      dup1\n      tag_45\n      swap1\n      tag_46\n      jump\t// in\n    tag_45:\n      swap2\n      pop\n      pop\n        /* \"contracts/FundMe.sol\":1301:1509  for(uint256 funderIndex = 0;funderIndex<=funders.length;funderIndex++){\r... */\n      jump(tag_40)\n    tag_41:\n      pop\n        /* \"contracts/FundMe.sol\":1570:1571  0 */\n      0x00\n        /* \"contracts/FundMe.sol\":1556:1572  new address[](0) */\n      0xffffffffffffffff\n      dup2\n      gt\n      iszero\n      tag_47\n      jumpi\n      mstore(0x00, 0x4e487b7100000000000000000000000000000000000000000000000000000000)\n      mstore(0x04, 0x41)\n      revert(0x00, 0x24)\n    tag_47:\n      mload(0x40)\n      swap1\n      dup1\n      dup3\n      mstore\n      dup1\n      0x20\n      mul\n      0x20\n      add\n      dup3\n      add\n      0x40\n      mstore\n      dup1\n      iszero\n      tag_48\n      jumpi\n      dup2\n      0x20\n      add\n      0x20\n      dup3\n      mul\n      dup1\n      calldatasize\n      dup4\n      calldatacopy\n      dup1\n      dup3\n      add\n      swap2\n      pop\n      pop\n      swap1\n      pop\n    tag_48:\n      pop\n        /* \"contracts/FundMe.sol\":1546:1553  funders */\n      0x01\n        /* \"contracts/FundMe.sol\":1546:1572  funders = new address[](0) */\n      swap1\n      dup1\n      mload\n      swap1\n      0x20\n      add\n      swap1\n      tag_49\n      swap3\n      swap2\n      swap1\n      tag_50\n      jump\t// in\n    tag_49:\n      pop\n        /* \"contracts/FundMe.sol\":2314:2330  bool callSuccess */\n      0x00\n        /* \"contracts/FundMe.sol\":2344:2354  msg.sender */\n      caller\n        /* \"contracts/FundMe.sol\":2336:2360  payable(msg.sender).call */\n      0xffffffffffffffffffffffffffffffffffffffff\n      and\n        /* \"contracts/FundMe.sol\":2368:2389  address(this).balance */\n      selfbalance\n        /* \"contracts/FundMe.sol\":2336:2394  payable(msg.sender).call{value: address(this).balance}(\"\") */\n      mload(0x40)\n      tag_51\n      swap1\n      tag_52\n      jump\t// in\n    tag_51:\n      0x00\n      mload(0x40)\n      dup1\n      dup4\n      sub\n      dup2\n      dup6\n      dup8\n      gas\n      call\n      swap3\n      pop\n      pop\n      pop\n      returndatasize\n      dup1\n      0x00\n      dup2\n      eq\n      tag_55\n      jumpi\n      mload(0x40)\n      swap2\n      pop\n      and(add(returndatasize, 0x3f), not(0x1f))\n      dup3\n      add\n      0x40\n      mstore\n      returndatasize\n      dup3\n      mstore\n      returndatasize\n      0x00\n      0x20\n      dup5\n      add\n      returndatacopy\n      jump(tag_54)\n    tag_55:\n      0x60\n      swap2\n      pop\n    tag_54:\n      pop\n        /* \"contracts/FundMe.sol\":2313:2394  (bool callSuccess, ) = payable(msg.sender).call{value: address(this).balance}(\"\") */\n      pop\n      swap1\n      pop\n        /* \"contracts/FundMe.sol\":2413:2424  callSuccess */\n      dup1\n        /* \"contracts/FundMe.sol\":2405:2439  require(callSuccess,\"Call failed\") */\n      tag_56\n      jumpi\n      mload(0x40)\n      0x08c379a000000000000000000000000000000000000000000000000000000000\n      dup2\n      mstore\n      0x04\n      add\n      tag_57\n      swap1\n      tag_58\n      jump\t// in\n    tag_57:\n      mload(0x40)\n      dup1\n      swap2\n      sub\n      swap1\n      revert\n    tag_56:\n        /* \"contracts/FundMe.sol\":2560:2561  _ */\n      pop\n        /* \"contracts/FundMe.sol\":1187:2447  function withdraw() public onlyOwner{\r... */\n      jump\t// out\n        /* \"contracts/FundMe.sol\":375:408  uint256 public minUsd = 50 * 1e18 */\n    tag_20:\n      sload(0x00)\n      dup2\n      jump\t// out\n        /* \"contracts/FundMe.sol\":512:532  address public owner */\n    tag_24:\n      0x03\n      0x00\n      swap1\n      sload\n      swap1\n      0x0100\n      exp\n      swap1\n      div\n      0xffffffffffffffffffffffffffffffffffffffff\n      and\n      dup2\n      jump\t// out\n        /* \"contracts/FundMe.sol\":597:1169  function fund() public payable{\r... */\n    tag_28:\n        /* \"contracts/FundMe.sol\":901:907  minUsd */\n      sload(0x00)\n        /* \"contracts/FundMe.sol\":868:897  msg.value.getConversionRate() */\n      tag_60\n        /* \"contracts/FundMe.sol\":868:877  msg.value */\n      callvalue\n        /* \"contracts/FundMe.sol\":868:895  msg.value.getConversionRate */\n      tag_61\n        /* \"contracts/FundMe.sol\":868:897  msg.value.getConversionRate() */\n      jump\t// in\n    tag_60:\n        /* \"contracts/FundMe.sol\":868:907  msg.value.getConversionRate() >= minUsd */\n      lt\n      iszero\n        /* \"contracts/FundMe.sol\":860:930  require(msg.value.getConversionRate() >= minUsd ,\"Didn't send enough\") */\n      tag_62\n      jumpi\n      mload(0x40)\n      0x08c379a000000000000000000000000000000000000000000000000000000000\n      dup2\n      mstore\n      0x04\n      add\n      tag_63\n      swap1\n      tag_64\n      jump\t// in\n    tag_63:\n      mload(0x40)\n      dup1\n      swap2\n      sub\n      swap1\n      revert\n    tag_62:\n        /* \"contracts/FundMe.sol\":1084:1091  funders */\n      0x01\n        /* \"contracts/FundMe.sol\":1097:1107  msg.sender */\n      caller\n        /* \"contracts/FundMe.sol\":1084:1108  funders.push(msg.sender) */\n      swap1\n      dup1\n      0x01\n      dup2\n      sload\n      add\n      dup1\n      dup3\n      sstore\n      dup1\n      swap2\n      pop\n      pop\n      0x01\n      swap1\n      sub\n      swap1\n      0x00\n      mstore\n      keccak256(0x00, 0x20)\n      add\n      0x00\n      swap1\n      swap2\n      swap1\n      swap2\n      swap1\n      swap2\n      0x0100\n      exp\n      dup2\n      sload\n      dup2\n      0xffffffffffffffffffffffffffffffffffffffff\n      mul\n      not\n      and\n      swap1\n      dup4\n      0xffffffffffffffffffffffffffffffffffffffff\n      and\n      mul\n      or\n      swap1\n      sstore\n      pop\n        /* \"contracts/FundMe.sol\":1152:1161  msg.value */\n      callvalue\n        /* \"contracts/FundMe.sol\":1119:1137  addressToAmtFunded */\n      0x02\n        /* \"contracts/FundMe.sol\":1119:1149  addressToAmtFunded[msg.sender] */\n      0x00\n        /* \"contracts/FundMe.sol\":1138:1148  msg.sender */\n      caller\n        /* \"contracts/FundMe.sol\":1119:1149  addressToAmtFunded[msg.sender] */\n      0xffffffffffffffffffffffffffffffffffffffff\n      and\n      0xffffffffffffffffffffffffffffffffffffffff\n      and\n      dup2\n      mstore\n      0x20\n      add\n      swap1\n      dup2\n      mstore\n      0x20\n      add\n      0x00\n      keccak256\n        /* \"contracts/FundMe.sol\":1119:1161  addressToAmtFunded[msg.sender] = msg.value */\n      dup2\n      swap1\n      sstore\n      pop\n        /* \"contracts/FundMe.sol\":597:1169  function fund() public payable{\r... */\n      jump\t// out\n        /* \"contracts/FundMe.sol\":417:442  address [] public funders */\n    tag_33:\n      0x01\n      dup2\n      dup2\n      sload\n      dup2\n      lt\n      tag_66\n      jumpi\n      0x00\n      dup1\n      revert\n    tag_66:\n      swap1\n      0x00\n      mstore\n      keccak256(0x00, 0x20)\n      add\n      0x00\n      swap2\n      pop\n      sload\n      swap1\n      0x0100\n      exp\n      swap1\n      div\n      0xffffffffffffffffffffffffffffffffffffffff\n      and\n      dup2\n      jump\t// out\n        /* \"contracts/PriceConverter.sol\":827:1141  function getConversionRate(uint256 ethamt) internal view returns (uint256){\r... */\n    tag_61:\n        /* \"contracts/PriceConverter.sol\":893:900  uint256 */\n      0x00\n        /* \"contracts/PriceConverter.sol\":912:928  uint256 ethPrice */\n      dup1\n        /* \"contracts/PriceConverter.sol\":931:941  getPrice() */\n      tag_69\n        /* \"contracts/PriceConverter.sol\":931:939  getPrice */\n      tag_70\n        /* \"contracts/PriceConverter.sol\":931:941  getPrice() */\n      jump\t// in\n    tag_69:\n        /* \"contracts/PriceConverter.sol\":912:941  uint256 ethPrice = getPrice() */\n      swap1\n      pop\n        /* \"contracts/PriceConverter.sol\":1040:1059  uint256 ethAmtInUsd */\n      0x00\n        /* \"contracts/PriceConverter.sol\":1082:1086  1e18 */\n      0x0de0b6b3a7640000\n        /* \"contracts/PriceConverter.sol\":1072:1078  ethamt */\n      dup5\n        /* \"contracts/PriceConverter.sol\":1063:1071  ethPrice */\n      dup4\n        /* \"contracts/PriceConverter.sol\":1063:1078  ethPrice*ethamt */\n      tag_71\n      swap2\n      swap1\n      tag_72\n      jump\t// in\n    tag_71:\n        /* \"contracts/PriceConverter.sol\":1062:1086  (ethPrice*ethamt) / 1e18 */\n      tag_73\n      swap2\n      swap1\n      tag_74\n      jump\t// in\n    tag_73:\n        /* \"contracts/PriceConverter.sol\":1040:1086  uint256 ethAmtInUsd = (ethPrice*ethamt) / 1e18 */\n      swap1\n      pop\n        /* \"contracts/PriceConverter.sol\":1121:1132  ethAmtInUsd */\n      dup1\n        /* \"contracts/PriceConverter.sol\":1114:1132  return ethAmtInUsd */\n      swap3\n      pop\n      pop\n      pop\n        /* \"contracts/PriceConverter.sol\":827:1141  function getConversionRate(uint256 ethamt) internal view returns (uint256){\r... */\n      swap2\n      swap1\n      pop\n      jump\t// out\n        /* \"contracts/PriceConverter.sol\":184:608  function getPrice() internal view returns(uint256){\r... */\n    tag_70:\n        /* \"contracts/PriceConverter.sol\":226:233  uint256 */\n      0x00\n        /* \"contracts/PriceConverter.sol\":324:355  AggregatorV3Interface priceFeed */\n      dup1\n        /* \"contracts/PriceConverter.sol\":380:422  0x8A753747A1Fa494EC906cE90E9f37563A8AF630e */\n      0x8a753747a1fa494ec906ce90e9f37563a8af630e\n        /* \"contracts/PriceConverter.sol\":324:423  AggregatorV3Interface priceFeed = AggregatorV3Interface(0x8A753747A1Fa494EC906cE90E9f37563A8AF630e) */\n      swap1\n      pop\n        /* \"contracts/PriceConverter.sol\":436:448  int256 price */\n      0x00\n        /* \"contracts/PriceConverter.sol\":455:464  priceFeed */\n      dup2\n        /* \"contracts/PriceConverter.sol\":455:480  priceFeed.latestRoundData */\n      0xffffffffffffffffffffffffffffffffffffffff\n      and\n      0xfeaf968c\n        /* \"contracts/PriceConverter.sol\":455:482  priceFeed.latestRoundData() */\n      mload(0x40)\n      dup2\n      0xffffffff\n      and\n      0xe0\n      shl\n      dup2\n      mstore\n      0x04\n      add\n      0xa0\n      mload(0x40)\n      dup1\n      dup4\n      sub\n      dup2\n      dup7\n      dup1\n      extcodesize\n      iszero\n      dup1\n      iszero\n      tag_76\n      jumpi\n      0x00\n      dup1\n      revert\n    tag_76:\n      pop\n      gas\n      staticcall\n      iszero\n      dup1\n      iszero\n      tag_78\n      jumpi\n      returndatasize\n      0x00\n      dup1\n      returndatacopy\n      revert(0x00, returndatasize)\n    tag_78:\n      pop\n      pop\n      pop\n      pop\n      mload(0x40)\n      returndatasize\n      not(0x1f)\n      0x1f\n      dup3\n      add\n      and\n      dup3\n      add\n      dup1\n      0x40\n      mstore\n      pop\n      dup2\n      add\n      swap1\n      tag_79\n      swap2\n      swap1\n      tag_80\n      jump\t// in\n    tag_79:\n        /* \"contracts/PriceConverter.sol\":434:482  (,int256 price,,,) = priceFeed.latestRoundData() */\n      pop\n      pop\n      pop\n      swap2\n      pop\n      pop\n        /* \"contracts/PriceConverter.sol\":574:578  1e10 */\n      0x02540be400\n        /* \"contracts/PriceConverter.sol\":566:571  price */\n      dup2\n        /* \"contracts/PriceConverter.sol\":566:578  price * 1e10 */\n      tag_81\n      swap2\n      swap1\n      tag_82\n      jump\t// in\n    tag_81:\n        /* \"contracts/PriceConverter.sol\":551:579  return uint256(price * 1e10) */\n      swap3\n      pop\n      pop\n      pop\n        /* \"contracts/PriceConverter.sol\":184:608  function getPrice() internal view returns(uint256){\r... */\n      swap1\n      jump\t// out\n    tag_50:\n      dup3\n      dup1\n      sload\n      dup3\n      dup3\n      sstore\n      swap1\n      0x00\n      mstore\n      keccak256(0x00, 0x20)\n      swap1\n      dup2\n      add\n      swap3\n      dup3\n      iszero\n      tag_83\n      jumpi\n      swap2\n      0x20\n      mul\n      dup3\n      add\n    tag_84:\n      dup3\n      dup2\n      gt\n      iszero\n      tag_85\n      jumpi\n      dup3\n      mload\n      dup3\n      exp(0x0100, 0x00)\n      dup2\n      sload\n      dup2\n      0xffffffffffffffffffffffffffffffffffffffff\n      mul\n      not\n      and\n      swap1\n      dup4\n      0xffffffffffffffffffffffffffffffffffffffff\n      and\n      mul\n      or\n      swap1\n      sstore\n      pop\n      swap2\n      0x20\n      add\n      swap2\n      swap1\n      0x01\n      add\n      swap1\n      jump(tag_84)\n    tag_85:\n    tag_83:\n      pop\n      swap1\n      pop\n      tag_86\n      swap2\n      swap1\n      tag_87\n      jump\t// in\n    tag_86:\n      pop\n      swap1\n      jump\t// out\n    tag_87:\n    tag_88:\n      dup1\n      dup3\n      gt\n      iszero\n      tag_89\n      jumpi\n      0x00\n      dup2\n      0x00\n      swap1\n      sstore\n      pop\n      0x01\n      add\n      jump(tag_88)\n    tag_89:\n      pop\n      swap1\n      jump\t// out\n        /* \"#utility.yul\":7:146   */\n    tag_91:\n      0x00\n        /* \"#utility.yul\":91:97   */\n      dup2\n        /* \"#utility.yul\":78:98   */\n      calldataload\n        /* \"#utility.yul\":69:98   */\n      swap1\n      pop\n        /* \"#utility.yul\":107:140   */\n      tag_93\n        /* \"#utility.yul\":134:139   */\n      dup2\n        /* \"#utility.yul\":107:140   */\n      tag_94\n      jump\t// in\n    tag_93:\n        /* \"#utility.yul\":59:146   */\n      swap3\n      swap2\n      pop\n      pop\n      jump\t// out\n        /* \"#utility.yul\":152:293   */\n    tag_95:\n      0x00\n        /* \"#utility.yul\":239:245   */\n      dup2\n        /* \"#utility.yul\":233:246   */\n      mload\n        /* \"#utility.yul\":224:246   */\n      swap1\n      pop\n        /* \"#utility.yul\":255:287   */\n      tag_97\n        /* \"#utility.yul\":281:286   */\n      dup2\n        /* \"#utility.yul\":255:287   */\n      tag_98\n      jump\t// in\n    tag_97:\n        /* \"#utility.yul\":214:293   */\n      swap3\n      swap2\n      pop\n      pop\n      jump\t// out\n        /* \"#utility.yul\":299:438   */\n    tag_99:\n      0x00\n        /* \"#utility.yul\":383:389   */\n      dup2\n        /* \"#utility.yul\":370:390   */\n      calldataload\n        /* \"#utility.yul\":361:390   */\n      swap1\n      pop\n        /* \"#utility.yul\":399:432   */\n      tag_101\n        /* \"#utility.yul\":426:431   */\n      dup2\n        /* \"#utility.yul\":399:432   */\n      tag_102\n      jump\t// in\n    tag_101:\n        /* \"#utility.yul\":351:438   */\n      swap3\n      swap2\n      pop\n      pop\n      jump\t// out\n        /* \"#utility.yul\":444:587   */\n    tag_103:\n      0x00\n        /* \"#utility.yul\":532:538   */\n      dup2\n        /* \"#utility.yul\":526:539   */\n      mload\n        /* \"#utility.yul\":517:539   */\n      swap1\n      pop\n        /* \"#utility.yul\":548:581   */\n      tag_105\n        /* \"#utility.yul\":575:580   */\n      dup2\n        /* \"#utility.yul\":548:581   */\n      tag_102\n      jump\t// in\n    tag_105:\n        /* \"#utility.yul\":507:587   */\n      swap3\n      swap2\n      pop\n      pop\n      jump\t// out\n        /* \"#utility.yul\":593:734   */\n    tag_106:\n      0x00\n        /* \"#utility.yul\":680:686   */\n      dup2\n        /* \"#utility.yul\":674:687   */\n      mload\n        /* \"#utility.yul\":665:687   */\n      swap1\n      pop\n        /* \"#utility.yul\":696:728   */\n      tag_108\n        /* \"#utility.yul\":722:727   */\n      dup2\n        /* \"#utility.yul\":696:728   */\n      tag_109\n      jump\t// in\n    tag_108:\n        /* \"#utility.yul\":655:734   */\n      swap3\n      swap2\n      pop\n      pop\n      jump\t// out\n        /* \"#utility.yul\":740:1002   */\n    tag_11:\n      0x00\n        /* \"#utility.yul\":848:850   */\n      0x20\n        /* \"#utility.yul\":836:845   */\n      dup3\n        /* \"#utility.yul\":827:834   */\n      dup5\n        /* \"#utility.yul\":823:846   */\n      sub\n        /* \"#utility.yul\":819:851   */\n      slt\n        /* \"#utility.yul\":816:818   */\n      iszero\n      tag_111\n      jumpi\n        /* \"#utility.yul\":864:865   */\n      0x00\n        /* \"#utility.yul\":861:862   */\n      dup1\n        /* \"#utility.yul\":854:866   */\n      revert\n        /* \"#utility.yul\":816:818   */\n    tag_111:\n        /* \"#utility.yul\":907:908   */\n      0x00\n        /* \"#utility.yul\":932:985   */\n      tag_112\n        /* \"#utility.yul\":977:984   */\n      dup5\n        /* \"#utility.yul\":968:974   */\n      dup3\n        /* \"#utility.yul\":957:966   */\n      dup6\n        /* \"#utility.yul\":953:975   */\n      add\n        /* \"#utility.yul\":932:985   */\n      tag_91\n      jump\t// in\n    tag_112:\n        /* \"#utility.yul\":922:985   */\n      swap2\n      pop\n        /* \"#utility.yul\":878:995   */\n      pop\n        /* \"#utility.yul\":806:1002   */\n      swap3\n      swap2\n      pop\n      pop\n      jump\t// out\n        /* \"#utility.yul\":1008:1270   */\n    tag_32:\n      0x00\n        /* \"#utility.yul\":1116:1118   */\n      0x20\n        /* \"#utility.yul\":1104:1113   */\n      dup3\n        /* \"#utility.yul\":1095:1102   */\n      dup5\n        /* \"#utility.yul\":1091:1114   */\n      sub\n        /* \"#utility.yul\":1087:1119   */\n      slt\n        /* \"#utility.yul\":1084:1086   */\n      iszero\n      tag_114\n      jumpi\n        /* \"#utility.yul\":1132:1133   */\n      0x00\n        /* \"#utility.yul\":1129:1130   */\n      dup1\n        /* \"#utility.yul\":1122:1134   */\n      revert\n        /* \"#utility.yul\":1084:1086   */\n    tag_114:\n        /* \"#utility.yul\":1175:1176   */\n      0x00\n        /* \"#utility.yul\":1200:1253   */\n      tag_115\n        /* \"#utility.yul\":1245:1252   */\n      dup5\n        /* \"#utility.yul\":1236:1242   */\n      dup3\n        /* \"#utility.yul\":1225:1234   */\n      dup6\n        /* \"#utility.yul\":1221:1243   */\n      add\n        /* \"#utility.yul\":1200:1253   */\n      tag_99\n      jump\t// in\n    tag_115:\n        /* \"#utility.yul\":1190:1253   */\n      swap2\n      pop\n        /* \"#utility.yul\":1146:1263   */\n      pop\n        /* \"#utility.yul\":1074:1270   */\n      swap3\n      swap2\n      pop\n      pop\n      jump\t// out\n        /* \"#utility.yul\":1276:2180   */\n    tag_80:\n      0x00\n      dup1\n      0x00\n      dup1\n      0x00\n        /* \"#utility.yul\":1460:1463   */\n      0xa0\n        /* \"#utility.yul\":1448:1457   */\n      dup7\n        /* \"#utility.yul\":1439:1446   */\n      dup9\n        /* \"#utility.yul\":1435:1458   */\n      sub\n        /* \"#utility.yul\":1431:1464   */\n      slt\n        /* \"#utility.yul\":1428:1430   */\n      iszero\n      tag_117\n      jumpi\n        /* \"#utility.yul\":1477:1478   */\n      0x00\n        /* \"#utility.yul\":1474:1475   */\n      dup1\n        /* \"#utility.yul\":1467:1479   */\n      revert\n        /* \"#utility.yul\":1428:1430   */\n    tag_117:\n        /* \"#utility.yul\":1520:1521   */\n      0x00\n        /* \"#utility.yul\":1545:1608   */\n      tag_118\n        /* \"#utility.yul\":1600:1607   */\n      dup9\n        /* \"#utility.yul\":1591:1597   */\n      dup3\n        /* \"#utility.yul\":1580:1589   */\n      dup10\n        /* \"#utility.yul\":1576:1598   */\n      add\n        /* \"#utility.yul\":1545:1608   */\n      tag_106\n      jump\t// in\n    tag_118:\n        /* \"#utility.yul\":1535:1608   */\n      swap6\n      pop\n        /* \"#utility.yul\":1491:1618   */\n      pop\n        /* \"#utility.yul\":1657:1659   */\n      0x20\n        /* \"#utility.yul\":1683:1746   */\n      tag_119\n        /* \"#utility.yul\":1738:1745   */\n      dup9\n        /* \"#utility.yul\":1729:1735   */\n      dup3\n        /* \"#utility.yul\":1718:1727   */\n      dup10\n        /* \"#utility.yul\":1714:1736   */\n      add\n        /* \"#utility.yul\":1683:1746   */\n      tag_95\n      jump\t// in\n    tag_119:\n        /* \"#utility.yul\":1673:1746   */\n      swap5\n      pop\n        /* \"#utility.yul\":1628:1756   */\n      pop\n        /* \"#utility.yul\":1795:1797   */\n      0x40\n        /* \"#utility.yul\":1821:1885   */\n      tag_120\n        /* \"#utility.yul\":1877:1884   */\n      dup9\n        /* \"#utility.yul\":1868:1874   */\n      dup3\n        /* \"#utility.yul\":1857:1866   */\n      dup10\n        /* \"#utility.yul\":1853:1875   */\n      add\n        /* \"#utility.yul\":1821:1885   */\n      tag_103\n      jump\t// in\n    tag_120:\n        /* \"#utility.yul\":1811:1885   */\n      swap4\n      pop\n        /* \"#utility.yul\":1766:1895   */\n      pop\n        /* \"#utility.yul\":1934:1936   */\n      0x60\n        /* \"#utility.yul\":1960:2024   */\n      tag_121\n        /* \"#utility.yul\":2016:2023   */\n      dup9\n        /* \"#utility.yul\":2007:2013   */\n      dup3\n        /* \"#utility.yul\":1996:2005   */\n      dup10\n        /* \"#utility.yul\":1992:2014   */\n      add\n        /* \"#utility.yul\":1960:2024   */\n      tag_103\n      jump\t// in\n    tag_121:\n        /* \"#utility.yul\":1950:2024   */\n      swap3\n      pop\n        /* \"#utility.yul\":1905:2034   */\n      pop\n        /* \"#utility.yul\":2073:2076   */\n      0x80\n        /* \"#utility.yul\":2100:2163   */\n      tag_122\n        /* \"#utility.yul\":2155:2162   */\n      dup9\n        /* \"#utility.yul\":2146:2152   */\n      dup3\n        /* \"#utility.yul\":2135:2144   */\n      dup10\n        /* \"#utility.yul\":2131:2153   */\n      add\n        /* \"#utility.yul\":2100:2163   */\n      tag_106\n      jump\t// in\n    tag_122:\n        /* \"#utility.yul\":2090:2163   */\n      swap2\n      pop\n        /* \"#utility.yul\":2044:2173   */\n      pop\n        /* \"#utility.yul\":1418:2180   */\n      swap3\n      swap6\n      pop\n      swap3\n      swap6\n      swap1\n      swap4\n      pop\n      jump\t// out\n        /* \"#utility.yul\":2186:2304   */\n    tag_123:\n        /* \"#utility.yul\":2273:2297   */\n      tag_125\n        /* \"#utility.yul\":2291:2296   */\n      dup2\n        /* \"#utility.yul\":2273:2297   */\n      tag_126\n      jump\t// in\n    tag_125:\n        /* \"#utility.yul\":2268:2271   */\n      dup3\n        /* \"#utility.yul\":2261:2298   */\n      mstore\n        /* \"#utility.yul\":2251:2304   */\n      pop\n      pop\n      jump\t// out\n        /* \"#utility.yul\":2310:2619   */\n    tag_127:\n      0x00\n        /* \"#utility.yul\":2473:2540   */\n      tag_129\n        /* \"#utility.yul\":2537:2539   */\n      0x0b\n        /* \"#utility.yul\":2532:2535   */\n      dup4\n        /* \"#utility.yul\":2473:2540   */\n      tag_130\n      jump\t// in\n    tag_129:\n        /* \"#utility.yul\":2466:2540   */\n      swap2\n      pop\n        /* \"#utility.yul\":2570:2583   */\n      0x43616c6c206661696c6564000000000000000000000000000000000000000000\n        /* \"#utility.yul\":2566:2567   */\n      0x00\n        /* \"#utility.yul\":2561:2564   */\n      dup4\n        /* \"#utility.yul\":2557:2568   */\n      add\n        /* \"#utility.yul\":2550:2584   */\n      mstore\n        /* \"#utility.yul\":2610:2612   */\n      0x20\n        /* \"#utility.yul\":2605:2608   */\n      dup3\n        /* \"#utility.yul\":2601:2613   */\n      add\n        /* \"#utility.yul\":2594:2613   */\n      swap1\n      pop\n        /* \"#utility.yul\":2456:2619   */\n      swap2\n      swap1\n      pop\n      jump\t// out\n        /* \"#utility.yul\":2625:2941   */\n    tag_131:\n      0x00\n        /* \"#utility.yul\":2788:2855   */\n      tag_133\n        /* \"#utility.yul\":2852:2854   */\n      0x12\n        /* \"#utility.yul\":2847:2850   */\n      dup4\n        /* \"#utility.yul\":2788:2855   */\n      tag_130\n      jump\t// in\n    tag_133:\n        /* \"#utility.yul\":2781:2855   */\n      swap2\n      pop\n        /* \"#utility.yul\":2885:2905   */\n      0x4469646e27742073656e6420656e6f7567680000000000000000000000000000\n        /* \"#utility.yul\":2881:2882   */\n      0x00\n        /* \"#utility.yul\":2876:2879   */\n      dup4\n        /* \"#utility.yul\":2872:2883   */\n      add\n        /* \"#utility.yul\":2865:2906   */\n      mstore\n        /* \"#utility.yul\":2932:2934   */\n      0x20\n        /* \"#utility.yul\":2927:2930   */\n      dup3\n        /* \"#utility.yul\":2923:2935   */\n      add\n        /* \"#utility.yul\":2916:2935   */\n      swap1\n      pop\n        /* \"#utility.yul\":2771:2941   */\n      swap2\n      swap1\n      pop\n      jump\t// out\n        /* \"#utility.yul\":2947:3264   */\n    tag_134:\n      0x00\n        /* \"#utility.yul\":3110:3177   */\n      tag_136\n        /* \"#utility.yul\":3174:3176   */\n      0x13\n        /* \"#utility.yul\":3169:3172   */\n      dup4\n        /* \"#utility.yul\":3110:3177   */\n      tag_130\n      jump\t// in\n    tag_136:\n        /* \"#utility.yul\":3103:3177   */\n      swap2\n      pop\n        /* \"#utility.yul\":3207:3228   */\n      0x53656e646572206973206e6f74206f776e657200000000000000000000000000\n        /* \"#utility.yul\":3203:3204   */\n      0x00\n        /* \"#utility.yul\":3198:3201   */\n      dup4\n        /* \"#utility.yul\":3194:3205   */\n      add\n        /* \"#utility.yul\":3187:3229   */\n      mstore\n        /* \"#utility.yul\":3255:3257   */\n      0x20\n        /* \"#utility.yul\":3250:3253   */\n      dup3\n        /* \"#utility.yul\":3246:3258   */\n      add\n        /* \"#utility.yul\":3239:3258   */\n      swap1\n      pop\n        /* \"#utility.yul\":3093:3264   */\n      swap2\n      swap1\n      pop\n      jump\t// out\n        /* \"#utility.yul\":3270:3567   */\n    tag_137:\n      0x00\n        /* \"#utility.yul\":3450:3533   */\n      tag_139\n        /* \"#utility.yul\":3531:3532   */\n      0x00\n        /* \"#utility.yul\":3526:3529   */\n      dup4\n        /* \"#utility.yul\":3450:3533   */\n      tag_140\n      jump\t// in\n    tag_139:\n        /* \"#utility.yul\":3443:3533   */\n      swap2\n      pop\n        /* \"#utility.yul\":3559:3560   */\n      0x00\n        /* \"#utility.yul\":3554:3557   */\n      dup3\n        /* \"#utility.yul\":3550:3561   */\n      add\n        /* \"#utility.yul\":3543:3561   */\n      swap1\n      pop\n        /* \"#utility.yul\":3433:3567   */\n      swap2\n      swap1\n      pop\n      jump\t// out\n        /* \"#utility.yul\":3573:3691   */\n    tag_141:\n        /* \"#utility.yul\":3660:3684   */\n      tag_143\n        /* \"#utility.yul\":3678:3683   */\n      dup2\n        /* \"#utility.yul\":3660:3684   */\n      tag_144\n      jump\t// in\n    tag_143:\n        /* \"#utility.yul\":3655:3658   */\n      dup3\n        /* \"#utility.yul\":3648:3685   */\n      mstore\n        /* \"#utility.yul\":3638:3691   */\n      pop\n      pop\n      jump\t// out\n        /* \"#utility.yul\":3697:4076   */\n    tag_52:\n      0x00\n        /* \"#utility.yul\":3903:4050   */\n      tag_146\n        /* \"#utility.yul\":4046:4049   */\n      dup3\n        /* \"#utility.yul\":3903:4050   */\n      tag_137\n      jump\t// in\n    tag_146:\n        /* \"#utility.yul\":3896:4050   */\n      swap2\n      pop\n        /* \"#utility.yul\":4067:4070   */\n      dup2\n        /* \"#utility.yul\":4060:4070   */\n      swap1\n      pop\n        /* \"#utility.yul\":3885:4076   */\n      swap2\n      swap1\n      pop\n      jump\t// out\n        /* \"#utility.yul\":4082:4304   */\n    tag_26:\n      0x00\n        /* \"#utility.yul\":4213:4215   */\n      0x20\n        /* \"#utility.yul\":4202:4211   */\n      dup3\n        /* \"#utility.yul\":4198:4216   */\n      add\n        /* \"#utility.yul\":4190:4216   */\n      swap1\n      pop\n        /* \"#utility.yul\":4226:4297   */\n      tag_148\n        /* \"#utility.yul\":4294:4295   */\n      0x00\n        /* \"#utility.yul\":4283:4292   */\n      dup4\n        /* \"#utility.yul\":4279:4296   */\n      add\n        /* \"#utility.yul\":4270:4276   */\n      dup5\n        /* \"#utility.yul\":4226:4297   */\n      tag_123\n      jump\t// in\n    tag_148:\n        /* \"#utility.yul\":4180:4304   */\n      swap3\n      swap2\n      pop\n      pop\n      jump\t// out\n        /* \"#utility.yul\":4310:4729   */\n    tag_58:\n      0x00\n        /* \"#utility.yul\":4514:4516   */\n      0x20\n        /* \"#utility.yul\":4503:4512   */\n      dup3\n        /* \"#utility.yul\":4499:4517   */\n      add\n        /* \"#utility.yul\":4491:4517   */\n      swap1\n      pop\n        /* \"#utility.yul\":4563:4572   */\n      dup2\n        /* \"#utility.yul\":4557:4561   */\n      dup2\n        /* \"#utility.yul\":4553:4573   */\n      sub\n        /* \"#utility.yul\":4549:4550   */\n      0x00\n        /* \"#utility.yul\":4538:4547   */\n      dup4\n        /* \"#utility.yul\":4534:4551   */\n      add\n        /* \"#utility.yul\":4527:4574   */\n      mstore\n        /* \"#utility.yul\":4591:4722   */\n      tag_150\n        /* \"#utility.yul\":4717:4721   */\n      dup2\n        /* \"#utility.yul\":4591:4722   */\n      tag_127\n      jump\t// in\n    tag_150:\n        /* \"#utility.yul\":4583:4722   */\n      swap1\n      pop\n        /* \"#utility.yul\":4481:4729   */\n      swap2\n      swap1\n      pop\n      jump\t// out\n        /* \"#utility.yul\":4735:5154   */\n    tag_64:\n      0x00\n        /* \"#utility.yul\":4939:4941   */\n      0x20\n        /* \"#utility.yul\":4928:4937   */\n      dup3\n        /* \"#utility.yul\":4924:4942   */\n      add\n        /* \"#utility.yul\":4916:4942   */\n      swap1\n      pop\n        /* \"#utility.yul\":4988:4997   */\n      dup2\n        /* \"#utility.yul\":4982:4986   */\n      dup2\n        /* \"#utility.yul\":4978:4998   */\n      sub\n        /* \"#utility.yul\":4974:4975   */\n      0x00\n        /* \"#utility.yul\":4963:4972   */\n      dup4\n        /* \"#utility.yul\":4959:4976   */\n      add\n        /* \"#utility.yul\":4952:4999   */\n      mstore\n        /* \"#utility.yul\":5016:5147   */\n      tag_152\n        /* \"#utility.yul\":5142:5146   */\n      dup2\n        /* \"#utility.yul\":5016:5147   */\n      tag_131\n      jump\t// in\n    tag_152:\n        /* \"#utility.yul\":5008:5147   */\n      swap1\n      pop\n        /* \"#utility.yul\":4906:5154   */\n      swap2\n      swap1\n      pop\n      jump\t// out\n        /* \"#utility.yul\":5160:5579   */\n    tag_38:\n      0x00\n        /* \"#utility.yul\":5364:5366   */\n      0x20\n        /* \"#utility.yul\":5353:5362   */\n      dup3\n        /* \"#utility.yul\":5349:5367   */\n      add\n        /* \"#utility.yul\":5341:5367   */\n      swap1\n      pop\n        /* \"#utility.yul\":5413:5422   */\n      dup2\n        /* \"#utility.yul\":5407:5411   */\n      dup2\n        /* \"#utility.yul\":5403:5423   */\n      sub\n        /* \"#utility.yul\":5399:5400   */\n      0x00\n        /* \"#utility.yul\":5388:5397   */\n      dup4\n        /* \"#utility.yul\":5384:5401   */\n      add\n        /* \"#utility.yul\":5377:5424   */\n      mstore\n        /* \"#utility.yul\":5441:5572   */\n      tag_154\n        /* \"#utility.yul\":5567:5571   */\n      dup2\n        /* \"#utility.yul\":5441:5572   */\n      tag_134\n      jump\t// in\n    tag_154:\n        /* \"#utility.yul\":5433:5572   */\n      swap1\n      pop\n        /* \"#utility.yul\":5331:5579   */\n      swap2\n      swap1\n      pop\n      jump\t// out\n        /* \"#utility.yul\":5585:5807   */\n    tag_14:\n      0x00\n        /* \"#utility.yul\":5716:5718   */\n      0x20\n        /* \"#utility.yul\":5705:5714   */\n      dup3\n        /* \"#utility.yul\":5701:5719   */\n      add\n        /* \"#utility.yul\":5693:5719   */\n      swap1\n      pop\n        /* \"#utility.yul\":5729:5800   */\n      tag_156\n        /* \"#utility.yul\":5797:5798   */\n      0x00\n        /* \"#utility.yul\":5786:5795   */\n      dup4\n        /* \"#utility.yul\":5782:5799   */\n      add\n        /* \"#utility.yul\":5773:5779   */\n      dup5\n        /* \"#utility.yul\":5729:5800   */\n      tag_141\n      jump\t// in\n    tag_156:\n        /* \"#utility.yul\":5683:5807   */\n      swap3\n      swap2\n      pop\n      pop\n      jump\t// out\n        /* \"#utility.yul\":5813:5960   */\n    tag_140:\n      0x00\n        /* \"#utility.yul\":5951:5954   */\n      dup2\n        /* \"#utility.yul\":5936:5954   */\n      swap1\n      pop\n        /* \"#utility.yul\":5926:5960   */\n      swap3\n      swap2\n      pop\n      pop\n      jump\t// out\n        /* \"#utility.yul\":5966:6135   */\n    tag_130:\n      0x00\n        /* \"#utility.yul\":6084:6090   */\n      dup3\n        /* \"#utility.yul\":6079:6082   */\n      dup3\n        /* \"#utility.yul\":6072:6091   */\n      mstore\n        /* \"#utility.yul\":6124:6128   */\n      0x20\n        /* \"#utility.yul\":6119:6122   */\n      dup3\n        /* \"#utility.yul\":6115:6129   */\n      add\n        /* \"#utility.yul\":6100:6129   */\n      swap1\n      pop\n        /* \"#utility.yul\":6062:6135   */\n      swap3\n      swap2\n      pop\n      pop\n      jump\t// out\n        /* \"#utility.yul\":6141:6326   */\n    tag_74:\n      0x00\n        /* \"#utility.yul\":6198:6218   */\n      tag_160\n        /* \"#utility.yul\":6216:6217   */\n      dup3\n        /* \"#utility.yul\":6198:6218   */\n      tag_144\n      jump\t// in\n    tag_160:\n        /* \"#utility.yul\":6193:6218   */\n      swap2\n      pop\n        /* \"#utility.yul\":6232:6252   */\n      tag_161\n        /* \"#utility.yul\":6250:6251   */\n      dup4\n        /* \"#utility.yul\":6232:6252   */\n      tag_144\n      jump\t// in\n    tag_161:\n        /* \"#utility.yul\":6227:6252   */\n      swap3\n      pop\n        /* \"#utility.yul\":6271:6272   */\n      dup3\n        /* \"#utility.yul\":6261:6263   */\n      tag_162\n      jumpi\n        /* \"#utility.yul\":6276:6294   */\n      tag_163\n      tag_164\n      jump\t// in\n    tag_163:\n        /* \"#utility.yul\":6261:6263   */\n    tag_162:\n        /* \"#utility.yul\":6318:6319   */\n      dup3\n        /* \"#utility.yul\":6315:6316   */\n      dup3\n        /* \"#utility.yul\":6311:6320   */\n      div\n        /* \"#utility.yul\":6306:6320   */\n      swap1\n      pop\n        /* \"#utility.yul\":6183:6326   */\n      swap3\n      swap2\n      pop\n      pop\n      jump\t// out\n        /* \"#utility.yul\":6332:7323   */\n    tag_82:\n      0x00\n        /* \"#utility.yul\":6394:6413   */\n      tag_166\n        /* \"#utility.yul\":6411:6412   */\n      dup3\n        /* \"#utility.yul\":6394:6413   */\n      tag_167\n      jump\t// in\n    tag_166:\n        /* \"#utility.yul\":6389:6413   */\n      swap2\n      pop\n        /* \"#utility.yul\":6427:6446   */\n      tag_168\n        /* \"#utility.yul\":6444:6445   */\n      dup4\n        /* \"#utility.yul\":6427:6446   */\n      tag_167\n      jump\t// in\n    tag_168:\n        /* \"#utility.yul\":6422:6446   */\n      swap3\n      pop\n        /* \"#utility.yul\":6628:6629   */\n      dup3\n        /* \"#utility.yul\":6560:6626   */\n      0x7fffffffffffffffffffffffffffffffffffffffffffffffffffffffffffffff\n        /* \"#utility.yul\":6556:6630   */\n      div\n        /* \"#utility.yul\":6553:6554   */\n      dup3\n        /* \"#utility.yul\":6550:6631   */\n      gt\n        /* \"#utility.yul\":6545:6546   */\n      0x00\n        /* \"#utility.yul\":6542:6543   */\n      dup5\n        /* \"#utility.yul\":6538:6547   */\n      sgt\n        /* \"#utility.yul\":6534:6535   */\n      0x00\n        /* \"#utility.yul\":6531:6532   */\n      dup5\n        /* \"#utility.yul\":6527:6536   */\n      sgt\n        /* \"#utility.yul\":6523:6548   */\n      and\n        /* \"#utility.yul\":6519:6632   */\n      and\n        /* \"#utility.yul\":6516:6518   */\n      iszero\n      tag_169\n      jumpi\n        /* \"#utility.yul\":6635:6653   */\n      tag_170\n      tag_171\n      jump\t// in\n    tag_170:\n        /* \"#utility.yul\":6516:6518   */\n    tag_169:\n        /* \"#utility.yul\":6839:6840   */\n      dup2\n        /* \"#utility.yul\":6771:6837   */\n      0x8000000000000000000000000000000000000000000000000000000000000000\n        /* \"#utility.yul\":6766:6841   */\n      sdiv\n        /* \"#utility.yul\":6763:6764   */\n      dup4\n        /* \"#utility.yul\":6759:6842   */\n      slt\n        /* \"#utility.yul\":6754:6755   */\n      0x00\n        /* \"#utility.yul\":6751:6752   */\n      dup5\n        /* \"#utility.yul\":6747:6756   */\n      slt\n        /* \"#utility.yul\":6743:6744   */\n      0x00\n        /* \"#utility.yul\":6740:6741   */\n      dup5\n        /* \"#utility.yul\":6736:6745   */\n      sgt\n        /* \"#utility.yul\":6732:6757   */\n      and\n        /* \"#utility.yul\":6728:6843   */\n      and\n        /* \"#utility.yul\":6725:6727   */\n      iszero\n      tag_172\n      jumpi\n        /* \"#utility.yul\":6846:6864   */\n      tag_173\n      tag_171\n      jump\t// in\n    tag_173:\n        /* \"#utility.yul\":6725:6727   */\n    tag_172:\n        /* \"#utility.yul\":7050:7051   */\n      dup3\n        /* \"#utility.yul\":6982:7048   */\n      0x8000000000000000000000000000000000000000000000000000000000000000\n        /* \"#utility.yul\":6977:7052   */\n      sdiv\n        /* \"#utility.yul\":6974:6975   */\n      dup3\n        /* \"#utility.yul\":6970:7053   */\n      slt\n        /* \"#utility.yul\":6965:6966   */\n      0x00\n        /* \"#utility.yul\":6962:6963   */\n      dup5\n        /* \"#utility.yul\":6958:6967   */\n      sgt\n        /* \"#utility.yul\":6954:6955   */\n      0x00\n        /* \"#utility.yul\":6951:6952   */\n      dup5\n        /* \"#utility.yul\":6947:6956   */\n      slt\n        /* \"#utility.yul\":6943:6968   */\n      and\n        /* \"#utility.yul\":6939:7054   */\n      and\n        /* \"#utility.yul\":6936:6938   */\n      iszero\n      tag_174\n      jumpi\n        /* \"#utility.yul\":7057:7075   */\n      tag_175\n      tag_171\n      jump\t// in\n    tag_175:\n        /* \"#utility.yul\":6936:6938   */\n    tag_174:\n        /* \"#utility.yul\":7260:7261   */\n      dup3\n        /* \"#utility.yul\":7192:7258   */\n      0x7fffffffffffffffffffffffffffffffffffffffffffffffffffffffffffffff\n        /* \"#utility.yul\":7187:7262   */\n      sdiv\n        /* \"#utility.yul\":7184:7185   */\n      dup3\n        /* \"#utility.yul\":7180:7263   */\n      slt\n        /* \"#utility.yul\":7175:7176   */\n      0x00\n        /* \"#utility.yul\":7172:7173   */\n      dup5\n        /* \"#utility.yul\":7168:7177   */\n      slt\n        /* \"#utility.yul\":7164:7165   */\n      0x00\n        /* \"#utility.yul\":7161:7162   */\n      dup5\n        /* \"#utility.yul\":7157:7166   */\n      slt\n        /* \"#utility.yul\":7153:7178   */\n      and\n        /* \"#utility.yul\":7149:7264   */\n      and\n        /* \"#utility.yul\":7146:7148   */\n      iszero\n      tag_176\n      jumpi\n        /* \"#utility.yul\":7267:7285   */\n      tag_177\n      tag_171\n      jump\t// in\n    tag_177:\n        /* \"#utility.yul\":7146:7148   */\n    tag_176:\n        /* \"#utility.yul\":7315:7316   */\n      dup3\n        /* \"#utility.yul\":7312:7313   */\n      dup3\n        /* \"#utility.yul\":7308:7317   */\n      mul\n        /* \"#utility.yul\":7297:7317   */\n      swap1\n      pop\n        /* \"#utility.yul\":6379:7323   */\n      swap3\n      swap2\n      pop\n      pop\n      jump\t// out\n        /* \"#utility.yul\":7329:7677   */\n    tag_72:\n      0x00\n        /* \"#utility.yul\":7392:7412   */\n      tag_179\n        /* \"#utility.yul\":7410:7411   */\n      dup3\n        /* \"#utility.yul\":7392:7412   */\n      tag_144\n      jump\t// in\n    tag_179:\n        /* \"#utility.yul\":7387:7412   */\n      swap2\n      pop\n        /* \"#utility.yul\":7426:7446   */\n      tag_180\n        /* \"#utility.yul\":7444:7445   */\n      dup4\n        /* \"#utility.yul\":7426:7446   */\n      tag_144\n      jump\t// in\n    tag_180:\n        /* \"#utility.yul\":7421:7446   */\n      swap3\n      pop\n        /* \"#utility.yul\":7614:7615   */\n      dup2\n        /* \"#utility.yul\":7546:7612   */\n      0xffffffffffffffffffffffffffffffffffffffffffffffffffffffffffffffff\n        /* \"#utility.yul\":7542:7616   */\n      div\n        /* \"#utility.yul\":7539:7540   */\n      dup4\n        /* \"#utility.yul\":7536:7617   */\n      gt\n        /* \"#utility.yul\":7531:7532   */\n      dup3\n        /* \"#utility.yul\":7524:7533   */\n      iszero\n        /* \"#utility.yul\":7517:7534   */\n      iszero\n        /* \"#utility.yul\":7513:7618   */\n      and\n        /* \"#utility.yul\":7510:7512   */\n      iszero\n      tag_181\n      jumpi\n        /* \"#utility.yul\":7621:7639   */\n      tag_182\n      tag_171\n      jump\t// in\n    tag_182:\n        /* \"#utility.yul\":7510:7512   */\n    tag_181:\n        /* \"#utility.yul\":7669:7670   */\n      dup3\n        /* \"#utility.yul\":7666:7667   */\n      dup3\n        /* \"#utility.yul\":7662:7671   */\n      mul\n        /* \"#utility.yul\":7651:7671   */\n      swap1\n      pop\n        /* \"#utility.yul\":7377:7677   */\n      swap3\n      swap2\n      pop\n      pop\n      jump\t// out\n        /* \"#utility.yul\":7683:7779   */\n    tag_126:\n      0x00\n        /* \"#utility.yul\":7749:7773   */\n      tag_184\n        /* \"#utility.yul\":7767:7772   */\n      dup3\n        /* \"#utility.yul\":7749:7773   */\n      tag_185\n      jump\t// in\n    tag_184:\n        /* \"#utility.yul\":7738:7773   */\n      swap1\n      pop\n        /* \"#utility.yul\":7728:7779   */\n      swap2\n      swap1\n      pop\n      jump\t// out\n        /* \"#utility.yul\":7785:7861   */\n    tag_167:\n      0x00\n        /* \"#utility.yul\":7850:7855   */\n      dup2\n        /* \"#utility.yul\":7839:7855   */\n      swap1\n      pop\n        /* \"#utility.yul\":7829:7861   */\n      swap2\n      swap1\n      pop\n      jump\t// out\n        /* \"#utility.yul\":7867:7993   */\n    tag_185:\n      0x00\n        /* \"#utility.yul\":7944:7986   */\n      0xffffffffffffffffffffffffffffffffffffffff\n        /* \"#utility.yul\":7937:7942   */\n      dup3\n        /* \"#utility.yul\":7933:7987   */\n      and\n        /* \"#utility.yul\":7922:7987   */\n      swap1\n      pop\n        /* \"#utility.yul\":7912:7993   */\n      swap2\n      swap1\n      pop\n      jump\t// out\n        /* \"#utility.yul\":7999:8076   */\n    tag_144:\n      0x00\n        /* \"#utility.yul\":8065:8070   */\n      dup2\n        /* \"#utility.yul\":8054:8070   */\n      swap1\n      pop\n        /* \"#utility.yul\":8044:8076   */\n      swap2\n      swap1\n      pop\n      jump\t// out\n        /* \"#utility.yul\":8082:8187   */\n    tag_189:\n      0x00\n        /* \"#utility.yul\":8158:8180   */\n      0xffffffffffffffffffff\n        /* \"#utility.yul\":8151:8156   */\n      dup3\n        /* \"#utility.yul\":8147:8181   */\n      and\n        /* \"#utility.yul\":8136:8181   */\n      swap1\n      pop\n        /* \"#utility.yul\":8126:8187   */\n      swap2\n      swap1\n      pop\n      jump\t// out\n        /* \"#utility.yul\":8193:8426   */\n    tag_46:\n      0x00\n        /* \"#utility.yul\":8255:8279   */\n      tag_192\n        /* \"#utility.yul\":8273:8278   */\n      dup3\n        /* \"#utility.yul\":8255:8279   */\n      tag_144\n      jump\t// in\n    tag_192:\n        /* \"#utility.yul\":8246:8279   */\n      swap2\n      pop\n        /* \"#utility.yul\":8301:8367   */\n      0xffffffffffffffffffffffffffffffffffffffffffffffffffffffffffffffff\n        /* \"#utility.yul\":8294:8299   */\n      dup3\n        /* \"#utility.yul\":8291:8368   */\n      eq\n        /* \"#utility.yul\":8288:8290   */\n      iszero\n      tag_193\n      jumpi\n        /* \"#utility.yul\":8371:8389   */\n      tag_194\n      tag_171\n      jump\t// in\n    tag_194:\n        /* \"#utility.yul\":8288:8290   */\n    tag_193:\n        /* \"#utility.yul\":8418:8419   */\n      0x01\n        /* \"#utility.yul\":8411:8416   */\n      dup3\n        /* \"#utility.yul\":8407:8420   */\n      add\n        /* \"#utility.yul\":8400:8420   */\n      swap1\n      pop\n        /* \"#utility.yul\":8236:8426   */\n      swap2\n      swap1\n      pop\n      jump\t// out\n        /* \"#utility.yul\":8432:8612   */\n    tag_171:\n        /* \"#utility.yul\":8480:8557   */\n      0x4e487b7100000000000000000000000000000000000000000000000000000000\n        /* \"#utility.yul\":8477:8478   */\n      0x00\n        /* \"#utility.yul\":8470:8558   */\n      mstore\n        /* \"#utility.yul\":8577:8581   */\n      0x11\n        /* \"#utility.yul\":8574:8575   */\n      0x04\n        /* \"#utility.yul\":8567:8582   */\n      mstore\n        /* \"#utility.yul\":8601:8605   */\n      0x24\n        /* \"#utility.yul\":8598:8599   */\n      0x00\n        /* \"#utility.yul\":8591:8606   */\n      revert\n        /* \"#utility.yul\":8618:8798   */\n    tag_164:\n        /* \"#utility.yul\":8666:8743   */\n      0x4e487b7100000000000000000000000000000000000000000000000000000000\n        /* \"#utility.yul\":8663:8664   */\n      0x00\n        /* \"#utility.yul\":8656:8744   */\n      mstore\n        /* \"#utility.yul\":8763:8767   */\n      0x12\n        /* \"#utility.yul\":8760:8761   */\n      0x04\n        /* \"#utility.yul\":8753:8768   */\n      mstore\n        /* \"#utility.yul\":8787:8791   */\n      0x24\n        /* \"#utility.yul\":8784:8785   */\n      0x00\n        /* \"#utility.yul\":8777:8792   */\n      revert\n        /* \"#utility.yul\":8804:8926   */\n    tag_94:\n        /* \"#utility.yul\":8877:8901   */\n      tag_198\n        /* \"#utility.yul\":8895:8900   */\n      dup2\n        /* \"#utility.yul\":8877:8901   */\n      tag_126\n      jump\t// in\n    tag_198:\n        /* \"#utility.yul\":8870:8875   */\n      dup2\n        /* \"#utility.yul\":8867:8902   */\n      eq\n        /* \"#utility.yul\":8857:8859   */\n      tag_199\n      jumpi\n        /* \"#utility.yul\":8916:8917   */\n      0x00\n        /* \"#utility.yul\":8913:8914   */\n      dup1\n        /* \"#utility.yul\":8906:8918   */\n      revert\n        /* \"#utility.yul\":8857:8859   */\n    tag_199:\n        /* \"#utility.yul\":8847:8926   */\n      pop\n      jump\t// out\n        /* \"#utility.yul\":8932:9052   */\n    tag_98:\n        /* \"#utility.yul\":9004:9027   */\n      tag_201\n        /* \"#utility.yul\":9021:9026   */\n      dup2\n        /* \"#utility.yul\":9004:9027   */\n      tag_167\n      jump\t// in\n    tag_201:\n        /* \"#utility.yul\":8997:9002   */\n      dup2\n        /* \"#utility.yul\":8994:9028   */\n      eq\n        /* \"#utility.yul\":8984:8986   */\n      tag_202\n      jumpi\n        /* \"#utility.yul\":9042:9043   */\n      0x00\n        /* \"#utility.yul\":9039:9040   */\n      dup1\n        /* \"#utility.yul\":9032:9044   */\n      revert\n        /* \"#utility.yul\":8984:8986   */\n    tag_202:\n        /* \"#utility.yul\":8974:9052   */\n      pop\n      jump\t// out\n        /* \"#utility.yul\":9058:9180   */\n    tag_102:\n        /* \"#utility.yul\":9131:9155   */\n      tag_204\n        /* \"#utility.yul\":9149:9154   */\n      dup2\n        /* \"#utility.yul\":9131:9155   */\n      tag_144\n      jump\t// in\n    tag_204:\n        /* \"#utility.yul\":9124:9129   */\n      dup2\n        /* \"#utility.yul\":9121:9156   */\n      eq\n        /* \"#utility.yul\":9111:9113   */\n      tag_205\n      jumpi\n        /* \"#utility.yul\":9170:9171   */\n      0x00\n        /* \"#utility.yul\":9167:9168   */\n      dup1\n        /* \"#utility.yul\":9160:9172   */\n      revert\n        /* \"#utility.yul\":9111:9113   */\n    tag_205:\n        /* \"#utility.yul\":9101:9180   */\n      pop\n      jump\t// out\n        /* \"#utility.yul\":9186:9306   */\n    tag_109:\n        /* \"#utility.yul\":9258:9281   */\n      tag_207\n        /* \"#utility.yul\":9275:9280   */\n      dup2\n        /* \"#utility.yul\":9258:9281   */\n      tag_189\n      jump\t// in\n    tag_207:\n        /* \"#utility.yul\":9251:9256   */\n      dup2\n        /* \"#utility.yul\":9248:9282   */\n      eq\n        /* \"#utility.yul\":9238:9240   */\n      tag_208\n      jumpi\n        /* \"#utility.yul\":9296:9297   */\n      0x00\n        /* \"#utility.yul\":9293:9294   */\n      dup1\n        /* \"#utility.yul\":9286:9298   */\n      revert\n        /* \"#utility.yul\":9238:9240   */\n    tag_208:\n        /* \"#utility.yul\":9228:9306   */\n      pop\n      jump\t// out\n\n    auxdata: 0xa2646970667358221220d1e83a16de515f49b740f83eb8152c6f3cba31942f8a4303e300fd37956c8f1564736f6c63430008000033\n}\n",
				"bytecode": {
					"linkReferences": {},
					"object": "60806040526802b5e3af16b188000060005534801561001d57600080fd5b5033600360006101000a81548173ffffffffffffffffffffffffffffffffffffffff021916908373ffffffffffffffffffffffffffffffffffffffff160217905550610d1c8061006e6000396000f3fe6080604052600436106100555760003560e01c80632e7154291461005a5780633ccfd60b1461009757806351b80e41146100ae5780638da5cb5b146100d9578063b60d428814610104578063dc0d3dff1461010e575b600080fd5b34801561006657600080fd5b50610081600480360381019061007c919061075d565b61014b565b60405161008e91906109ae565b60405180910390f35b3480156100a357600080fd5b506100ac610163565b005b3480156100ba57600080fd5b506100c36103fa565b6040516100d091906109ae565b60405180910390f35b3480156100e557600080fd5b506100ee610400565b6040516100fb9190610933565b60405180910390f35b61010c610426565b005b34801561011a57600080fd5b5061013560048036038101906101309190610786565b61051c565b6040516101429190610933565b60405180910390f35b60026020528060005260406000206000915090505481565b600360009054906101000a900473ffffffffffffffffffffffffffffffffffffffff1673ffffffffffffffffffffffffffffffffffffffff163373ffffffffffffffffffffffffffffffffffffffff16146101f3576040517f08c379a00000000000000000000000000000000000000000000000000000000081526004016101ea9061098e565b60405180910390fd5b60005b60018054905081116102c45760006001828154811061023e577f4e487b7100000000000000000000000000000000000000000000000000000000600052603260045260246000fd5b9060005260206000200160009054906101000a900473ffffffffffffffffffffffffffffffffffffffff1690506000600260008373ffffffffffffffffffffffffffffffffffffffff1673ffffffffffffffffffffffffffffffffffffffff168152602001908152602001600020819055505080806102bc90610be3565b9150506101f6565b50600067ffffffffffffffff811115610306577f4e487b7100000000000000000000000000000000000000000000000000000000600052604160045260246000fd5b6040519080825280602002602001820160405280156103345781602001602082028036833780820191505090505b506001908051906020019061034a92919061064d565b5060003373ffffffffffffffffffffffffffffffffffffffff16476040516103719061091e565b60006040518083038185875af1925050503d80600081146103ae576040519150601f19603f3d011682016040523d82523d6000602084013e6103b3565b606091505b50509050806103f7576040517f08c379a00000000000000000000000000000000000000000000000000000000081526004016103ee9061094e565b60405180910390fd5b50565b60005481565b600360009054906101000a900473ffffffffffffffffffffffffffffffffffffffff1681565b6000546104323461055b565b1015610473576040517f08c379a000000000000000000000000000000000000000000000000000000000815260040161046a9061096e565b60405180910390fd5b6001339080600181540180825580915050600190039060005260206000200160009091909190916101000a81548173ffffffffffffffffffffffffffffffffffffffff021916908373ffffffffffffffffffffffffffffffffffffffff16021790555034600260003373ffffffffffffffffffffffffffffffffffffffff1673ffffffffffffffffffffffffffffffffffffffff16815260200190815260200160002081905550565b6001818154811061052c57600080fd5b906000526020600020016000915054906101000a900473ffffffffffffffffffffffffffffffffffffffff1681565b600080610566610595565b90506000670de0b6b3a7640000848361057f9190610b2d565b61058991906109e5565b90508092505050919050565b600080738a753747a1fa494ec906ce90e9f37563a8af630e905060008173ffffffffffffffffffffffffffffffffffffffff1663feaf968c6040518163ffffffff1660e01b815260040160a06040518083038186803b1580156105f757600080fd5b505afa15801561060b573d6000803e3d6000fd5b505050506040513d601f19601f8201168201806040525081019061062f91906107af565b5050509150506402540be400816106469190610a16565b9250505090565b8280548282559060005260206000209081019282156106c6579160200282015b828111156106c55782518260006101000a81548173ffffffffffffffffffffffffffffffffffffffff021916908373ffffffffffffffffffffffffffffffffffffffff1602179055509160200191906001019061066d565b5b5090506106d391906106d7565b5090565b5b808211156106f05760008160009055506001016106d8565b5090565b60008135905061070381610c8a565b92915050565b60008151905061071881610ca1565b92915050565b60008135905061072d81610cb8565b92915050565b60008151905061074281610cb8565b92915050565b60008151905061075781610ccf565b92915050565b60006020828403121561076f57600080fd5b600061077d848285016106f4565b91505092915050565b60006020828403121561079857600080fd5b60006107a68482850161071e565b91505092915050565b600080600080600060a086880312156107c757600080fd5b60006107d588828901610748565b95505060206107e688828901610709565b94505060406107f788828901610733565b935050606061080888828901610733565b925050608061081988828901610748565b9150509295509295909350565b61082f81610b87565b82525050565b6000610842600b836109d4565b91507f43616c6c206661696c65640000000000000000000000000000000000000000006000830152602082019050919050565b60006108826012836109d4565b91507f4469646e27742073656e6420656e6f75676800000000000000000000000000006000830152602082019050919050565b60006108c26013836109d4565b91507f53656e646572206973206e6f74206f776e6572000000000000000000000000006000830152602082019050919050565b60006109026000836109c9565b9150600082019050919050565b61091881610bc3565b82525050565b6000610929826108f5565b9150819050919050565b60006020820190506109486000830184610826565b92915050565b6000602082019050818103600083015261096781610835565b9050919050565b6000602082019050818103600083015261098781610875565b9050919050565b600060208201905081810360008301526109a7816108b5565b9050919050565b60006020820190506109c3600083018461090f565b92915050565b600081905092915050565b600082825260208201905092915050565b60006109f082610bc3565b91506109fb83610bc3565b925082610a0b57610a0a610c5b565b5b828204905092915050565b6000610a2182610b99565b9150610a2c83610b99565b9250827f7fffffffffffffffffffffffffffffffffffffffffffffffffffffffffffffff0482116000841360008413161615610a6b57610a6a610c2c565b5b817f80000000000000000000000000000000000000000000000000000000000000000583126000841260008413161615610aa857610aa7610c2c565b5b827f80000000000000000000000000000000000000000000000000000000000000000582126000841360008412161615610ae557610ae4610c2c565b5b827f7fffffffffffffffffffffffffffffffffffffffffffffffffffffffffffffff0582126000841260008412161615610b2257610b21610c2c565b5b828202905092915050565b6000610b3882610bc3565b9150610b4383610bc3565b9250817fffffffffffffffffffffffffffffffffffffffffffffffffffffffffffffffff0483118215151615610b7c57610b7b610c2c565b5b828202905092915050565b6000610b9282610ba3565b9050919050565b6000819050919050565b600073ffffffffffffffffffffffffffffffffffffffff82169050919050565b6000819050919050565b600069ffffffffffffffffffff82169050919050565b6000610bee82610bc3565b91507fffffffffffffffffffffffffffffffffffffffffffffffffffffffffffffffff821415610c2157610c20610c2c565b5b600182019050919050565b7f4e487b7100000000000000000000000000000000000000000000000000000000600052601160045260246000fd5b7f4e487b7100000000000000000000000000000000000000000000000000000000600052601260045260246000fd5b610c9381610b87565b8114610c9e57600080fd5b50565b610caa81610b99565b8114610cb557600080fd5b50565b610cc181610bc3565b8114610ccc57600080fd5b50565b610cd881610bcd565b8114610ce357600080fd5b5056fea2646970667358221220d1e83a16de515f49b740f83eb8152c6f3cba31942f8a4303e300fd37956c8f1564736f6c63430008000033",
					"opcodes": "PUSH1 0x80 PUSH1 0x40 MSTORE PUSH9 0x2B5E3AF16B1880000 PUSH1 0x0 SSTORE CALLVALUE DUP1 ISZERO PUSH2 0x1D JUMPI PUSH1 0x0 DUP1 REVERT JUMPDEST POP CALLER PUSH1 0x3 PUSH1 0x0 PUSH2 0x100 EXP DUP2 SLOAD DUP2 PUSH20 0xFFFFFFFFFFFFFFFFFFFFFFFFFFFFFFFFFFFFFFFF MUL NOT AND SWAP1 DUP4 PUSH20 0xFFFFFFFFFFFFFFFFFFFFFFFFFFFFFFFFFFFFFFFF AND MUL OR SWAP1 SSTORE POP PUSH2 0xD1C DUP1 PUSH2 0x6E PUSH1 0x0 CODECOPY PUSH1 0x0 RETURN INVALID PUSH1 0x80 PUSH1 0x40 MSTORE PUSH1 0x4 CALLDATASIZE LT PUSH2 0x55 JUMPI PUSH1 0x0 CALLDATALOAD PUSH1 0xE0 SHR DUP1 PUSH4 0x2E715429 EQ PUSH2 0x5A JUMPI DUP1 PUSH4 0x3CCFD60B EQ PUSH2 0x97 JUMPI DUP1 PUSH4 0x51B80E41 EQ PUSH2 0xAE JUMPI DUP1 PUSH4 0x8DA5CB5B EQ PUSH2 0xD9 JUMPI DUP1 PUSH4 0xB60D4288 EQ PUSH2 0x104 JUMPI DUP1 PUSH4 0xDC0D3DFF EQ PUSH2 0x10E JUMPI JUMPDEST PUSH1 0x0 DUP1 REVERT JUMPDEST CALLVALUE DUP1 ISZERO PUSH2 0x66 JUMPI PUSH1 0x0 DUP1 REVERT JUMPDEST POP PUSH2 0x81 PUSH1 0x4 DUP1 CALLDATASIZE SUB DUP2 ADD SWAP1 PUSH2 0x7C SWAP2 SWAP1 PUSH2 0x75D JUMP JUMPDEST PUSH2 0x14B JUMP JUMPDEST PUSH1 0x40 MLOAD PUSH2 0x8E SWAP2 SWAP1 PUSH2 0x9AE JUMP JUMPDEST PUSH1 0x40 MLOAD DUP1 SWAP2 SUB SWAP1 RETURN JUMPDEST CALLVALUE DUP1 ISZERO PUSH2 0xA3 JUMPI PUSH1 0x0 DUP1 REVERT JUMPDEST POP PUSH2 0xAC PUSH2 0x163 JUMP JUMPDEST STOP JUMPDEST CALLVALUE DUP1 ISZERO PUSH2 0xBA JUMPI PUSH1 0x0 DUP1 REVERT JUMPDEST POP PUSH2 0xC3 PUSH2 0x3FA JUMP JUMPDEST PUSH1 0x40 MLOAD PUSH2 0xD0 SWAP2 SWAP1 PUSH2 0x9AE JUMP JUMPDEST PUSH1 0x40 MLOAD DUP1 SWAP2 SUB SWAP1 RETURN JUMPDEST CALLVALUE DUP1 ISZERO PUSH2 0xE5 JUMPI PUSH1 0x0 DUP1 REVERT JUMPDEST POP PUSH2 0xEE PUSH2 0x400 JUMP JUMPDEST PUSH1 0x40 MLOAD PUSH2 0xFB SWAP2 SWAP1 PUSH2 0x933 JUMP JUMPDEST PUSH1 0x40 MLOAD DUP1 SWAP2 SUB SWAP1 RETURN JUMPDEST PUSH2 0x10C PUSH2 0x426 JUMP JUMPDEST STOP JUMPDEST CALLVALUE DUP1 ISZERO PUSH2 0x11A JUMPI PUSH1 0x0 DUP1 REVERT JUMPDEST POP PUSH2 0x135 PUSH1 0x4 DUP1 CALLDATASIZE SUB DUP2 ADD SWAP1 PUSH2 0x130 SWAP2 SWAP1 PUSH2 0x786 JUMP JUMPDEST PUSH2 0x51C JUMP JUMPDEST PUSH1 0x40 MLOAD PUSH2 0x142 SWAP2 SWAP1 PUSH2 0x933 JUMP JUMPDEST PUSH1 0x40 MLOAD DUP1 SWAP2 SUB SWAP1 RETURN JUMPDEST PUSH1 0x2 PUSH1 0x20 MSTORE DUP1 PUSH1 0x0 MSTORE PUSH1 0x40 PUSH1 0x0 KECCAK256 PUSH1 0x0 SWAP2 POP SWAP1 POP SLOAD DUP2 JUMP JUMPDEST PUSH1 0x3 PUSH1 0x0 SWAP1 SLOAD SWAP1 PUSH2 0x100 EXP SWAP1 DIV PUSH20 0xFFFFFFFFFFFFFFFFFFFFFFFFFFFFFFFFFFFFFFFF AND PUSH20 0xFFFFFFFFFFFFFFFFFFFFFFFFFFFFFFFFFFFFFFFF AND CALLER PUSH20 0xFFFFFFFFFFFFFFFFFFFFFFFFFFFFFFFFFFFFFFFF AND EQ PUSH2 0x1F3 JUMPI PUSH1 0x40 MLOAD PUSH32 0x8C379A000000000000000000000000000000000000000000000000000000000 DUP2 MSTORE PUSH1 0x4 ADD PUSH2 0x1EA SWAP1 PUSH2 0x98E JUMP JUMPDEST PUSH1 0x40 MLOAD DUP1 SWAP2 SUB SWAP1 REVERT JUMPDEST PUSH1 0x0 JUMPDEST PUSH1 0x1 DUP1 SLOAD SWAP1 POP DUP2 GT PUSH2 0x2C4 JUMPI PUSH1 0x0 PUSH1 0x1 DUP3 DUP2 SLOAD DUP2 LT PUSH2 0x23E JUMPI PUSH32 0x4E487B7100000000000000000000000000000000000000000000000000000000 PUSH1 0x0 MSTORE PUSH1 0x32 PUSH1 0x4 MSTORE PUSH1 0x24 PUSH1 0x0 REVERT JUMPDEST SWAP1 PUSH1 0x0 MSTORE PUSH1 0x20 PUSH1 0x0 KECCAK256 ADD PUSH1 0x0 SWAP1 SLOAD SWAP1 PUSH2 0x100 EXP SWAP1 DIV PUSH20 0xFFFFFFFFFFFFFFFFFFFFFFFFFFFFFFFFFFFFFFFF AND SWAP1 POP PUSH1 0x0 PUSH1 0x2 PUSH1 0x0 DUP4 PUSH20 0xFFFFFFFFFFFFFFFFFFFFFFFFFFFFFFFFFFFFFFFF AND PUSH20 0xFFFFFFFFFFFFFFFFFFFFFFFFFFFFFFFFFFFFFFFF AND DUP2 MSTORE PUSH1 0x20 ADD SWAP1 DUP2 MSTORE PUSH1 0x20 ADD PUSH1 0x0 KECCAK256 DUP2 SWAP1 SSTORE POP POP DUP1 DUP1 PUSH2 0x2BC SWAP1 PUSH2 0xBE3 JUMP JUMPDEST SWAP2 POP POP PUSH2 0x1F6 JUMP JUMPDEST POP PUSH1 0x0 PUSH8 0xFFFFFFFFFFFFFFFF DUP2 GT ISZERO PUSH2 0x306 JUMPI PUSH32 0x4E487B7100000000000000000000000000000000000000000000000000000000 PUSH1 0x0 MSTORE PUSH1 0x41 PUSH1 0x4 MSTORE PUSH1 0x24 PUSH1 0x0 REVERT JUMPDEST PUSH1 0x40 MLOAD SWAP1 DUP1 DUP3 MSTORE DUP1 PUSH1 0x20 MUL PUSH1 0x20 ADD DUP3 ADD PUSH1 0x40 MSTORE DUP1 ISZERO PUSH2 0x334 JUMPI DUP2 PUSH1 0x20 ADD PUSH1 0x20 DUP3 MUL DUP1 CALLDATASIZE DUP4 CALLDATACOPY DUP1 DUP3 ADD SWAP2 POP POP SWAP1 POP JUMPDEST POP PUSH1 0x1 SWAP1 DUP1 MLOAD SWAP1 PUSH1 0x20 ADD SWAP1 PUSH2 0x34A SWAP3 SWAP2 SWAP1 PUSH2 0x64D JUMP JUMPDEST POP PUSH1 0x0 CALLER PUSH20 0xFFFFFFFFFFFFFFFFFFFFFFFFFFFFFFFFFFFFFFFF AND SELFBALANCE PUSH1 0x40 MLOAD PUSH2 0x371 SWAP1 PUSH2 0x91E JUMP JUMPDEST PUSH1 0x0 PUSH1 0x40 MLOAD DUP1 DUP4 SUB DUP2 DUP6 DUP8 GAS CALL SWAP3 POP POP POP RETURNDATASIZE DUP1 PUSH1 0x0 DUP2 EQ PUSH2 0x3AE JUMPI PUSH1 0x40 MLOAD SWAP2 POP PUSH1 0x1F NOT PUSH1 0x3F RETURNDATASIZE ADD AND DUP3 ADD PUSH1 0x40 MSTORE RETURNDATASIZE DUP3 MSTORE RETURNDATASIZE PUSH1 0x0 PUSH1 0x20 DUP5 ADD RETURNDATACOPY PUSH2 0x3B3 JUMP JUMPDEST PUSH1 0x60 SWAP2 POP JUMPDEST POP POP SWAP1 POP DUP1 PUSH2 0x3F7 JUMPI PUSH1 0x40 MLOAD PUSH32 0x8C379A000000000000000000000000000000000000000000000000000000000 DUP2 MSTORE PUSH1 0x4 ADD PUSH2 0x3EE SWAP1 PUSH2 0x94E JUMP JUMPDEST PUSH1 0x40 MLOAD DUP1 SWAP2 SUB SWAP1 REVERT JUMPDEST POP JUMP JUMPDEST PUSH1 0x0 SLOAD DUP2 JUMP JUMPDEST PUSH1 0x3 PUSH1 0x0 SWAP1 SLOAD SWAP1 PUSH2 0x100 EXP SWAP1 DIV PUSH20 0xFFFFFFFFFFFFFFFFFFFFFFFFFFFFFFFFFFFFFFFF AND DUP2 JUMP JUMPDEST PUSH1 0x0 SLOAD PUSH2 0x432 CALLVALUE PUSH2 0x55B JUMP JUMPDEST LT ISZERO PUSH2 0x473 JUMPI PUSH1 0x40 MLOAD PUSH32 0x8C379A000000000000000000000000000000000000000000000000000000000 DUP2 MSTORE PUSH1 0x4 ADD PUSH2 0x46A SWAP1 PUSH2 0x96E JUMP JUMPDEST PUSH1 0x40 MLOAD DUP1 SWAP2 SUB SWAP1 REVERT JUMPDEST PUSH1 0x1 CALLER SWAP1 DUP1 PUSH1 0x1 DUP2 SLOAD ADD DUP1 DUP3 SSTORE DUP1 SWAP2 POP POP PUSH1 0x1 SWAP1 SUB SWAP1 PUSH1 0x0 MSTORE PUSH1 0x20 PUSH1 0x0 KECCAK256 ADD PUSH1 0x0 SWAP1 SWAP2 SWAP1 SWAP2 SWAP1 SWAP2 PUSH2 0x100 EXP DUP2 SLOAD DUP2 PUSH20 0xFFFFFFFFFFFFFFFFFFFFFFFFFFFFFFFFFFFFFFFF MUL NOT AND SWAP1 DUP4 PUSH20 0xFFFFFFFFFFFFFFFFFFFFFFFFFFFFFFFFFFFFFFFF AND MUL OR SWAP1 SSTORE POP CALLVALUE PUSH1 0x2 PUSH1 0x0 CALLER PUSH20 0xFFFFFFFFFFFFFFFFFFFFFFFFFFFFFFFFFFFFFFFF AND PUSH20 0xFFFFFFFFFFFFFFFFFFFFFFFFFFFFFFFFFFFFFFFF AND DUP2 MSTORE PUSH1 0x20 ADD SWAP1 DUP2 MSTORE PUSH1 0x20 ADD PUSH1 0x0 KECCAK256 DUP2 SWAP1 SSTORE POP JUMP JUMPDEST PUSH1 0x1 DUP2 DUP2 SLOAD DUP2 LT PUSH2 0x52C JUMPI PUSH1 0x0 DUP1 REVERT JUMPDEST SWAP1 PUSH1 0x0 MSTORE PUSH1 0x20 PUSH1 0x0 KECCAK256 ADD PUSH1 0x0 SWAP2 POP SLOAD SWAP1 PUSH2 0x100 EXP SWAP1 DIV PUSH20 0xFFFFFFFFFFFFFFFFFFFFFFFFFFFFFFFFFFFFFFFF AND DUP2 JUMP JUMPDEST PUSH1 0x0 DUP1 PUSH2 0x566 PUSH2 0x595 JUMP JUMPDEST SWAP1 POP PUSH1 0x0 PUSH8 0xDE0B6B3A7640000 DUP5 DUP4 PUSH2 0x57F SWAP2 SWAP1 PUSH2 0xB2D JUMP JUMPDEST PUSH2 0x589 SWAP2 SWAP1 PUSH2 0x9E5 JUMP JUMPDEST SWAP1 POP DUP1 SWAP3 POP POP POP SWAP2 SWAP1 POP JUMP JUMPDEST PUSH1 0x0 DUP1 PUSH20 0x8A753747A1FA494EC906CE90E9F37563A8AF630E SWAP1 POP PUSH1 0x0 DUP2 PUSH20 0xFFFFFFFFFFFFFFFFFFFFFFFFFFFFFFFFFFFFFFFF AND PUSH4 0xFEAF968C PUSH1 0x40 MLOAD DUP2 PUSH4 0xFFFFFFFF AND PUSH1 0xE0 SHL DUP2 MSTORE PUSH1 0x4 ADD PUSH1 0xA0 PUSH1 0x40 MLOAD DUP1 DUP4 SUB DUP2 DUP7 DUP1 EXTCODESIZE ISZERO DUP1 ISZERO PUSH2 0x5F7 JUMPI PUSH1 0x0 DUP1 REVERT JUMPDEST POP GAS STATICCALL ISZERO DUP1 ISZERO PUSH2 0x60B JUMPI RETURNDATASIZE PUSH1 0x0 DUP1 RETURNDATACOPY RETURNDATASIZE PUSH1 0x0 REVERT JUMPDEST POP POP POP POP PUSH1 0x40 MLOAD RETURNDATASIZE PUSH1 0x1F NOT PUSH1 0x1F DUP3 ADD AND DUP3 ADD DUP1 PUSH1 0x40 MSTORE POP DUP2 ADD SWAP1 PUSH2 0x62F SWAP2 SWAP1 PUSH2 0x7AF JUMP JUMPDEST POP POP POP SWAP2 POP POP PUSH5 0x2540BE400 DUP2 PUSH2 0x646 SWAP2 SWAP1 PUSH2 0xA16 JUMP JUMPDEST SWAP3 POP POP POP SWAP1 JUMP JUMPDEST DUP3 DUP1 SLOAD DUP3 DUP3 SSTORE SWAP1 PUSH1 0x0 MSTORE PUSH1 0x20 PUSH1 0x0 KECCAK256 SWAP1 DUP2 ADD SWAP3 DUP3 ISZERO PUSH2 0x6C6 JUMPI SWAP2 PUSH1 0x20 MUL DUP3 ADD JUMPDEST DUP3 DUP2 GT ISZERO PUSH2 0x6C5 JUMPI DUP3 MLOAD DUP3 PUSH1 0x0 PUSH2 0x100 EXP DUP2 SLOAD DUP2 PUSH20 0xFFFFFFFFFFFFFFFFFFFFFFFFFFFFFFFFFFFFFFFF MUL NOT AND SWAP1 DUP4 PUSH20 0xFFFFFFFFFFFFFFFFFFFFFFFFFFFFFFFFFFFFFFFF AND MUL OR SWAP1 SSTORE POP SWAP2 PUSH1 0x20 ADD SWAP2 SWAP1 PUSH1 0x1 ADD SWAP1 PUSH2 0x66D JUMP JUMPDEST JUMPDEST POP SWAP1 POP PUSH2 0x6D3 SWAP2 SWAP1 PUSH2 0x6D7 JUMP JUMPDEST POP SWAP1 JUMP JUMPDEST JUMPDEST DUP1 DUP3 GT ISZERO PUSH2 0x6F0 JUMPI PUSH1 0x0 DUP2 PUSH1 0x0 SWAP1 SSTORE POP PUSH1 0x1 ADD PUSH2 0x6D8 JUMP JUMPDEST POP SWAP1 JUMP JUMPDEST PUSH1 0x0 DUP2 CALLDATALOAD SWAP1 POP PUSH2 0x703 DUP2 PUSH2 0xC8A JUMP JUMPDEST SWAP3 SWAP2 POP POP JUMP JUMPDEST PUSH1 0x0 DUP2 MLOAD SWAP1 POP PUSH2 0x718 DUP2 PUSH2 0xCA1 JUMP JUMPDEST SWAP3 SWAP2 POP POP JUMP JUMPDEST PUSH1 0x0 DUP2 CALLDATALOAD SWAP1 POP PUSH2 0x72D DUP2 PUSH2 0xCB8 JUMP JUMPDEST SWAP3 SWAP2 POP POP JUMP JUMPDEST PUSH1 0x0 DUP2 MLOAD SWAP1 POP PUSH2 0x742 DUP2 PUSH2 0xCB8 JUMP JUMPDEST SWAP3 SWAP2 POP POP JUMP JUMPDEST PUSH1 0x0 DUP2 MLOAD SWAP1 POP PUSH2 0x757 DUP2 PUSH2 0xCCF JUMP JUMPDEST SWAP3 SWAP2 POP POP JUMP JUMPDEST PUSH1 0x0 PUSH1 0x20 DUP3 DUP5 SUB SLT ISZERO PUSH2 0x76F JUMPI PUSH1 0x0 DUP1 REVERT JUMPDEST PUSH1 0x0 PUSH2 0x77D DUP5 DUP3 DUP6 ADD PUSH2 0x6F4 JUMP JUMPDEST SWAP2 POP POP SWAP3 SWAP2 POP POP JUMP JUMPDEST PUSH1 0x0 PUSH1 0x20 DUP3 DUP5 SUB SLT ISZERO PUSH2 0x798 JUMPI PUSH1 0x0 DUP1 REVERT JUMPDEST PUSH1 0x0 PUSH2 0x7A6 DUP5 DUP3 DUP6 ADD PUSH2 0x71E JUMP JUMPDEST SWAP2 POP POP SWAP3 SWAP2 POP POP JUMP JUMPDEST PUSH1 0x0 DUP1 PUSH1 0x0 DUP1 PUSH1 0x0 PUSH1 0xA0 DUP7 DUP9 SUB SLT ISZERO PUSH2 0x7C7 JUMPI PUSH1 0x0 DUP1 REVERT JUMPDEST PUSH1 0x0 PUSH2 0x7D5 DUP9 DUP3 DUP10 ADD PUSH2 0x748 JUMP JUMPDEST SWAP6 POP POP PUSH1 0x20 PUSH2 0x7E6 DUP9 DUP3 DUP10 ADD PUSH2 0x709 JUMP JUMPDEST SWAP5 POP POP PUSH1 0x40 PUSH2 0x7F7 DUP9 DUP3 DUP10 ADD PUSH2 0x733 JUMP JUMPDEST SWAP4 POP POP PUSH1 0x60 PUSH2 0x808 DUP9 DUP3 DUP10 ADD PUSH2 0x733 JUMP JUMPDEST SWAP3 POP POP PUSH1 0x80 PUSH2 0x819 DUP9 DUP3 DUP10 ADD PUSH2 0x748 JUMP JUMPDEST SWAP2 POP POP SWAP3 SWAP6 POP SWAP3 SWAP6 SWAP1 SWAP4 POP JUMP JUMPDEST PUSH2 0x82F DUP2 PUSH2 0xB87 JUMP JUMPDEST DUP3 MSTORE POP POP JUMP JUMPDEST PUSH1 0x0 PUSH2 0x842 PUSH1 0xB DUP4 PUSH2 0x9D4 JUMP JUMPDEST SWAP2 POP PUSH32 0x43616C6C206661696C6564000000000000000000000000000000000000000000 PUSH1 0x0 DUP4 ADD MSTORE PUSH1 0x20 DUP3 ADD SWAP1 POP SWAP2 SWAP1 POP JUMP JUMPDEST PUSH1 0x0 PUSH2 0x882 PUSH1 0x12 DUP4 PUSH2 0x9D4 JUMP JUMPDEST SWAP2 POP PUSH32 0x4469646E27742073656E6420656E6F7567680000000000000000000000000000 PUSH1 0x0 DUP4 ADD MSTORE PUSH1 0x20 DUP3 ADD SWAP1 POP SWAP2 SWAP1 POP JUMP JUMPDEST PUSH1 0x0 PUSH2 0x8C2 PUSH1 0x13 DUP4 PUSH2 0x9D4 JUMP JUMPDEST SWAP2 POP PUSH32 0x53656E646572206973206E6F74206F776E657200000000000000000000000000 PUSH1 0x0 DUP4 ADD MSTORE PUSH1 0x20 DUP3 ADD SWAP1 POP SWAP2 SWAP1 POP JUMP JUMPDEST PUSH1 0x0 PUSH2 0x902 PUSH1 0x0 DUP4 PUSH2 0x9C9 JUMP JUMPDEST SWAP2 POP PUSH1 0x0 DUP3 ADD SWAP1 POP SWAP2 SWAP1 POP JUMP JUMPDEST PUSH2 0x918 DUP2 PUSH2 0xBC3 JUMP JUMPDEST DUP3 MSTORE POP POP JUMP JUMPDEST PUSH1 0x0 PUSH2 0x929 DUP3 PUSH2 0x8F5 JUMP JUMPDEST SWAP2 POP DUP2 SWAP1 POP SWAP2 SWAP1 POP JUMP JUMPDEST PUSH1 0x0 PUSH1 0x20 DUP3 ADD SWAP1 POP PUSH2 0x948 PUSH1 0x0 DUP4 ADD DUP5 PUSH2 0x826 JUMP JUMPDEST SWAP3 SWAP2 POP POP JUMP JUMPDEST PUSH1 0x0 PUSH1 0x20 DUP3 ADD SWAP1 POP DUP2 DUP2 SUB PUSH1 0x0 DUP4 ADD MSTORE PUSH2 0x967 DUP2 PUSH2 0x835 JUMP JUMPDEST SWAP1 POP SWAP2 SWAP1 POP JUMP JUMPDEST PUSH1 0x0 PUSH1 0x20 DUP3 ADD SWAP1 POP DUP2 DUP2 SUB PUSH1 0x0 DUP4 ADD MSTORE PUSH2 0x987 DUP2 PUSH2 0x875 JUMP JUMPDEST SWAP1 POP SWAP2 SWAP1 POP JUMP JUMPDEST PUSH1 0x0 PUSH1 0x20 DUP3 ADD SWAP1 POP DUP2 DUP2 SUB PUSH1 0x0 DUP4 ADD MSTORE PUSH2 0x9A7 DUP2 PUSH2 0x8B5 JUMP JUMPDEST SWAP1 POP SWAP2 SWAP1 POP JUMP JUMPDEST PUSH1 0x0 PUSH1 0x20 DUP3 ADD SWAP1 POP PUSH2 0x9C3 PUSH1 0x0 DUP4 ADD DUP5 PUSH2 0x90F JUMP JUMPDEST SWAP3 SWAP2 POP POP JUMP JUMPDEST PUSH1 0x0 DUP2 SWAP1 POP SWAP3 SWAP2 POP POP JUMP JUMPDEST PUSH1 0x0 DUP3 DUP3 MSTORE PUSH1 0x20 DUP3 ADD SWAP1 POP SWAP3 SWAP2 POP POP JUMP JUMPDEST PUSH1 0x0 PUSH2 0x9F0 DUP3 PUSH2 0xBC3 JUMP JUMPDEST SWAP2 POP PUSH2 0x9FB DUP4 PUSH2 0xBC3 JUMP JUMPDEST SWAP3 POP DUP3 PUSH2 0xA0B JUMPI PUSH2 0xA0A PUSH2 0xC5B JUMP JUMPDEST JUMPDEST DUP3 DUP3 DIV SWAP1 POP SWAP3 SWAP2 POP POP JUMP JUMPDEST PUSH1 0x0 PUSH2 0xA21 DUP3 PUSH2 0xB99 JUMP JUMPDEST SWAP2 POP PUSH2 0xA2C DUP4 PUSH2 0xB99 JUMP JUMPDEST SWAP3 POP DUP3 PUSH32 0x7FFFFFFFFFFFFFFFFFFFFFFFFFFFFFFFFFFFFFFFFFFFFFFFFFFFFFFFFFFFFFFF DIV DUP3 GT PUSH1 0x0 DUP5 SGT PUSH1 0x0 DUP5 SGT AND AND ISZERO PUSH2 0xA6B JUMPI PUSH2 0xA6A PUSH2 0xC2C JUMP JUMPDEST JUMPDEST DUP2 PUSH32 0x8000000000000000000000000000000000000000000000000000000000000000 SDIV DUP4 SLT PUSH1 0x0 DUP5 SLT PUSH1 0x0 DUP5 SGT AND AND ISZERO PUSH2 0xAA8 JUMPI PUSH2 0xAA7 PUSH2 0xC2C JUMP JUMPDEST JUMPDEST DUP3 PUSH32 0x8000000000000000000000000000000000000000000000000000000000000000 SDIV DUP3 SLT PUSH1 0x0 DUP5 SGT PUSH1 0x0 DUP5 SLT AND AND ISZERO PUSH2 0xAE5 JUMPI PUSH2 0xAE4 PUSH2 0xC2C JUMP JUMPDEST JUMPDEST DUP3 PUSH32 0x7FFFFFFFFFFFFFFFFFFFFFFFFFFFFFFFFFFFFFFFFFFFFFFFFFFFFFFFFFFFFFFF SDIV DUP3 SLT PUSH1 0x0 DUP5 SLT PUSH1 0x0 DUP5 SLT AND AND ISZERO PUSH2 0xB22 JUMPI PUSH2 0xB21 PUSH2 0xC2C JUMP JUMPDEST JUMPDEST DUP3 DUP3 MUL SWAP1 POP SWAP3 SWAP2 POP POP JUMP JUMPDEST PUSH1 0x0 PUSH2 0xB38 DUP3 PUSH2 0xBC3 JUMP JUMPDEST SWAP2 POP PUSH2 0xB43 DUP4 PUSH2 0xBC3 JUMP JUMPDEST SWAP3 POP DUP2 PUSH32 0xFFFFFFFFFFFFFFFFFFFFFFFFFFFFFFFFFFFFFFFFFFFFFFFFFFFFFFFFFFFFFFFF DIV DUP4 GT DUP3 ISZERO ISZERO AND ISZERO PUSH2 0xB7C JUMPI PUSH2 0xB7B PUSH2 0xC2C JUMP JUMPDEST JUMPDEST DUP3 DUP3 MUL SWAP1 POP SWAP3 SWAP2 POP POP JUMP JUMPDEST PUSH1 0x0 PUSH2 0xB92 DUP3 PUSH2 0xBA3 JUMP JUMPDEST SWAP1 POP SWAP2 SWAP1 POP JUMP JUMPDEST PUSH1 0x0 DUP2 SWAP1 POP SWAP2 SWAP1 POP JUMP JUMPDEST PUSH1 0x0 PUSH20 0xFFFFFFFFFFFFFFFFFFFFFFFFFFFFFFFFFFFFFFFF DUP3 AND SWAP1 POP SWAP2 SWAP1 POP JUMP JUMPDEST PUSH1 0x0 DUP2 SWAP1 POP SWAP2 SWAP1 POP JUMP JUMPDEST PUSH1 0x0 PUSH10 0xFFFFFFFFFFFFFFFFFFFF DUP3 AND SWAP1 POP SWAP2 SWAP1 POP JUMP JUMPDEST PUSH1 0x0 PUSH2 0xBEE DUP3 PUSH2 0xBC3 JUMP JUMPDEST SWAP2 POP PUSH32 0xFFFFFFFFFFFFFFFFFFFFFFFFFFFFFFFFFFFFFFFFFFFFFFFFFFFFFFFFFFFFFFFF DUP3 EQ ISZERO PUSH2 0xC21 JUMPI PUSH2 0xC20 PUSH2 0xC2C JUMP JUMPDEST JUMPDEST PUSH1 0x1 DUP3 ADD SWAP1 POP SWAP2 SWAP1 POP JUMP JUMPDEST PUSH32 0x4E487B7100000000000000000000000000000000000000000000000000000000 PUSH1 0x0 MSTORE PUSH1 0x11 PUSH1 0x4 MSTORE PUSH1 0x24 PUSH1 0x0 REVERT JUMPDEST PUSH32 0x4E487B7100000000000000000000000000000000000000000000000000000000 PUSH1 0x0 MSTORE PUSH1 0x12 PUSH1 0x4 MSTORE PUSH1 0x24 PUSH1 0x0 REVERT JUMPDEST PUSH2 0xC93 DUP2 PUSH2 0xB87 JUMP JUMPDEST DUP2 EQ PUSH2 0xC9E JUMPI PUSH1 0x0 DUP1 REVERT JUMPDEST POP JUMP JUMPDEST PUSH2 0xCAA DUP2 PUSH2 0xB99 JUMP JUMPDEST DUP2 EQ PUSH2 0xCB5 JUMPI PUSH1 0x0 DUP1 REVERT JUMPDEST POP JUMP JUMPDEST PUSH2 0xCC1 DUP2 PUSH2 0xBC3 JUMP JUMPDEST DUP2 EQ PUSH2 0xCCC JUMPI PUSH1 0x0 DUP1 REVERT JUMPDEST POP JUMP JUMPDEST PUSH2 0xCD8 DUP2 PUSH2 0xBCD JUMP JUMPDEST DUP2 EQ PUSH2 0xCE3 JUMPI PUSH1 0x0 DUP1 REVERT JUMPDEST POP JUMP INVALID LOG2 PUSH5 0x6970667358 0x22 SLT KECCAK256 0xD1 0xE8 GASPRICE AND 0xDE MLOAD 0x5F 0x49 0xB7 BLOCKHASH 0xF8 RETURNDATACOPY 0xB8 ISZERO 0x2C PUSH16 0x3CBA31942F8A4303E300FD37956C8F15 PUSH5 0x736F6C6343 STOP ADDMOD STOP STOP CALLER "
				},
				"gasEstimates": {
					"creation": {
						"codeDepositCost": "671200",
						"executionCost": "41574",
						"totalCost": "712774"
					},
					"external": {
						"addressToAmtFunded(address)": "1492",
						"fund()": "infinite",
						"funders(uint256)": "2444",
						"minUsd()": "1151",
						"owner()": "1258",
						"withdraw()": "infinite"
					}
				},
				"methodIdentifiers": {
					"addressToAmtFunded(address)": "2e715429",
					"fund()": "b60d4288",
					"funders(uint256)": "dc0d3dff",
					"minUsd()": "51b80e41",
					"owner()": "8da5cb5b",
					"withdraw()": "3ccfd60b"
				}
			},
			"storageLayout": {
				"storage": [
					{
						"astId": 56,
						"contract": "contracts/FundMe.sol:FundMe",
						"label": "minUsd",
						"offset": 0,
						"slot": "0",
						"type": "t_uint256"
					},
					{
						"astId": 59,
						"contract": "contracts/FundMe.sol:FundMe",
						"label": "funders",
						"offset": 0,
						"slot": "1",
						"type": "t_array(t_address)dyn_storage"
					},
					{
						"astId": 63,
						"contract": "contracts/FundMe.sol:FundMe",
						"label": "addressToAmtFunded",
						"offset": 0,
						"slot": "2",
						"type": "t_mapping(t_address,t_uint256)"
					},
					{
						"astId": 65,
						"contract": "contracts/FundMe.sol:FundMe",
						"label": "owner",
						"offset": 0,
						"slot": "3",
						"type": "t_address"
					}
				],
				"types": {
					"t_address": {
						"encoding": "inplace",
						"label": "address",
						"numberOfBytes": "20"
					},
					"t_array(t_address)dyn_storage": {
						"base": "t_address",
						"encoding": "dynamic_array",
						"label": "address[]",
						"numberOfBytes": "32"
					},
					"t_mapping(t_address,t_uint256)": {
						"encoding": "mapping",
						"key": "t_address",
						"label": "mapping(address => uint256)",
						"numberOfBytes": "32",
						"value": "t_uint256"
					},
					"t_uint256": {
						"encoding": "inplace",
						"label": "uint256",
						"numberOfBytes": "32"
					}
				}
			},
			"userdoc": {
				"kind": "user",
				"methods": {},
				"version": 1
			}
		}
	}
}