{
	"contracts/FundMe.sol": {
		"FundMe": {
			"abi": [
				{
					"inputs": [],
					"name": "fund",
					"outputs": [],
					"stateMutability": "payable",
					"type": "function"
				},
				{
					"inputs": [],
					"name": "getPrice",
					"outputs": [
						{
							"internalType": "uint256",
							"name": "",
							"type": "uint256"
						}
					],
					"stateMutability": "view",
					"type": "function"
				},
				{
					"inputs": [],
					"name": "getVer",
					"outputs": [
						{
							"internalType": "uint256",
							"name": "",
							"type": "uint256"
						}
					],
					"stateMutability": "view",
					"type": "function"
				},
				{
					"inputs": [],
					"name": "minUsd",
					"outputs": [
						{
							"internalType": "uint256",
							"name": "",
							"type": "uint256"
						}
					],
					"stateMutability": "view",
					"type": "function"
				}
			],
			"devdoc": {
				"kind": "dev",
				"methods": {},
				"version": 1
			},
			"evm": {
				"assembly": "    /* \"contracts/FundMe.sol\":379:1462  contract FundMe {\r... */\n  mstore(0x40, 0x80)\n    /* \"contracts/FundMe.sol\":426:428  50 */\n  0x32\n    /* \"contracts/FundMe.sol\":402:428  uint256 public minUsd = 50 */\n  0x00\n  sstore\n    /* \"contracts/FundMe.sol\":379:1462  contract FundMe {\r... */\n  callvalue\n  dup1\n  iszero\n  tag_1\n  jumpi\n  0x00\n  dup1\n  revert\ntag_1:\n  pop\n  dataSize(sub_0)\n  dup1\n  dataOffset(sub_0)\n  0x00\n  codecopy\n  0x00\n  return\nstop\n\nsub_0: assembly {\n        /* \"contracts/FundMe.sol\":379:1462  contract FundMe {\r... */\n      mstore(0x40, 0x80)\n      jumpi(tag_1, lt(calldatasize, 0x04))\n      shr(0xe0, calldataload(0x00))\n      dup1\n      0x51b80e41\n      eq\n      tag_2\n      jumpi\n      dup1\n      0x8793ad55\n      eq\n      tag_3\n      jumpi\n      dup1\n      0x98d5fdca\n      eq\n      tag_4\n      jumpi\n      dup1\n      0xb60d4288\n      eq\n      tag_5\n      jumpi\n    tag_1:\n      0x00\n      dup1\n      revert\n        /* \"contracts/FundMe.sol\":402:428  uint256 public minUsd = 50 */\n    tag_2:\n      callvalue\n      dup1\n      iszero\n      tag_6\n      jumpi\n      0x00\n      dup1\n      revert\n    tag_6:\n      pop\n      tag_7\n      tag_8\n      jump\t// in\n    tag_7:\n      mload(0x40)\n      tag_9\n      swap2\n      swap1\n      tag_10\n      jump\t// in\n    tag_9:\n      mload(0x40)\n      dup1\n      swap2\n      sub\n      swap1\n      return\n        /* \"contracts/FundMe.sol\":1221:1422  function getVer() public view returns(uint256){\r... */\n    tag_3:\n      callvalue\n      dup1\n      iszero\n      tag_11\n      jumpi\n      0x00\n      dup1\n      revert\n    tag_11:\n      pop\n      tag_12\n      tag_13\n      jump\t// in\n    tag_12:\n      mload(0x40)\n      tag_14\n      swap2\n      swap1\n      tag_10\n      jump\t// in\n    tag_14:\n      mload(0x40)\n      dup1\n      swap2\n      sub\n      swap1\n      return\n        /* \"contracts/FundMe.sol\":791:1213  function getPrice() public view returns(uint256){\r... */\n    tag_4:\n      callvalue\n      dup1\n      iszero\n      tag_15\n      jumpi\n      0x00\n      dup1\n      revert\n    tag_15:\n      pop\n      tag_16\n      tag_17\n      jump\t// in\n    tag_16:\n      mload(0x40)\n      tag_18\n      swap2\n      swap1\n      tag_10\n      jump\t// in\n    tag_18:\n      mload(0x40)\n      dup1\n      swap2\n      sub\n      swap1\n      return\n        /* \"contracts/FundMe.sol\":437:783  function fund() public payable{\r... */\n    tag_5:\n      tag_19\n      tag_20\n      jump\t// in\n    tag_19:\n      stop\n        /* \"contracts/FundMe.sol\":402:428  uint256 public minUsd = 50 */\n    tag_8:\n      sload(0x00)\n      dup2\n      jump\t// out\n        /* \"contracts/FundMe.sol\":1221:1422  function getVer() public view returns(uint256){\r... */\n    tag_13:\n        /* \"contracts/FundMe.sol\":1259:1266  uint256 */\n      0x00\n        /* \"contracts/FundMe.sol\":1278:1309  AggregatorV3Interface priceFeed */\n      dup1\n        /* \"contracts/FundMe.sol\":1334:1376  0x5f4eC3Df9cbd43714FE2740f5E3616155c5b8419 */\n      0x5f4ec3df9cbd43714fe2740f5e3616155c5b8419\n        /* \"contracts/FundMe.sol\":1278:1377  AggregatorV3Interface priceFeed = AggregatorV3Interface(0x5f4eC3Df9cbd43714FE2740f5E3616155c5b8419) */\n      swap1\n      pop\n        /* \"contracts/FundMe.sol\":1395:1404  priceFeed */\n      dup1\n        /* \"contracts/FundMe.sol\":1395:1412  priceFeed.version */\n      0xffffffffffffffffffffffffffffffffffffffff\n      and\n      0x54fd4d50\n        /* \"contracts/FundMe.sol\":1395:1414  priceFeed.version() */\n      mload(0x40)\n      dup2\n      0xffffffff\n      and\n      0xe0\n      shl\n      dup2\n      mstore\n      0x04\n      add\n      0x20\n      mload(0x40)\n      dup1\n      dup4\n      sub\n      dup2\n      dup7\n      dup1\n      extcodesize\n      iszero\n      dup1\n      iszero\n      tag_22\n      jumpi\n      0x00\n      dup1\n      revert\n    tag_22:\n      pop\n      gas\n      staticcall\n      iszero\n      dup1\n      iszero\n      tag_24\n      jumpi\n      returndatasize\n      0x00\n      dup1\n      returndatacopy\n      revert(0x00, returndatasize)\n    tag_24:\n      pop\n      pop\n      pop\n      pop\n      mload(0x40)\n      returndatasize\n      not(0x1f)\n      0x1f\n      dup3\n      add\n      and\n      dup3\n      add\n      dup1\n      0x40\n      mstore\n      pop\n      dup2\n      add\n      swap1\n      tag_25\n      swap2\n      swap1\n      tag_26\n      jump\t// in\n    tag_25:\n        /* \"contracts/FundMe.sol\":1388:1414  return priceFeed.version() */\n      swap2\n      pop\n      pop\n        /* \"contracts/FundMe.sol\":1221:1422  function getVer() public view returns(uint256){\r... */\n      swap1\n      jump\t// out\n        /* \"contracts/FundMe.sol\":791:1213  function getPrice() public view returns(uint256){\r... */\n    tag_17:\n        /* \"contracts/FundMe.sol\":831:838  uint256 */\n      0x00\n        /* \"contracts/FundMe.sol\":929:960  AggregatorV3Interface priceFeed */\n      dup1\n        /* \"contracts/FundMe.sol\":985:1027  0x5f4eC3Df9cbd43714FE2740f5E3616155c5b8419 */\n      0x5f4ec3df9cbd43714fe2740f5e3616155c5b8419\n        /* \"contracts/FundMe.sol\":929:1028  AggregatorV3Interface priceFeed = AggregatorV3Interface(0x5f4eC3Df9cbd43714FE2740f5E3616155c5b8419) */\n      swap1\n      pop\n        /* \"contracts/FundMe.sol\":1041:1053  int256 price */\n      0x00\n        /* \"contracts/FundMe.sol\":1060:1069  priceFeed */\n      dup2\n        /* \"contracts/FundMe.sol\":1060:1085  priceFeed.latestRoundData */\n      0xffffffffffffffffffffffffffffffffffffffff\n      and\n      0xfeaf968c\n        /* \"contracts/FundMe.sol\":1060:1087  priceFeed.latestRoundData() */\n      mload(0x40)\n      dup2\n      0xffffffff\n      and\n      0xe0\n      shl\n      dup2\n      mstore\n      0x04\n      add\n      0xa0\n      mload(0x40)\n      dup1\n      dup4\n      sub\n      dup2\n      dup7\n      dup1\n      extcodesize\n      iszero\n      dup1\n      iszero\n      tag_28\n      jumpi\n      0x00\n      dup1\n      revert\n    tag_28:\n      pop\n      gas\n      staticcall\n      iszero\n      dup1\n      iszero\n      tag_30\n      jumpi\n      returndatasize\n      0x00\n      dup1\n      returndatacopy\n      revert(0x00, returndatasize)\n    tag_30:\n      pop\n      pop\n      pop\n      pop\n      mload(0x40)\n      returndatasize\n      not(0x1f)\n      0x1f\n      dup3\n      add\n      and\n      dup3\n      add\n      dup1\n      0x40\n      mstore\n      pop\n      dup2\n      add\n      swap1\n      tag_31\n      swap2\n      swap1\n      tag_32\n      jump\t// in\n    tag_31:\n        /* \"contracts/FundMe.sol\":1039:1087  (,int256 price,,,) = priceFeed.latestRoundData() */\n      pop\n      pop\n      pop\n      swap2\n      pop\n      pop\n        /* \"contracts/FundMe.sol\":1179:1183  1e18 */\n      0x0de0b6b3a7640000\n        /* \"contracts/FundMe.sol\":1171:1176  price */\n      dup2\n        /* \"contracts/FundMe.sol\":1171:1183  price * 1e18 */\n      tag_33\n      swap2\n      swap1\n      tag_34\n      jump\t// in\n    tag_33:\n        /* \"contracts/FundMe.sol\":1156:1184  return uint256(price * 1e18) */\n      swap3\n      pop\n      pop\n      pop\n        /* \"contracts/FundMe.sol\":791:1213  function getPrice() public view returns(uint256){\r... */\n      swap1\n      jump\t// out\n        /* \"contracts/FundMe.sol\":437:783  function fund() public payable{\r... */\n    tag_20:\n        /* \"contracts/FundMe.sol\":613:619  minUsd */\n      sload(0x00)\n        /* \"contracts/FundMe.sol\":601:610  msg.value */\n      callvalue\n        /* \"contracts/FundMe.sol\":601:619  msg.value > minUsd */\n      gt\n        /* \"contracts/FundMe.sol\":593:642  require(msg.value > minUsd ,\"Didn't send enough\") */\n      tag_36\n      jumpi\n      mload(0x40)\n      0x08c379a000000000000000000000000000000000000000000000000000000000\n      dup2\n      mstore\n      0x04\n      add\n      tag_37\n      swap1\n      tag_38\n      jump\t// in\n    tag_37:\n      mload(0x40)\n      dup1\n      swap2\n      sub\n      swap1\n      revert\n    tag_36:\n        /* \"contracts/FundMe.sol\":437:783  function fund() public payable{\r... */\n      jump\t// out\n        /* \"#utility.yul\":7:148   */\n    tag_40:\n        /* \"#utility.yul\":63:68   */\n      0x00\n        /* \"#utility.yul\":94:100   */\n      dup2\n        /* \"#utility.yul\":88:101   */\n      mload\n        /* \"#utility.yul\":79:101   */\n      swap1\n      pop\n        /* \"#utility.yul\":110:142   */\n      tag_42\n        /* \"#utility.yul\":136:141   */\n      dup2\n        /* \"#utility.yul\":110:142   */\n      tag_43\n      jump\t// in\n    tag_42:\n        /* \"#utility.yul\":7:148   */\n      swap3\n      swap2\n      pop\n      pop\n      jump\t// out\n        /* \"#utility.yul\":154:297   */\n    tag_44:\n        /* \"#utility.yul\":211:216   */\n      0x00\n        /* \"#utility.yul\":242:248   */\n      dup2\n        /* \"#utility.yul\":236:249   */\n      mload\n        /* \"#utility.yul\":227:249   */\n      swap1\n      pop\n        /* \"#utility.yul\":258:291   */\n      tag_46\n        /* \"#utility.yul\":285:290   */\n      dup2\n        /* \"#utility.yul\":258:291   */\n      tag_47\n      jump\t// in\n    tag_46:\n        /* \"#utility.yul\":154:297   */\n      swap3\n      swap2\n      pop\n      pop\n      jump\t// out\n        /* \"#utility.yul\":303:444   */\n    tag_48:\n        /* \"#utility.yul\":359:364   */\n      0x00\n        /* \"#utility.yul\":390:396   */\n      dup2\n        /* \"#utility.yul\":384:397   */\n      mload\n        /* \"#utility.yul\":375:397   */\n      swap1\n      pop\n        /* \"#utility.yul\":406:438   */\n      tag_50\n        /* \"#utility.yul\":432:437   */\n      dup2\n        /* \"#utility.yul\":406:438   */\n      tag_51\n      jump\t// in\n    tag_50:\n        /* \"#utility.yul\":303:444   */\n      swap3\n      swap2\n      pop\n      pop\n      jump\t// out\n        /* \"#utility.yul\":450:801   */\n    tag_26:\n        /* \"#utility.yul\":520:526   */\n      0x00\n        /* \"#utility.yul\":569:571   */\n      0x20\n        /* \"#utility.yul\":557:566   */\n      dup3\n        /* \"#utility.yul\":548:555   */\n      dup5\n        /* \"#utility.yul\":544:567   */\n      sub\n        /* \"#utility.yul\":540:572   */\n      slt\n        /* \"#utility.yul\":537:656   */\n      iszero\n      tag_53\n      jumpi\n        /* \"#utility.yul\":575:654   */\n      tag_54\n      tag_55\n      jump\t// in\n    tag_54:\n        /* \"#utility.yul\":537:656   */\n    tag_53:\n        /* \"#utility.yul\":695:696   */\n      0x00\n        /* \"#utility.yul\":720:784   */\n      tag_56\n        /* \"#utility.yul\":776:783   */\n      dup5\n        /* \"#utility.yul\":767:773   */\n      dup3\n        /* \"#utility.yul\":756:765   */\n      dup6\n        /* \"#utility.yul\":752:774   */\n      add\n        /* \"#utility.yul\":720:784   */\n      tag_44\n      jump\t// in\n    tag_56:\n        /* \"#utility.yul\":710:784   */\n      swap2\n      pop\n        /* \"#utility.yul\":666:794   */\n      pop\n        /* \"#utility.yul\":450:801   */\n      swap3\n      swap2\n      pop\n      pop\n      jump\t// out\n        /* \"#utility.yul\":807:1778   */\n    tag_32:\n        /* \"#utility.yul\":910:916   */\n      0x00\n        /* \"#utility.yul\":918:924   */\n      dup1\n        /* \"#utility.yul\":926:932   */\n      0x00\n        /* \"#utility.yul\":934:940   */\n      dup1\n        /* \"#utility.yul\":942:948   */\n      0x00\n        /* \"#utility.yul\":991:994   */\n      0xa0\n        /* \"#utility.yul\":979:988   */\n      dup7\n        /* \"#utility.yul\":970:977   */\n      dup9\n        /* \"#utility.yul\":966:989   */\n      sub\n        /* \"#utility.yul\":962:995   */\n      slt\n        /* \"#utility.yul\":959:1079   */\n      iszero\n      tag_58\n      jumpi\n        /* \"#utility.yul\":998:1077   */\n      tag_59\n      tag_55\n      jump\t// in\n    tag_59:\n        /* \"#utility.yul\":959:1079   */\n    tag_58:\n        /* \"#utility.yul\":1118:1119   */\n      0x00\n        /* \"#utility.yul\":1143:1206   */\n      tag_60\n        /* \"#utility.yul\":1198:1205   */\n      dup9\n        /* \"#utility.yul\":1189:1195   */\n      dup3\n        /* \"#utility.yul\":1178:1187   */\n      dup10\n        /* \"#utility.yul\":1174:1196   */\n      add\n        /* \"#utility.yul\":1143:1206   */\n      tag_48\n      jump\t// in\n    tag_60:\n        /* \"#utility.yul\":1133:1206   */\n      swap6\n      pop\n        /* \"#utility.yul\":1089:1216   */\n      pop\n        /* \"#utility.yul\":1255:1257   */\n      0x20\n        /* \"#utility.yul\":1281:1344   */\n      tag_61\n        /* \"#utility.yul\":1336:1343   */\n      dup9\n        /* \"#utility.yul\":1327:1333   */\n      dup3\n        /* \"#utility.yul\":1316:1325   */\n      dup10\n        /* \"#utility.yul\":1312:1334   */\n      add\n        /* \"#utility.yul\":1281:1344   */\n      tag_40\n      jump\t// in\n    tag_61:\n        /* \"#utility.yul\":1271:1344   */\n      swap5\n      pop\n        /* \"#utility.yul\":1226:1354   */\n      pop\n        /* \"#utility.yul\":1393:1395   */\n      0x40\n        /* \"#utility.yul\":1419:1483   */\n      tag_62\n        /* \"#utility.yul\":1475:1482   */\n      dup9\n        /* \"#utility.yul\":1466:1472   */\n      dup3\n        /* \"#utility.yul\":1455:1464   */\n      dup10\n        /* \"#utility.yul\":1451:1473   */\n      add\n        /* \"#utility.yul\":1419:1483   */\n      tag_44\n      jump\t// in\n    tag_62:\n        /* \"#utility.yul\":1409:1483   */\n      swap4\n      pop\n        /* \"#utility.yul\":1364:1493   */\n      pop\n        /* \"#utility.yul\":1532:1534   */\n      0x60\n        /* \"#utility.yul\":1558:1622   */\n      tag_63\n        /* \"#utility.yul\":1614:1621   */\n      dup9\n        /* \"#utility.yul\":1605:1611   */\n      dup3\n        /* \"#utility.yul\":1594:1603   */\n      dup10\n        /* \"#utility.yul\":1590:1612   */\n      add\n        /* \"#utility.yul\":1558:1622   */\n      tag_44\n      jump\t// in\n    tag_63:\n        /* \"#utility.yul\":1548:1622   */\n      swap3\n      pop\n        /* \"#utility.yul\":1503:1632   */\n      pop\n        /* \"#utility.yul\":1671:1674   */\n      0x80\n        /* \"#utility.yul\":1698:1761   */\n      tag_64\n        /* \"#utility.yul\":1753:1760   */\n      dup9\n        /* \"#utility.yul\":1744:1750   */\n      dup3\n        /* \"#utility.yul\":1733:1742   */\n      dup10\n        /* \"#utility.yul\":1729:1751   */\n      add\n        /* \"#utility.yul\":1698:1761   */\n      tag_48\n      jump\t// in\n    tag_64:\n        /* \"#utility.yul\":1688:1761   */\n      swap2\n      pop\n        /* \"#utility.yul\":1642:1771   */\n      pop\n        /* \"#utility.yul\":807:1778   */\n      swap3\n      swap6\n      pop\n      swap3\n      swap6\n      swap1\n      swap4\n      pop\n      jump\t// out\n        /* \"#utility.yul\":1784:2150   */\n    tag_65:\n        /* \"#utility.yul\":1926:1929   */\n      0x00\n        /* \"#utility.yul\":1947:2014   */\n      tag_67\n        /* \"#utility.yul\":2011:2013   */\n      0x12\n        /* \"#utility.yul\":2006:2009   */\n      dup4\n        /* \"#utility.yul\":1947:2014   */\n      tag_68\n      jump\t// in\n    tag_67:\n        /* \"#utility.yul\":1940:2014   */\n      swap2\n      pop\n        /* \"#utility.yul\":2023:2116   */\n      tag_69\n        /* \"#utility.yul\":2112:2115   */\n      dup3\n        /* \"#utility.yul\":2023:2116   */\n      tag_70\n      jump\t// in\n    tag_69:\n        /* \"#utility.yul\":2141:2143   */\n      0x20\n        /* \"#utility.yul\":2136:2139   */\n      dup3\n        /* \"#utility.yul\":2132:2144   */\n      add\n        /* \"#utility.yul\":2125:2144   */\n      swap1\n      pop\n        /* \"#utility.yul\":1784:2150   */\n      swap2\n      swap1\n      pop\n      jump\t// out\n        /* \"#utility.yul\":2156:2274   */\n    tag_71:\n        /* \"#utility.yul\":2243:2267   */\n      tag_73\n        /* \"#utility.yul\":2261:2266   */\n      dup2\n        /* \"#utility.yul\":2243:2267   */\n      tag_74\n      jump\t// in\n    tag_73:\n        /* \"#utility.yul\":2238:2241   */\n      dup3\n        /* \"#utility.yul\":2231:2268   */\n      mstore\n        /* \"#utility.yul\":2156:2274   */\n      pop\n      pop\n      jump\t// out\n        /* \"#utility.yul\":2280:2699   */\n    tag_38:\n        /* \"#utility.yul\":2446:2450   */\n      0x00\n        /* \"#utility.yul\":2484:2486   */\n      0x20\n        /* \"#utility.yul\":2473:2482   */\n      dup3\n        /* \"#utility.yul\":2469:2487   */\n      add\n        /* \"#utility.yul\":2461:2487   */\n      swap1\n      pop\n        /* \"#utility.yul\":2533:2542   */\n      dup2\n        /* \"#utility.yul\":2527:2531   */\n      dup2\n        /* \"#utility.yul\":2523:2543   */\n      sub\n        /* \"#utility.yul\":2519:2520   */\n      0x00\n        /* \"#utility.yul\":2508:2517   */\n      dup4\n        /* \"#utility.yul\":2504:2521   */\n      add\n        /* \"#utility.yul\":2497:2544   */\n      mstore\n        /* \"#utility.yul\":2561:2692   */\n      tag_76\n        /* \"#utility.yul\":2687:2691   */\n      dup2\n        /* \"#utility.yul\":2561:2692   */\n      tag_65\n      jump\t// in\n    tag_76:\n        /* \"#utility.yul\":2553:2692   */\n      swap1\n      pop\n        /* \"#utility.yul\":2280:2699   */\n      swap2\n      swap1\n      pop\n      jump\t// out\n        /* \"#utility.yul\":2705:2927   */\n    tag_10:\n        /* \"#utility.yul\":2798:2802   */\n      0x00\n        /* \"#utility.yul\":2836:2838   */\n      0x20\n        /* \"#utility.yul\":2825:2834   */\n      dup3\n        /* \"#utility.yul\":2821:2839   */\n      add\n        /* \"#utility.yul\":2813:2839   */\n      swap1\n      pop\n        /* \"#utility.yul\":2849:2920   */\n      tag_78\n        /* \"#utility.yul\":2917:2918   */\n      0x00\n        /* \"#utility.yul\":2906:2915   */\n      dup4\n        /* \"#utility.yul\":2902:2919   */\n      add\n        /* \"#utility.yul\":2893:2899   */\n      dup5\n        /* \"#utility.yul\":2849:2920   */\n      tag_71\n      jump\t// in\n    tag_78:\n        /* \"#utility.yul\":2705:2927   */\n      swap3\n      swap2\n      pop\n      pop\n      jump\t// out\n        /* \"#utility.yul\":3014:3183   */\n    tag_68:\n        /* \"#utility.yul\":3098:3109   */\n      0x00\n        /* \"#utility.yul\":3132:3138   */\n      dup3\n        /* \"#utility.yul\":3127:3130   */\n      dup3\n        /* \"#utility.yul\":3120:3139   */\n      mstore\n        /* \"#utility.yul\":3172:3176   */\n      0x20\n        /* \"#utility.yul\":3167:3170   */\n      dup3\n        /* \"#utility.yul\":3163:3177   */\n      add\n        /* \"#utility.yul\":3148:3177   */\n      swap1\n      pop\n        /* \"#utility.yul\":3014:3183   */\n      swap3\n      swap2\n      pop\n      pop\n      jump\t// out\n        /* \"#utility.yul\":3189:4180   */\n    tag_34:\n        /* \"#utility.yul\":3228:3235   */\n      0x00\n        /* \"#utility.yul\":3251:3270   */\n      tag_83\n        /* \"#utility.yul\":3268:3269   */\n      dup3\n        /* \"#utility.yul\":3251:3270   */\n      tag_84\n      jump\t// in\n    tag_83:\n        /* \"#utility.yul\":3246:3270   */\n      swap2\n      pop\n        /* \"#utility.yul\":3284:3303   */\n      tag_85\n        /* \"#utility.yul\":3301:3302   */\n      dup4\n        /* \"#utility.yul\":3284:3303   */\n      tag_84\n      jump\t// in\n    tag_85:\n        /* \"#utility.yul\":3279:3303   */\n      swap3\n      pop\n        /* \"#utility.yul\":3485:3486   */\n      dup3\n        /* \"#utility.yul\":3417:3483   */\n      0x7fffffffffffffffffffffffffffffffffffffffffffffffffffffffffffffff\n        /* \"#utility.yul\":3413:3487   */\n      div\n        /* \"#utility.yul\":3410:3411   */\n      dup3\n        /* \"#utility.yul\":3407:3488   */\n      gt\n        /* \"#utility.yul\":3402:3403   */\n      0x00\n        /* \"#utility.yul\":3399:3400   */\n      dup5\n        /* \"#utility.yul\":3395:3404   */\n      sgt\n        /* \"#utility.yul\":3391:3392   */\n      0x00\n        /* \"#utility.yul\":3388:3389   */\n      dup5\n        /* \"#utility.yul\":3384:3393   */\n      sgt\n        /* \"#utility.yul\":3380:3405   */\n      and\n        /* \"#utility.yul\":3376:3489   */\n      and\n        /* \"#utility.yul\":3373:3512   */\n      iszero\n      tag_86\n      jumpi\n        /* \"#utility.yul\":3492:3510   */\n      tag_87\n      tag_88\n      jump\t// in\n    tag_87:\n        /* \"#utility.yul\":3373:3512   */\n    tag_86:\n        /* \"#utility.yul\":3696:3697   */\n      dup2\n        /* \"#utility.yul\":3628:3694   */\n      0x8000000000000000000000000000000000000000000000000000000000000000\n        /* \"#utility.yul\":3623:3698   */\n      sdiv\n        /* \"#utility.yul\":3620:3621   */\n      dup4\n        /* \"#utility.yul\":3616:3699   */\n      slt\n        /* \"#utility.yul\":3611:3612   */\n      0x00\n        /* \"#utility.yul\":3608:3609   */\n      dup5\n        /* \"#utility.yul\":3604:3613   */\n      slt\n        /* \"#utility.yul\":3600:3601   */\n      0x00\n        /* \"#utility.yul\":3597:3598   */\n      dup5\n        /* \"#utility.yul\":3593:3602   */\n      sgt\n        /* \"#utility.yul\":3589:3614   */\n      and\n        /* \"#utility.yul\":3585:3700   */\n      and\n        /* \"#utility.yul\":3582:3723   */\n      iszero\n      tag_89\n      jumpi\n        /* \"#utility.yul\":3703:3721   */\n      tag_90\n      tag_88\n      jump\t// in\n    tag_90:\n        /* \"#utility.yul\":3582:3723   */\n    tag_89:\n        /* \"#utility.yul\":3907:3908   */\n      dup3\n        /* \"#utility.yul\":3839:3905   */\n      0x8000000000000000000000000000000000000000000000000000000000000000\n        /* \"#utility.yul\":3834:3909   */\n      sdiv\n        /* \"#utility.yul\":3831:3832   */\n      dup3\n        /* \"#utility.yul\":3827:3910   */\n      slt\n        /* \"#utility.yul\":3822:3823   */\n      0x00\n        /* \"#utility.yul\":3819:3820   */\n      dup5\n        /* \"#utility.yul\":3815:3824   */\n      sgt\n        /* \"#utility.yul\":3811:3812   */\n      0x00\n        /* \"#utility.yul\":3808:3809   */\n      dup5\n        /* \"#utility.yul\":3804:3813   */\n      slt\n        /* \"#utility.yul\":3800:3825   */\n      and\n        /* \"#utility.yul\":3796:3911   */\n      and\n        /* \"#utility.yul\":3793:3934   */\n      iszero\n      tag_91\n      jumpi\n        /* \"#utility.yul\":3914:3932   */\n      tag_92\n      tag_88\n      jump\t// in\n    tag_92:\n        /* \"#utility.yul\":3793:3934   */\n    tag_91:\n        /* \"#utility.yul\":4117:4118   */\n      dup3\n        /* \"#utility.yul\":4049:4115   */\n      0x7fffffffffffffffffffffffffffffffffffffffffffffffffffffffffffffff\n        /* \"#utility.yul\":4044:4119   */\n      sdiv\n        /* \"#utility.yul\":4041:4042   */\n      dup3\n        /* \"#utility.yul\":4037:4120   */\n      slt\n        /* \"#utility.yul\":4032:4033   */\n      0x00\n        /* \"#utility.yul\":4029:4030   */\n      dup5\n        /* \"#utility.yul\":4025:4034   */\n      slt\n        /* \"#utility.yul\":4021:4022   */\n      0x00\n        /* \"#utility.yul\":4018:4019   */\n      dup5\n        /* \"#utility.yul\":4014:4023   */\n      slt\n        /* \"#utility.yul\":4010:4035   */\n      and\n        /* \"#utility.yul\":4006:4121   */\n      and\n        /* \"#utility.yul\":4003:4144   */\n      iszero\n      tag_93\n      jumpi\n        /* \"#utility.yul\":4124:4142   */\n      tag_94\n      tag_88\n      jump\t// in\n    tag_94:\n        /* \"#utility.yul\":4003:4144   */\n    tag_93:\n        /* \"#utility.yul\":4172:4173   */\n      dup3\n        /* \"#utility.yul\":4169:4170   */\n      dup3\n        /* \"#utility.yul\":4165:4174   */\n      mul\n        /* \"#utility.yul\":4154:4174   */\n      swap1\n      pop\n        /* \"#utility.yul\":3189:4180   */\n      swap3\n      swap2\n      pop\n      pop\n      jump\t// out\n        /* \"#utility.yul\":4186:4262   */\n    tag_84:\n        /* \"#utility.yul\":4222:4229   */\n      0x00\n        /* \"#utility.yul\":4251:4256   */\n      dup2\n        /* \"#utility.yul\":4240:4256   */\n      swap1\n      pop\n        /* \"#utility.yul\":4186:4262   */\n      swap2\n      swap1\n      pop\n      jump\t// out\n        /* \"#utility.yul\":4268:4345   */\n    tag_74:\n        /* \"#utility.yul\":4305:4312   */\n      0x00\n        /* \"#utility.yul\":4334:4339   */\n      dup2\n        /* \"#utility.yul\":4323:4339   */\n      swap1\n      pop\n        /* \"#utility.yul\":4268:4345   */\n      swap2\n      swap1\n      pop\n      jump\t// out\n        /* \"#utility.yul\":4351:4456   */\n    tag_97:\n        /* \"#utility.yul\":4387:4394   */\n      0x00\n        /* \"#utility.yul\":4427:4449   */\n      0xffffffffffffffffffff\n        /* \"#utility.yul\":4420:4425   */\n      dup3\n        /* \"#utility.yul\":4416:4450   */\n      and\n        /* \"#utility.yul\":4405:4450   */\n      swap1\n      pop\n        /* \"#utility.yul\":4351:4456   */\n      swap2\n      swap1\n      pop\n      jump\t// out\n        /* \"#utility.yul\":4462:4642   */\n    tag_88:\n        /* \"#utility.yul\":4510:4587   */\n      0x4e487b7100000000000000000000000000000000000000000000000000000000\n        /* \"#utility.yul\":4507:4508   */\n      0x00\n        /* \"#utility.yul\":4500:4588   */\n      mstore\n        /* \"#utility.yul\":4607:4611   */\n      0x11\n        /* \"#utility.yul\":4604:4605   */\n      0x04\n        /* \"#utility.yul\":4597:4612   */\n      mstore\n        /* \"#utility.yul\":4631:4635   */\n      0x24\n        /* \"#utility.yul\":4628:4629   */\n      0x00\n        /* \"#utility.yul\":4621:4636   */\n      revert\n        /* \"#utility.yul\":4771:4888   */\n    tag_55:\n        /* \"#utility.yul\":4880:4881   */\n      0x00\n        /* \"#utility.yul\":4877:4878   */\n      dup1\n        /* \"#utility.yul\":4870:4882   */\n      revert\n        /* \"#utility.yul\":4894:5062   */\n    tag_70:\n        /* \"#utility.yul\":5034:5054   */\n      0x4469646e27742073656e6420656e6f7567680000000000000000000000000000\n        /* \"#utility.yul\":5030:5031   */\n      0x00\n        /* \"#utility.yul\":5022:5028   */\n      dup3\n        /* \"#utility.yul\":5018:5032   */\n      add\n        /* \"#utility.yul\":5011:5055   */\n      mstore\n        /* \"#utility.yul\":4894:5062   */\n      pop\n      jump\t// out\n        /* \"#utility.yul\":5068:5188   */\n    tag_43:\n        /* \"#utility.yul\":5140:5163   */\n      tag_105\n        /* \"#utility.yul\":5157:5162   */\n      dup2\n        /* \"#utility.yul\":5140:5163   */\n      tag_84\n      jump\t// in\n    tag_105:\n        /* \"#utility.yul\":5133:5138   */\n      dup2\n        /* \"#utility.yul\":5130:5164   */\n      eq\n        /* \"#utility.yul\":5120:5182   */\n      tag_106\n      jumpi\n        /* \"#utility.yul\":5178:5179   */\n      0x00\n        /* \"#utility.yul\":5175:5176   */\n      dup1\n        /* \"#utility.yul\":5168:5180   */\n      revert\n        /* \"#utility.yul\":5120:5182   */\n    tag_106:\n        /* \"#utility.yul\":5068:5188   */\n      pop\n      jump\t// out\n        /* \"#utility.yul\":5194:5316   */\n    tag_47:\n        /* \"#utility.yul\":5267:5291   */\n      tag_108\n        /* \"#utility.yul\":5285:5290   */\n      dup2\n        /* \"#utility.yul\":5267:5291   */\n      tag_74\n      jump\t// in\n    tag_108:\n        /* \"#utility.yul\":5260:5265   */\n      dup2\n        /* \"#utility.yul\":5257:5292   */\n      eq\n        /* \"#utility.yul\":5247:5310   */\n      tag_109\n      jumpi\n        /* \"#utility.yul\":5306:5307   */\n      0x00\n        /* \"#utility.yul\":5303:5304   */\n      dup1\n        /* \"#utility.yul\":5296:5308   */\n      revert\n        /* \"#utility.yul\":5247:5310   */\n    tag_109:\n        /* \"#utility.yul\":5194:5316   */\n      pop\n      jump\t// out\n        /* \"#utility.yul\":5322:5442   */\n    tag_51:\n        /* \"#utility.yul\":5394:5417   */\n      tag_111\n        /* \"#utility.yul\":5411:5416   */\n      dup2\n        /* \"#utility.yul\":5394:5417   */\n      tag_97\n      jump\t// in\n    tag_111:\n        /* \"#utility.yul\":5387:5392   */\n      dup2\n        /* \"#utility.yul\":5384:5418   */\n      eq\n        /* \"#utility.yul\":5374:5436   */\n      tag_112\n      jumpi\n        /* \"#utility.yul\":5432:5433   */\n      0x00\n        /* \"#utility.yul\":5429:5430   */\n      dup1\n        /* \"#utility.yul\":5422:5434   */\n      revert\n        /* \"#utility.yul\":5374:5436   */\n    tag_112:\n        /* \"#utility.yul\":5322:5442   */\n      pop\n      jump\t// out\n\n    auxdata: 0xa2646970667358221220bc459b53db6e59c689b1ea059d3beef8d11d0d5b2b0ecba5b092db38b730627164736f6c63430008070033\n}\n",
				"bytecode": {
					"linkReferences": {},
					"object": "6080604052603260005534801561001557600080fd5b506105f2806100256000396000f3fe60806040526004361061003f5760003560e01c806351b80e41146100445780638793ad551461006f57806398d5fdca1461009a578063b60d4288146100c5575b600080fd5b34801561005057600080fd5b506100596100cf565b60405161006691906103ad565b60405180910390f35b34801561007b57600080fd5b506100846100d5565b60405161009191906103ad565b60405180910390f35b3480156100a657600080fd5b506100af610173565b6040516100bc91906103ad565b60405180910390f35b6100cd61022e565b005b60005481565b600080735f4ec3df9cbd43714fe2740f5e3616155c5b841990508073ffffffffffffffffffffffffffffffffffffffff166354fd4d506040518163ffffffff1660e01b815260040160206040518083038186803b15801561013557600080fd5b505afa158015610149573d6000803e3d6000fd5b505050506040513d601f19601f8201168201806040525081019061016d91906102b3565b91505090565b600080735f4ec3df9cbd43714fe2740f5e3616155c5b8419905060008173ffffffffffffffffffffffffffffffffffffffff1663feaf968c6040518163ffffffff1660e01b815260040160a06040518083038186803b1580156101d557600080fd5b505afa1580156101e9573d6000803e3d6000fd5b505050506040513d601f19601f8201168201806040525081019061020d91906102e0565b505050915050670de0b6b3a76400008161022791906103d9565b9250505090565b6000543411610272576040517f08c379a00000000000000000000000000000000000000000000000000000000081526004016102699061038d565b60405180910390fd5b565b60008151905061028381610577565b92915050565b6000815190506102988161058e565b92915050565b6000815190506102ad816105a5565b92915050565b6000602082840312156102c9576102c8610549565b5b60006102d784828501610289565b91505092915050565b600080600080600060a086880312156102fc576102fb610549565b5b600061030a8882890161029e565b955050602061031b88828901610274565b945050604061032c88828901610289565b935050606061033d88828901610289565b925050608061034e8882890161029e565b9150509295509295909350565b60006103686012836103c8565b91506103738261054e565b602082019050919050565b610387816104fa565b82525050565b600060208201905081810360008301526103a68161035b565b9050919050565b60006020820190506103c2600083018461037e565b92915050565b600082825260208201905092915050565b60006103e4826104f0565b91506103ef836104f0565b9250827f7fffffffffffffffffffffffffffffffffffffffffffffffffffffffffffffff048211600084136000841316161561042e5761042d61051a565b5b817f8000000000000000000000000000000000000000000000000000000000000000058312600084126000841316161561046b5761046a61051a565b5b827f800000000000000000000000000000000000000000000000000000000000000005821260008413600084121616156104a8576104a761051a565b5b827f7fffffffffffffffffffffffffffffffffffffffffffffffffffffffffffffff05821260008412600084121616156104e5576104e461051a565b5b828202905092915050565b6000819050919050565b6000819050919050565b600069ffffffffffffffffffff82169050919050565b7f4e487b7100000000000000000000000000000000000000000000000000000000600052601160045260246000fd5b600080fd5b7f4469646e27742073656e6420656e6f7567680000000000000000000000000000600082015250565b610580816104f0565b811461058b57600080fd5b50565b610597816104fa565b81146105a257600080fd5b50565b6105ae81610504565b81146105b957600080fd5b5056fea2646970667358221220bc459b53db6e59c689b1ea059d3beef8d11d0d5b2b0ecba5b092db38b730627164736f6c63430008070033",
					"opcodes": "PUSH1 0x80 PUSH1 0x40 MSTORE PUSH1 0x32 PUSH1 0x0 SSTORE CALLVALUE DUP1 ISZERO PUSH2 0x15 JUMPI PUSH1 0x0 DUP1 REVERT JUMPDEST POP PUSH2 0x5F2 DUP1 PUSH2 0x25 PUSH1 0x0 CODECOPY PUSH1 0x0 RETURN INVALID PUSH1 0x80 PUSH1 0x40 MSTORE PUSH1 0x4 CALLDATASIZE LT PUSH2 0x3F JUMPI PUSH1 0x0 CALLDATALOAD PUSH1 0xE0 SHR DUP1 PUSH4 0x51B80E41 EQ PUSH2 0x44 JUMPI DUP1 PUSH4 0x8793AD55 EQ PUSH2 0x6F JUMPI DUP1 PUSH4 0x98D5FDCA EQ PUSH2 0x9A JUMPI DUP1 PUSH4 0xB60D4288 EQ PUSH2 0xC5 JUMPI JUMPDEST PUSH1 0x0 DUP1 REVERT JUMPDEST CALLVALUE DUP1 ISZERO PUSH2 0x50 JUMPI PUSH1 0x0 DUP1 REVERT JUMPDEST POP PUSH2 0x59 PUSH2 0xCF JUMP JUMPDEST PUSH1 0x40 MLOAD PUSH2 0x66 SWAP2 SWAP1 PUSH2 0x3AD JUMP JUMPDEST PUSH1 0x40 MLOAD DUP1 SWAP2 SUB SWAP1 RETURN JUMPDEST CALLVALUE DUP1 ISZERO PUSH2 0x7B JUMPI PUSH1 0x0 DUP1 REVERT JUMPDEST POP PUSH2 0x84 PUSH2 0xD5 JUMP JUMPDEST PUSH1 0x40 MLOAD PUSH2 0x91 SWAP2 SWAP1 PUSH2 0x3AD JUMP JUMPDEST PUSH1 0x40 MLOAD DUP1 SWAP2 SUB SWAP1 RETURN JUMPDEST CALLVALUE DUP1 ISZERO PUSH2 0xA6 JUMPI PUSH1 0x0 DUP1 REVERT JUMPDEST POP PUSH2 0xAF PUSH2 0x173 JUMP JUMPDEST PUSH1 0x40 MLOAD PUSH2 0xBC SWAP2 SWAP1 PUSH2 0x3AD JUMP JUMPDEST PUSH1 0x40 MLOAD DUP1 SWAP2 SUB SWAP1 RETURN JUMPDEST PUSH2 0xCD PUSH2 0x22E JUMP JUMPDEST STOP JUMPDEST PUSH1 0x0 SLOAD DUP2 JUMP JUMPDEST PUSH1 0x0 DUP1 PUSH20 0x5F4EC3DF9CBD43714FE2740F5E3616155C5B8419 SWAP1 POP DUP1 PUSH20 0xFFFFFFFFFFFFFFFFFFFFFFFFFFFFFFFFFFFFFFFF AND PUSH4 0x54FD4D50 PUSH1 0x40 MLOAD DUP2 PUSH4 0xFFFFFFFF AND PUSH1 0xE0 SHL DUP2 MSTORE PUSH1 0x4 ADD PUSH1 0x20 PUSH1 0x40 MLOAD DUP1 DUP4 SUB DUP2 DUP7 DUP1 EXTCODESIZE ISZERO DUP1 ISZERO PUSH2 0x135 JUMPI PUSH1 0x0 DUP1 REVERT JUMPDEST POP GAS STATICCALL ISZERO DUP1 ISZERO PUSH2 0x149 JUMPI RETURNDATASIZE PUSH1 0x0 DUP1 RETURNDATACOPY RETURNDATASIZE PUSH1 0x0 REVERT JUMPDEST POP POP POP POP PUSH1 0x40 MLOAD RETURNDATASIZE PUSH1 0x1F NOT PUSH1 0x1F DUP3 ADD AND DUP3 ADD DUP1 PUSH1 0x40 MSTORE POP DUP2 ADD SWAP1 PUSH2 0x16D SWAP2 SWAP1 PUSH2 0x2B3 JUMP JUMPDEST SWAP2 POP POP SWAP1 JUMP JUMPDEST PUSH1 0x0 DUP1 PUSH20 0x5F4EC3DF9CBD43714FE2740F5E3616155C5B8419 SWAP1 POP PUSH1 0x0 DUP2 PUSH20 0xFFFFFFFFFFFFFFFFFFFFFFFFFFFFFFFFFFFFFFFF AND PUSH4 0xFEAF968C PUSH1 0x40 MLOAD DUP2 PUSH4 0xFFFFFFFF AND PUSH1 0xE0 SHL DUP2 MSTORE PUSH1 0x4 ADD PUSH1 0xA0 PUSH1 0x40 MLOAD DUP1 DUP4 SUB DUP2 DUP7 DUP1 EXTCODESIZE ISZERO DUP1 ISZERO PUSH2 0x1D5 JUMPI PUSH1 0x0 DUP1 REVERT JUMPDEST POP GAS STATICCALL ISZERO DUP1 ISZERO PUSH2 0x1E9 JUMPI RETURNDATASIZE PUSH1 0x0 DUP1 RETURNDATACOPY RETURNDATASIZE PUSH1 0x0 REVERT JUMPDEST POP POP POP POP PUSH1 0x40 MLOAD RETURNDATASIZE PUSH1 0x1F NOT PUSH1 0x1F DUP3 ADD AND DUP3 ADD DUP1 PUSH1 0x40 MSTORE POP DUP2 ADD SWAP1 PUSH2 0x20D SWAP2 SWAP1 PUSH2 0x2E0 JUMP JUMPDEST POP POP POP SWAP2 POP POP PUSH8 0xDE0B6B3A7640000 DUP2 PUSH2 0x227 SWAP2 SWAP1 PUSH2 0x3D9 JUMP JUMPDEST SWAP3 POP POP POP SWAP1 JUMP JUMPDEST PUSH1 0x0 SLOAD CALLVALUE GT PUSH2 0x272 JUMPI PUSH1 0x40 MLOAD PUSH32 0x8C379A000000000000000000000000000000000000000000000000000000000 DUP2 MSTORE PUSH1 0x4 ADD PUSH2 0x269 SWAP1 PUSH2 0x38D JUMP JUMPDEST PUSH1 0x40 MLOAD DUP1 SWAP2 SUB SWAP1 REVERT JUMPDEST JUMP JUMPDEST PUSH1 0x0 DUP2 MLOAD SWAP1 POP PUSH2 0x283 DUP2 PUSH2 0x577 JUMP JUMPDEST SWAP3 SWAP2 POP POP JUMP JUMPDEST PUSH1 0x0 DUP2 MLOAD SWAP1 POP PUSH2 0x298 DUP2 PUSH2 0x58E JUMP JUMPDEST SWAP3 SWAP2 POP POP JUMP JUMPDEST PUSH1 0x0 DUP2 MLOAD SWAP1 POP PUSH2 0x2AD DUP2 PUSH2 0x5A5 JUMP JUMPDEST SWAP3 SWAP2 POP POP JUMP JUMPDEST PUSH1 0x0 PUSH1 0x20 DUP3 DUP5 SUB SLT ISZERO PUSH2 0x2C9 JUMPI PUSH2 0x2C8 PUSH2 0x549 JUMP JUMPDEST JUMPDEST PUSH1 0x0 PUSH2 0x2D7 DUP5 DUP3 DUP6 ADD PUSH2 0x289 JUMP JUMPDEST SWAP2 POP POP SWAP3 SWAP2 POP POP JUMP JUMPDEST PUSH1 0x0 DUP1 PUSH1 0x0 DUP1 PUSH1 0x0 PUSH1 0xA0 DUP7 DUP9 SUB SLT ISZERO PUSH2 0x2FC JUMPI PUSH2 0x2FB PUSH2 0x549 JUMP JUMPDEST JUMPDEST PUSH1 0x0 PUSH2 0x30A DUP9 DUP3 DUP10 ADD PUSH2 0x29E JUMP JUMPDEST SWAP6 POP POP PUSH1 0x20 PUSH2 0x31B DUP9 DUP3 DUP10 ADD PUSH2 0x274 JUMP JUMPDEST SWAP5 POP POP PUSH1 0x40 PUSH2 0x32C DUP9 DUP3 DUP10 ADD PUSH2 0x289 JUMP JUMPDEST SWAP4 POP POP PUSH1 0x60 PUSH2 0x33D DUP9 DUP3 DUP10 ADD PUSH2 0x289 JUMP JUMPDEST SWAP3 POP POP PUSH1 0x80 PUSH2 0x34E DUP9 DUP3 DUP10 ADD PUSH2 0x29E JUMP JUMPDEST SWAP2 POP POP SWAP3 SWAP6 POP SWAP3 SWAP6 SWAP1 SWAP4 POP JUMP JUMPDEST PUSH1 0x0 PUSH2 0x368 PUSH1 0x12 DUP4 PUSH2 0x3C8 JUMP JUMPDEST SWAP2 POP PUSH2 0x373 DUP3 PUSH2 0x54E JUMP JUMPDEST PUSH1 0x20 DUP3 ADD SWAP1 POP SWAP2 SWAP1 POP JUMP JUMPDEST PUSH2 0x387 DUP2 PUSH2 0x4FA JUMP JUMPDEST DUP3 MSTORE POP POP JUMP JUMPDEST PUSH1 0x0 PUSH1 0x20 DUP3 ADD SWAP1 POP DUP2 DUP2 SUB PUSH1 0x0 DUP4 ADD MSTORE PUSH2 0x3A6 DUP2 PUSH2 0x35B JUMP JUMPDEST SWAP1 POP SWAP2 SWAP1 POP JUMP JUMPDEST PUSH1 0x0 PUSH1 0x20 DUP3 ADD SWAP1 POP PUSH2 0x3C2 PUSH1 0x0 DUP4 ADD DUP5 PUSH2 0x37E JUMP JUMPDEST SWAP3 SWAP2 POP POP JUMP JUMPDEST PUSH1 0x0 DUP3 DUP3 MSTORE PUSH1 0x20 DUP3 ADD SWAP1 POP SWAP3 SWAP2 POP POP JUMP JUMPDEST PUSH1 0x0 PUSH2 0x3E4 DUP3 PUSH2 0x4F0 JUMP JUMPDEST SWAP2 POP PUSH2 0x3EF DUP4 PUSH2 0x4F0 JUMP JUMPDEST SWAP3 POP DUP3 PUSH32 0x7FFFFFFFFFFFFFFFFFFFFFFFFFFFFFFFFFFFFFFFFFFFFFFFFFFFFFFFFFFFFFFF DIV DUP3 GT PUSH1 0x0 DUP5 SGT PUSH1 0x0 DUP5 SGT AND AND ISZERO PUSH2 0x42E JUMPI PUSH2 0x42D PUSH2 0x51A JUMP JUMPDEST JUMPDEST DUP2 PUSH32 0x8000000000000000000000000000000000000000000000000000000000000000 SDIV DUP4 SLT PUSH1 0x0 DUP5 SLT PUSH1 0x0 DUP5 SGT AND AND ISZERO PUSH2 0x46B JUMPI PUSH2 0x46A PUSH2 0x51A JUMP JUMPDEST JUMPDEST DUP3 PUSH32 0x8000000000000000000000000000000000000000000000000000000000000000 SDIV DUP3 SLT PUSH1 0x0 DUP5 SGT PUSH1 0x0 DUP5 SLT AND AND ISZERO PUSH2 0x4A8 JUMPI PUSH2 0x4A7 PUSH2 0x51A JUMP JUMPDEST JUMPDEST DUP3 PUSH32 0x7FFFFFFFFFFFFFFFFFFFFFFFFFFFFFFFFFFFFFFFFFFFFFFFFFFFFFFFFFFFFFFF SDIV DUP3 SLT PUSH1 0x0 DUP5 SLT PUSH1 0x0 DUP5 SLT AND AND ISZERO PUSH2 0x4E5 JUMPI PUSH2 0x4E4 PUSH2 0x51A JUMP JUMPDEST JUMPDEST DUP3 DUP3 MUL SWAP1 POP SWAP3 SWAP2 POP POP JUMP JUMPDEST PUSH1 0x0 DUP2 SWAP1 POP SWAP2 SWAP1 POP JUMP JUMPDEST PUSH1 0x0 DUP2 SWAP1 POP SWAP2 SWAP1 POP JUMP JUMPDEST PUSH1 0x0 PUSH10 0xFFFFFFFFFFFFFFFFFFFF DUP3 AND SWAP1 POP SWAP2 SWAP1 POP JUMP JUMPDEST PUSH32 0x4E487B7100000000000000000000000000000000000000000000000000000000 PUSH1 0x0 MSTORE PUSH1 0x11 PUSH1 0x4 MSTORE PUSH1 0x24 PUSH1 0x0 REVERT JUMPDEST PUSH1 0x0 DUP1 REVERT JUMPDEST PUSH32 0x4469646E27742073656E6420656E6F7567680000000000000000000000000000 PUSH1 0x0 DUP3 ADD MSTORE POP JUMP JUMPDEST PUSH2 0x580 DUP2 PUSH2 0x4F0 JUMP JUMPDEST DUP2 EQ PUSH2 0x58B JUMPI PUSH1 0x0 DUP1 REVERT JUMPDEST POP JUMP JUMPDEST PUSH2 0x597 DUP2 PUSH2 0x4FA JUMP JUMPDEST DUP2 EQ PUSH2 0x5A2 JUMPI PUSH1 0x0 DUP1 REVERT JUMPDEST POP JUMP JUMPDEST PUSH2 0x5AE DUP2 PUSH2 0x504 JUMP JUMPDEST DUP2 EQ PUSH2 0x5B9 JUMPI PUSH1 0x0 DUP1 REVERT JUMPDEST POP JUMP INVALID LOG2 PUSH5 0x6970667358 0x22 SLT KECCAK256 0xBC GASLIMIT SWAP12 MSTORE8 0xDB PUSH15 0x59C689B1EA059D3BEEF8D11D0D5B2B 0xE 0xCB 0xA5 0xB0 SWAP3 0xDB CODESIZE 0xB7 ADDRESS PUSH3 0x716473 PUSH16 0x6C634300080700330000000000000000 "
				},
				"gasEstimates": {
					"creation": {
						"codeDepositCost": "304400",
						"executionCost": "22449",
						"totalCost": "326849"
					},
					"external": {
						"fund()": "2575",
						"getPrice()": "infinite",
						"getVer()": "infinite",
						"minUsd()": "2407"
					}
				},
				"methodIdentifiers": {
					"fund()": "b60d4288",
					"getPrice()": "98d5fdca",
					"getVer()": "8793ad55",
					"minUsd()": "51b80e41"
				}
			},
			"storageLayout": {
				"storage": [
					{
						"astId": 51,
						"contract": "contracts/FundMe.sol:FundMe",
						"label": "minUsd",
						"offset": 0,
						"slot": "0",
						"type": "t_uint256"
					}
				],
				"types": {
					"t_uint256": {
						"encoding": "inplace",
						"label": "uint256",
						"numberOfBytes": "32"
					}
				}
			},
			"userdoc": {
				"kind": "user",
				"methods": {},
				"version": 1
			}
		}
	}
}