{
	"contracts/FundMe.sol": {
		"FundMe": {
			"abi": [
				{
					"inputs": [
						{
							"internalType": "address",
							"name": "",
							"type": "address"
						}
					],
					"name": "addressToAmtFunded",
					"outputs": [
						{
							"internalType": "uint256",
							"name": "",
							"type": "uint256"
						}
					],
					"stateMutability": "view",
					"type": "function"
				},
				{
					"inputs": [],
					"name": "fund",
					"outputs": [],
					"stateMutability": "payable",
					"type": "function"
				},
				{
					"inputs": [
						{
							"internalType": "uint256",
							"name": "",
							"type": "uint256"
						}
					],
					"name": "funders",
					"outputs": [
						{
							"internalType": "address",
							"name": "",
							"type": "address"
						}
					],
					"stateMutability": "view",
					"type": "function"
				},
				{
					"inputs": [],
					"name": "minUsd",
					"outputs": [
						{
							"internalType": "uint256",
							"name": "",
							"type": "uint256"
						}
					],
					"stateMutability": "view",
					"type": "function"
				},
				{
					"inputs": [],
					"name": "withdraw",
					"outputs": [],
					"stateMutability": "nonpayable",
					"type": "function"
				}
			],
			"devdoc": {
				"kind": "dev",
				"methods": {},
				"version": 1
			},
			"evm": {
				"assembly": "    /* \"contracts/FundMe.sol\":277:2309  contract FundMe {\r... */\n  mstore(0x40, 0x80)\n    /* \"contracts/FundMe.sol\":363:372  50 * 1e18 */\n  0x02b5e3af16b1880000\n    /* \"contracts/FundMe.sol\":339:372  uint256 public minUsd = 50 * 1e18 */\n  0x00\n  sstore\n    /* \"contracts/FundMe.sol\":277:2309  contract FundMe {\r... */\n  callvalue\n  dup1\n  iszero\n  tag_1\n  jumpi\n  0x00\n  dup1\n  revert\ntag_1:\n  pop\n  dataSize(sub_0)\n  dup1\n  dataOffset(sub_0)\n  0x00\n  codecopy\n  0x00\n  return\nstop\n\nsub_0: assembly {\n        /* \"contracts/FundMe.sol\":277:2309  contract FundMe {\r... */\n      mstore(0x40, 0x80)\n      jumpi(tag_1, lt(calldatasize, 0x04))\n      shr(0xe0, calldataload(0x00))\n      dup1\n      0x2e715429\n      eq\n      tag_2\n      jumpi\n      dup1\n      0x3ccfd60b\n      eq\n      tag_3\n      jumpi\n      dup1\n      0x51b80e41\n      eq\n      tag_4\n      jumpi\n      dup1\n      0xb60d4288\n      eq\n      tag_5\n      jumpi\n      dup1\n      0xdc0d3dff\n      eq\n      tag_6\n      jumpi\n    tag_1:\n      0x00\n      dup1\n      revert\n        /* \"contracts/FundMe.sol\":413:467  mapping(address => uint256)  public addressToAmtFunded */\n    tag_2:\n      callvalue\n      dup1\n      iszero\n      tag_7\n      jumpi\n      0x00\n      dup1\n      revert\n    tag_7:\n      pop\n      tag_8\n      0x04\n      dup1\n      calldatasize\n      sub\n      dup2\n      add\n      swap1\n      tag_9\n      swap2\n      swap1\n      tag_10\n      jump\t// in\n    tag_9:\n      tag_11\n      jump\t// in\n    tag_8:\n      mload(0x40)\n      tag_12\n      swap2\n      swap1\n      tag_13\n      jump\t// in\n    tag_12:\n      mload(0x40)\n      dup1\n      swap2\n      sub\n      swap1\n      return\n        /* \"contracts/FundMe.sol\":1066:2306  function withdraw() public{\r... */\n    tag_3:\n      callvalue\n      dup1\n      iszero\n      tag_14\n      jumpi\n      0x00\n      dup1\n      revert\n    tag_14:\n      pop\n      tag_15\n      tag_16\n      jump\t// in\n    tag_15:\n      stop\n        /* \"contracts/FundMe.sol\":339:372  uint256 public minUsd = 50 * 1e18 */\n    tag_4:\n      callvalue\n      dup1\n      iszero\n      tag_17\n      jumpi\n      0x00\n      dup1\n      revert\n    tag_17:\n      pop\n      tag_18\n      tag_19\n      jump\t// in\n    tag_18:\n      mload(0x40)\n      tag_20\n      swap2\n      swap1\n      tag_13\n      jump\t// in\n    tag_20:\n      mload(0x40)\n      dup1\n      swap2\n      sub\n      swap1\n      return\n        /* \"contracts/FundMe.sol\":476:1048  function fund() public payable{\r... */\n    tag_5:\n      tag_21\n      tag_22\n      jump\t// in\n    tag_21:\n      stop\n        /* \"contracts/FundMe.sol\":381:406  address [] public funders */\n    tag_6:\n      callvalue\n      dup1\n      iszero\n      tag_23\n      jumpi\n      0x00\n      dup1\n      revert\n    tag_23:\n      pop\n      tag_24\n      0x04\n      dup1\n      calldatasize\n      sub\n      dup2\n      add\n      swap1\n      tag_25\n      swap2\n      swap1\n      tag_26\n      jump\t// in\n    tag_25:\n      tag_27\n      jump\t// in\n    tag_24:\n      mload(0x40)\n      tag_28\n      swap2\n      swap1\n      tag_29\n      jump\t// in\n    tag_28:\n      mload(0x40)\n      dup1\n      swap2\n      sub\n      swap1\n      return\n        /* \"contracts/FundMe.sol\":413:467  mapping(address => uint256)  public addressToAmtFunded */\n    tag_11:\n      mstore(0x20, 0x02)\n      dup1\n      0x00\n      mstore\n      keccak256(0x00, 0x40)\n      0x00\n      swap2\n      pop\n      swap1\n      pop\n      sload\n      dup2\n      jump\t// out\n        /* \"contracts/FundMe.sol\":1066:2306  function withdraw() public{\r... */\n    tag_16:\n        /* \"contracts/FundMe.sol\":1164:1183  uint256 funderIndex */\n      0x00\n        /* \"contracts/FundMe.sol\":1160:1368  for(uint256 funderIndex = 0;funderIndex<=funders.length;funderIndex++){\r... */\n    tag_31:\n        /* \"contracts/FundMe.sol\":1201:1208  funders */\n      0x01\n        /* \"contracts/FundMe.sol\":1201:1215  funders.length */\n      dup1\n      sload\n      swap1\n      pop\n        /* \"contracts/FundMe.sol\":1188:1199  funderIndex */\n      dup2\n        /* \"contracts/FundMe.sol\":1188:1215  funderIndex<=funders.length */\n      gt\n        /* \"contracts/FundMe.sol\":1160:1368  for(uint256 funderIndex = 0;funderIndex<=funders.length;funderIndex++){\r... */\n      tag_32\n      jumpi\n        /* \"contracts/FundMe.sol\":1265:1279  address funder */\n      0x00\n        /* \"contracts/FundMe.sol\":1282:1289  funders */\n      0x01\n        /* \"contracts/FundMe.sol\":1290:1301  funderIndex */\n      dup3\n        /* \"contracts/FundMe.sol\":1282:1302  funders[funderIndex] */\n      dup2\n      sload\n      dup2\n      lt\n      tag_34\n      jumpi\n      mstore(0x00, 0x4e487b7100000000000000000000000000000000000000000000000000000000)\n      mstore(0x04, 0x32)\n      revert(0x00, 0x24)\n    tag_34:\n      swap1\n      0x00\n      mstore\n      keccak256(0x00, 0x20)\n      add\n      0x00\n      swap1\n      sload\n      swap1\n      0x0100\n      exp\n      swap1\n      div\n      0xffffffffffffffffffffffffffffffffffffffff\n      and\n        /* \"contracts/FundMe.sol\":1265:1302  address funder = funders[funderIndex] */\n      swap1\n      pop\n        /* \"contracts/FundMe.sol\":1347:1348  0 */\n      0x00\n        /* \"contracts/FundMe.sol\":1318:1336  addressToAmtFunded */\n      0x02\n        /* \"contracts/FundMe.sol\":1318:1344  addressToAmtFunded[funder] */\n      0x00\n        /* \"contracts/FundMe.sol\":1337:1343  funder */\n      dup4\n        /* \"contracts/FundMe.sol\":1318:1344  addressToAmtFunded[funder] */\n      0xffffffffffffffffffffffffffffffffffffffff\n      and\n      0xffffffffffffffffffffffffffffffffffffffff\n      and\n      dup2\n      mstore\n      0x20\n      add\n      swap1\n      dup2\n      mstore\n      0x20\n      add\n      0x00\n      keccak256\n        /* \"contracts/FundMe.sol\":1318:1348  addressToAmtFunded[funder] = 0 */\n      dup2\n      swap1\n      sstore\n      pop\n        /* \"contracts/FundMe.sol\":1160:1368  for(uint256 funderIndex = 0;funderIndex<=funders.length;funderIndex++){\r... */\n      pop\n        /* \"contracts/FundMe.sol\":1216:1229  funderIndex++ */\n      dup1\n      dup1\n      tag_36\n      swap1\n      tag_37\n      jump\t// in\n    tag_36:\n      swap2\n      pop\n      pop\n        /* \"contracts/FundMe.sol\":1160:1368  for(uint256 funderIndex = 0;funderIndex<=funders.length;funderIndex++){\r... */\n      jump(tag_31)\n    tag_32:\n      pop\n        /* \"contracts/FundMe.sol\":1429:1430  0 */\n      0x00\n        /* \"contracts/FundMe.sol\":1415:1431  new address[](0) */\n      0xffffffffffffffff\n      dup2\n      gt\n      iszero\n      tag_38\n      jumpi\n      mstore(0x00, 0x4e487b7100000000000000000000000000000000000000000000000000000000)\n      mstore(0x04, 0x41)\n      revert(0x00, 0x24)\n    tag_38:\n      mload(0x40)\n      swap1\n      dup1\n      dup3\n      mstore\n      dup1\n      0x20\n      mul\n      0x20\n      add\n      dup3\n      add\n      0x40\n      mstore\n      dup1\n      iszero\n      tag_39\n      jumpi\n      dup2\n      0x20\n      add\n      0x20\n      dup3\n      mul\n      dup1\n      calldatasize\n      dup4\n      calldatacopy\n      dup1\n      dup3\n      add\n      swap2\n      pop\n      pop\n      swap1\n      pop\n    tag_39:\n      pop\n        /* \"contracts/FundMe.sol\":1405:1412  funders */\n      0x01\n        /* \"contracts/FundMe.sol\":1405:1431  funders = new address[](0) */\n      swap1\n      dup1\n      mload\n      swap1\n      0x20\n      add\n      swap1\n      tag_40\n      swap3\n      swap2\n      swap1\n      tag_41\n      jump\t// in\n    tag_40:\n      pop\n        /* \"contracts/FundMe.sol\":2173:2189  bool callSuccess */\n      0x00\n        /* \"contracts/FundMe.sol\":2203:2213  msg.sender */\n      caller\n        /* \"contracts/FundMe.sol\":2195:2219  payable(msg.sender).call */\n      0xffffffffffffffffffffffffffffffffffffffff\n      and\n        /* \"contracts/FundMe.sol\":2227:2248  address(this).balance */\n      selfbalance\n        /* \"contracts/FundMe.sol\":2195:2253  payable(msg.sender).call{value: address(this).balance}(\"\") */\n      mload(0x40)\n      tag_42\n      swap1\n      tag_43\n      jump\t// in\n    tag_42:\n      0x00\n      mload(0x40)\n      dup1\n      dup4\n      sub\n      dup2\n      dup6\n      dup8\n      gas\n      call\n      swap3\n      pop\n      pop\n      pop\n      returndatasize\n      dup1\n      0x00\n      dup2\n      eq\n      tag_46\n      jumpi\n      mload(0x40)\n      swap2\n      pop\n      and(add(returndatasize, 0x3f), not(0x1f))\n      dup3\n      add\n      0x40\n      mstore\n      returndatasize\n      dup3\n      mstore\n      returndatasize\n      0x00\n      0x20\n      dup5\n      add\n      returndatacopy\n      jump(tag_45)\n    tag_46:\n      0x60\n      swap2\n      pop\n    tag_45:\n      pop\n        /* \"contracts/FundMe.sol\":2172:2253  (bool callSuccess, ) = payable(msg.sender).call{value: address(this).balance}(\"\") */\n      pop\n      swap1\n      pop\n        /* \"contracts/FundMe.sol\":2272:2283  callSuccess */\n      dup1\n        /* \"contracts/FundMe.sol\":2264:2298  require(callSuccess,\"Call failed\") */\n      tag_47\n      jumpi\n      mload(0x40)\n      0x08c379a000000000000000000000000000000000000000000000000000000000\n      dup2\n      mstore\n      0x04\n      add\n      tag_48\n      swap1\n      tag_49\n      jump\t// in\n    tag_48:\n      mload(0x40)\n      dup1\n      swap2\n      sub\n      swap1\n      revert\n    tag_47:\n        /* \"contracts/FundMe.sol\":1066:2306  function withdraw() public{\r... */\n      pop\n      jump\t// out\n        /* \"contracts/FundMe.sol\":339:372  uint256 public minUsd = 50 * 1e18 */\n    tag_19:\n      sload(0x00)\n      dup2\n      jump\t// out\n        /* \"contracts/FundMe.sol\":476:1048  function fund() public payable{\r... */\n    tag_22:\n        /* \"contracts/FundMe.sol\":780:786  minUsd */\n      sload(0x00)\n        /* \"contracts/FundMe.sol\":747:776  msg.value.getConversionRate() */\n      tag_51\n        /* \"contracts/FundMe.sol\":747:756  msg.value */\n      callvalue\n        /* \"contracts/FundMe.sol\":747:774  msg.value.getConversionRate */\n      tag_52\n        /* \"contracts/FundMe.sol\":747:776  msg.value.getConversionRate() */\n      jump\t// in\n    tag_51:\n        /* \"contracts/FundMe.sol\":747:786  msg.value.getConversionRate() >= minUsd */\n      lt\n      iszero\n        /* \"contracts/FundMe.sol\":739:809  require(msg.value.getConversionRate() >= minUsd ,\"Didn't send enough\") */\n      tag_53\n      jumpi\n      mload(0x40)\n      0x08c379a000000000000000000000000000000000000000000000000000000000\n      dup2\n      mstore\n      0x04\n      add\n      tag_54\n      swap1\n      tag_55\n      jump\t// in\n    tag_54:\n      mload(0x40)\n      dup1\n      swap2\n      sub\n      swap1\n      revert\n    tag_53:\n        /* \"contracts/FundMe.sol\":963:970  funders */\n      0x01\n        /* \"contracts/FundMe.sol\":976:986  msg.sender */\n      caller\n        /* \"contracts/FundMe.sol\":963:987  funders.push(msg.sender) */\n      swap1\n      dup1\n      0x01\n      dup2\n      sload\n      add\n      dup1\n      dup3\n      sstore\n      dup1\n      swap2\n      pop\n      pop\n      0x01\n      swap1\n      sub\n      swap1\n      0x00\n      mstore\n      keccak256(0x00, 0x20)\n      add\n      0x00\n      swap1\n      swap2\n      swap1\n      swap2\n      swap1\n      swap2\n      0x0100\n      exp\n      dup2\n      sload\n      dup2\n      0xffffffffffffffffffffffffffffffffffffffff\n      mul\n      not\n      and\n      swap1\n      dup4\n      0xffffffffffffffffffffffffffffffffffffffff\n      and\n      mul\n      or\n      swap1\n      sstore\n      pop\n        /* \"contracts/FundMe.sol\":1031:1040  msg.value */\n      callvalue\n        /* \"contracts/FundMe.sol\":998:1016  addressToAmtFunded */\n      0x02\n        /* \"contracts/FundMe.sol\":998:1028  addressToAmtFunded[msg.sender] */\n      0x00\n        /* \"contracts/FundMe.sol\":1017:1027  msg.sender */\n      caller\n        /* \"contracts/FundMe.sol\":998:1028  addressToAmtFunded[msg.sender] */\n      0xffffffffffffffffffffffffffffffffffffffff\n      and\n      0xffffffffffffffffffffffffffffffffffffffff\n      and\n      dup2\n      mstore\n      0x20\n      add\n      swap1\n      dup2\n      mstore\n      0x20\n      add\n      0x00\n      keccak256\n        /* \"contracts/FundMe.sol\":998:1040  addressToAmtFunded[msg.sender] = msg.value */\n      dup2\n      swap1\n      sstore\n      pop\n        /* \"contracts/FundMe.sol\":476:1048  function fund() public payable{\r... */\n      jump\t// out\n        /* \"contracts/FundMe.sol\":381:406  address [] public funders */\n    tag_27:\n      0x01\n      dup2\n      dup2\n      sload\n      dup2\n      lt\n      tag_57\n      jumpi\n      0x00\n      dup1\n      revert\n    tag_57:\n      swap1\n      0x00\n      mstore\n      keccak256(0x00, 0x20)\n      add\n      0x00\n      swap2\n      pop\n      sload\n      swap1\n      0x0100\n      exp\n      swap1\n      div\n      0xffffffffffffffffffffffffffffffffffffffff\n      and\n      dup2\n      jump\t// out\n        /* \"contracts/PriceConverter.sol\":827:1141  function getConversionRate(uint256 ethamt) internal view returns (uint256){\r... */\n    tag_52:\n        /* \"contracts/PriceConverter.sol\":893:900  uint256 */\n      0x00\n        /* \"contracts/PriceConverter.sol\":912:928  uint256 ethPrice */\n      dup1\n        /* \"contracts/PriceConverter.sol\":931:941  getPrice() */\n      tag_60\n        /* \"contracts/PriceConverter.sol\":931:939  getPrice */\n      tag_61\n        /* \"contracts/PriceConverter.sol\":931:941  getPrice() */\n      jump\t// in\n    tag_60:\n        /* \"contracts/PriceConverter.sol\":912:941  uint256 ethPrice = getPrice() */\n      swap1\n      pop\n        /* \"contracts/PriceConverter.sol\":1040:1059  uint256 ethAmtInUsd */\n      0x00\n        /* \"contracts/PriceConverter.sol\":1082:1086  1e18 */\n      0x0de0b6b3a7640000\n        /* \"contracts/PriceConverter.sol\":1072:1078  ethamt */\n      dup5\n        /* \"contracts/PriceConverter.sol\":1063:1071  ethPrice */\n      dup4\n        /* \"contracts/PriceConverter.sol\":1063:1078  ethPrice*ethamt */\n      tag_62\n      swap2\n      swap1\n      tag_63\n      jump\t// in\n    tag_62:\n        /* \"contracts/PriceConverter.sol\":1062:1086  (ethPrice*ethamt) / 1e18 */\n      tag_64\n      swap2\n      swap1\n      tag_65\n      jump\t// in\n    tag_64:\n        /* \"contracts/PriceConverter.sol\":1040:1086  uint256 ethAmtInUsd = (ethPrice*ethamt) / 1e18 */\n      swap1\n      pop\n        /* \"contracts/PriceConverter.sol\":1121:1132  ethAmtInUsd */\n      dup1\n        /* \"contracts/PriceConverter.sol\":1114:1132  return ethAmtInUsd */\n      swap3\n      pop\n      pop\n      pop\n        /* \"contracts/PriceConverter.sol\":827:1141  function getConversionRate(uint256 ethamt) internal view returns (uint256){\r... */\n      swap2\n      swap1\n      pop\n      jump\t// out\n        /* \"contracts/PriceConverter.sol\":184:608  function getPrice() internal view returns(uint256){\r... */\n    tag_61:\n        /* \"contracts/PriceConverter.sol\":226:233  uint256 */\n      0x00\n        /* \"contracts/PriceConverter.sol\":324:355  AggregatorV3Interface priceFeed */\n      dup1\n        /* \"contracts/PriceConverter.sol\":380:422  0x8A753747A1Fa494EC906cE90E9f37563A8AF630e */\n      0x8a753747a1fa494ec906ce90e9f37563a8af630e\n        /* \"contracts/PriceConverter.sol\":324:423  AggregatorV3Interface priceFeed = AggregatorV3Interface(0x8A753747A1Fa494EC906cE90E9f37563A8AF630e) */\n      swap1\n      pop\n        /* \"contracts/PriceConverter.sol\":436:448  int256 price */\n      0x00\n        /* \"contracts/PriceConverter.sol\":455:464  priceFeed */\n      dup2\n        /* \"contracts/PriceConverter.sol\":455:480  priceFeed.latestRoundData */\n      0xffffffffffffffffffffffffffffffffffffffff\n      and\n      0xfeaf968c\n        /* \"contracts/PriceConverter.sol\":455:482  priceFeed.latestRoundData() */\n      mload(0x40)\n      dup2\n      0xffffffff\n      and\n      0xe0\n      shl\n      dup2\n      mstore\n      0x04\n      add\n      0xa0\n      mload(0x40)\n      dup1\n      dup4\n      sub\n      dup2\n      dup7\n      dup1\n      extcodesize\n      iszero\n      dup1\n      iszero\n      tag_67\n      jumpi\n      0x00\n      dup1\n      revert\n    tag_67:\n      pop\n      gas\n      staticcall\n      iszero\n      dup1\n      iszero\n      tag_69\n      jumpi\n      returndatasize\n      0x00\n      dup1\n      returndatacopy\n      revert(0x00, returndatasize)\n    tag_69:\n      pop\n      pop\n      pop\n      pop\n      mload(0x40)\n      returndatasize\n      not(0x1f)\n      0x1f\n      dup3\n      add\n      and\n      dup3\n      add\n      dup1\n      0x40\n      mstore\n      pop\n      dup2\n      add\n      swap1\n      tag_70\n      swap2\n      swap1\n      tag_71\n      jump\t// in\n    tag_70:\n        /* \"contracts/PriceConverter.sol\":434:482  (,int256 price,,,) = priceFeed.latestRoundData() */\n      pop\n      pop\n      pop\n      swap2\n      pop\n      pop\n        /* \"contracts/PriceConverter.sol\":574:578  1e10 */\n      0x02540be400\n        /* \"contracts/PriceConverter.sol\":566:571  price */\n      dup2\n        /* \"contracts/PriceConverter.sol\":566:578  price * 1e10 */\n      tag_72\n      swap2\n      swap1\n      tag_73\n      jump\t// in\n    tag_72:\n        /* \"contracts/PriceConverter.sol\":551:579  return uint256(price * 1e10) */\n      swap3\n      pop\n      pop\n      pop\n        /* \"contracts/PriceConverter.sol\":184:608  function getPrice() internal view returns(uint256){\r... */\n      swap1\n      jump\t// out\n    tag_41:\n      dup3\n      dup1\n      sload\n      dup3\n      dup3\n      sstore\n      swap1\n      0x00\n      mstore\n      keccak256(0x00, 0x20)\n      swap1\n      dup2\n      add\n      swap3\n      dup3\n      iszero\n      tag_74\n      jumpi\n      swap2\n      0x20\n      mul\n      dup3\n      add\n    tag_75:\n      dup3\n      dup2\n      gt\n      iszero\n      tag_76\n      jumpi\n      dup3\n      mload\n      dup3\n      exp(0x0100, 0x00)\n      dup2\n      sload\n      dup2\n      0xffffffffffffffffffffffffffffffffffffffff\n      mul\n      not\n      and\n      swap1\n      dup4\n      0xffffffffffffffffffffffffffffffffffffffff\n      and\n      mul\n      or\n      swap1\n      sstore\n      pop\n      swap2\n      0x20\n      add\n      swap2\n      swap1\n      0x01\n      add\n      swap1\n      jump(tag_75)\n    tag_76:\n    tag_74:\n      pop\n      swap1\n      pop\n      tag_77\n      swap2\n      swap1\n      tag_78\n      jump\t// in\n    tag_77:\n      pop\n      swap1\n      jump\t// out\n    tag_78:\n    tag_79:\n      dup1\n      dup3\n      gt\n      iszero\n      tag_80\n      jumpi\n      0x00\n      dup2\n      0x00\n      swap1\n      sstore\n      pop\n      0x01\n      add\n      jump(tag_79)\n    tag_80:\n      pop\n      swap1\n      jump\t// out\n        /* \"#utility.yul\":7:146   */\n    tag_82:\n      0x00\n        /* \"#utility.yul\":91:97   */\n      dup2\n        /* \"#utility.yul\":78:98   */\n      calldataload\n        /* \"#utility.yul\":69:98   */\n      swap1\n      pop\n        /* \"#utility.yul\":107:140   */\n      tag_84\n        /* \"#utility.yul\":134:139   */\n      dup2\n        /* \"#utility.yul\":107:140   */\n      tag_85\n      jump\t// in\n    tag_84:\n        /* \"#utility.yul\":59:146   */\n      swap3\n      swap2\n      pop\n      pop\n      jump\t// out\n        /* \"#utility.yul\":152:293   */\n    tag_86:\n      0x00\n        /* \"#utility.yul\":239:245   */\n      dup2\n        /* \"#utility.yul\":233:246   */\n      mload\n        /* \"#utility.yul\":224:246   */\n      swap1\n      pop\n        /* \"#utility.yul\":255:287   */\n      tag_88\n        /* \"#utility.yul\":281:286   */\n      dup2\n        /* \"#utility.yul\":255:287   */\n      tag_89\n      jump\t// in\n    tag_88:\n        /* \"#utility.yul\":214:293   */\n      swap3\n      swap2\n      pop\n      pop\n      jump\t// out\n        /* \"#utility.yul\":299:438   */\n    tag_90:\n      0x00\n        /* \"#utility.yul\":383:389   */\n      dup2\n        /* \"#utility.yul\":370:390   */\n      calldataload\n        /* \"#utility.yul\":361:390   */\n      swap1\n      pop\n        /* \"#utility.yul\":399:432   */\n      tag_92\n        /* \"#utility.yul\":426:431   */\n      dup2\n        /* \"#utility.yul\":399:432   */\n      tag_93\n      jump\t// in\n    tag_92:\n        /* \"#utility.yul\":351:438   */\n      swap3\n      swap2\n      pop\n      pop\n      jump\t// out\n        /* \"#utility.yul\":444:587   */\n    tag_94:\n      0x00\n        /* \"#utility.yul\":532:538   */\n      dup2\n        /* \"#utility.yul\":526:539   */\n      mload\n        /* \"#utility.yul\":517:539   */\n      swap1\n      pop\n        /* \"#utility.yul\":548:581   */\n      tag_96\n        /* \"#utility.yul\":575:580   */\n      dup2\n        /* \"#utility.yul\":548:581   */\n      tag_93\n      jump\t// in\n    tag_96:\n        /* \"#utility.yul\":507:587   */\n      swap3\n      swap2\n      pop\n      pop\n      jump\t// out\n        /* \"#utility.yul\":593:734   */\n    tag_97:\n      0x00\n        /* \"#utility.yul\":680:686   */\n      dup2\n        /* \"#utility.yul\":674:687   */\n      mload\n        /* \"#utility.yul\":665:687   */\n      swap1\n      pop\n        /* \"#utility.yul\":696:728   */\n      tag_99\n        /* \"#utility.yul\":722:727   */\n      dup2\n        /* \"#utility.yul\":696:728   */\n      tag_100\n      jump\t// in\n    tag_99:\n        /* \"#utility.yul\":655:734   */\n      swap3\n      swap2\n      pop\n      pop\n      jump\t// out\n        /* \"#utility.yul\":740:1002   */\n    tag_10:\n      0x00\n        /* \"#utility.yul\":848:850   */\n      0x20\n        /* \"#utility.yul\":836:845   */\n      dup3\n        /* \"#utility.yul\":827:834   */\n      dup5\n        /* \"#utility.yul\":823:846   */\n      sub\n        /* \"#utility.yul\":819:851   */\n      slt\n        /* \"#utility.yul\":816:818   */\n      iszero\n      tag_102\n      jumpi\n        /* \"#utility.yul\":864:865   */\n      0x00\n        /* \"#utility.yul\":861:862   */\n      dup1\n        /* \"#utility.yul\":854:866   */\n      revert\n        /* \"#utility.yul\":816:818   */\n    tag_102:\n        /* \"#utility.yul\":907:908   */\n      0x00\n        /* \"#utility.yul\":932:985   */\n      tag_103\n        /* \"#utility.yul\":977:984   */\n      dup5\n        /* \"#utility.yul\":968:974   */\n      dup3\n        /* \"#utility.yul\":957:966   */\n      dup6\n        /* \"#utility.yul\":953:975   */\n      add\n        /* \"#utility.yul\":932:985   */\n      tag_82\n      jump\t// in\n    tag_103:\n        /* \"#utility.yul\":922:985   */\n      swap2\n      pop\n        /* \"#utility.yul\":878:995   */\n      pop\n        /* \"#utility.yul\":806:1002   */\n      swap3\n      swap2\n      pop\n      pop\n      jump\t// out\n        /* \"#utility.yul\":1008:1270   */\n    tag_26:\n      0x00\n        /* \"#utility.yul\":1116:1118   */\n      0x20\n        /* \"#utility.yul\":1104:1113   */\n      dup3\n        /* \"#utility.yul\":1095:1102   */\n      dup5\n        /* \"#utility.yul\":1091:1114   */\n      sub\n        /* \"#utility.yul\":1087:1119   */\n      slt\n        /* \"#utility.yul\":1084:1086   */\n      iszero\n      tag_105\n      jumpi\n        /* \"#utility.yul\":1132:1133   */\n      0x00\n        /* \"#utility.yul\":1129:1130   */\n      dup1\n        /* \"#utility.yul\":1122:1134   */\n      revert\n        /* \"#utility.yul\":1084:1086   */\n    tag_105:\n        /* \"#utility.yul\":1175:1176   */\n      0x00\n        /* \"#utility.yul\":1200:1253   */\n      tag_106\n        /* \"#utility.yul\":1245:1252   */\n      dup5\n        /* \"#utility.yul\":1236:1242   */\n      dup3\n        /* \"#utility.yul\":1225:1234   */\n      dup6\n        /* \"#utility.yul\":1221:1243   */\n      add\n        /* \"#utility.yul\":1200:1253   */\n      tag_90\n      jump\t// in\n    tag_106:\n        /* \"#utility.yul\":1190:1253   */\n      swap2\n      pop\n        /* \"#utility.yul\":1146:1263   */\n      pop\n        /* \"#utility.yul\":1074:1270   */\n      swap3\n      swap2\n      pop\n      pop\n      jump\t// out\n        /* \"#utility.yul\":1276:2180   */\n    tag_71:\n      0x00\n      dup1\n      0x00\n      dup1\n      0x00\n        /* \"#utility.yul\":1460:1463   */\n      0xa0\n        /* \"#utility.yul\":1448:1457   */\n      dup7\n        /* \"#utility.yul\":1439:1446   */\n      dup9\n        /* \"#utility.yul\":1435:1458   */\n      sub\n        /* \"#utility.yul\":1431:1464   */\n      slt\n        /* \"#utility.yul\":1428:1430   */\n      iszero\n      tag_108\n      jumpi\n        /* \"#utility.yul\":1477:1478   */\n      0x00\n        /* \"#utility.yul\":1474:1475   */\n      dup1\n        /* \"#utility.yul\":1467:1479   */\n      revert\n        /* \"#utility.yul\":1428:1430   */\n    tag_108:\n        /* \"#utility.yul\":1520:1521   */\n      0x00\n        /* \"#utility.yul\":1545:1608   */\n      tag_109\n        /* \"#utility.yul\":1600:1607   */\n      dup9\n        /* \"#utility.yul\":1591:1597   */\n      dup3\n        /* \"#utility.yul\":1580:1589   */\n      dup10\n        /* \"#utility.yul\":1576:1598   */\n      add\n        /* \"#utility.yul\":1545:1608   */\n      tag_97\n      jump\t// in\n    tag_109:\n        /* \"#utility.yul\":1535:1608   */\n      swap6\n      pop\n        /* \"#utility.yul\":1491:1618   */\n      pop\n        /* \"#utility.yul\":1657:1659   */\n      0x20\n        /* \"#utility.yul\":1683:1746   */\n      tag_110\n        /* \"#utility.yul\":1738:1745   */\n      dup9\n        /* \"#utility.yul\":1729:1735   */\n      dup3\n        /* \"#utility.yul\":1718:1727   */\n      dup10\n        /* \"#utility.yul\":1714:1736   */\n      add\n        /* \"#utility.yul\":1683:1746   */\n      tag_86\n      jump\t// in\n    tag_110:\n        /* \"#utility.yul\":1673:1746   */\n      swap5\n      pop\n        /* \"#utility.yul\":1628:1756   */\n      pop\n        /* \"#utility.yul\":1795:1797   */\n      0x40\n        /* \"#utility.yul\":1821:1885   */\n      tag_111\n        /* \"#utility.yul\":1877:1884   */\n      dup9\n        /* \"#utility.yul\":1868:1874   */\n      dup3\n        /* \"#utility.yul\":1857:1866   */\n      dup10\n        /* \"#utility.yul\":1853:1875   */\n      add\n        /* \"#utility.yul\":1821:1885   */\n      tag_94\n      jump\t// in\n    tag_111:\n        /* \"#utility.yul\":1811:1885   */\n      swap4\n      pop\n        /* \"#utility.yul\":1766:1895   */\n      pop\n        /* \"#utility.yul\":1934:1936   */\n      0x60\n        /* \"#utility.yul\":1960:2024   */\n      tag_112\n        /* \"#utility.yul\":2016:2023   */\n      dup9\n        /* \"#utility.yul\":2007:2013   */\n      dup3\n        /* \"#utility.yul\":1996:2005   */\n      dup10\n        /* \"#utility.yul\":1992:2014   */\n      add\n        /* \"#utility.yul\":1960:2024   */\n      tag_94\n      jump\t// in\n    tag_112:\n        /* \"#utility.yul\":1950:2024   */\n      swap3\n      pop\n        /* \"#utility.yul\":1905:2034   */\n      pop\n        /* \"#utility.yul\":2073:2076   */\n      0x80\n        /* \"#utility.yul\":2100:2163   */\n      tag_113\n        /* \"#utility.yul\":2155:2162   */\n      dup9\n        /* \"#utility.yul\":2146:2152   */\n      dup3\n        /* \"#utility.yul\":2135:2144   */\n      dup10\n        /* \"#utility.yul\":2131:2153   */\n      add\n        /* \"#utility.yul\":2100:2163   */\n      tag_97\n      jump\t// in\n    tag_113:\n        /* \"#utility.yul\":2090:2163   */\n      swap2\n      pop\n        /* \"#utility.yul\":2044:2173   */\n      pop\n        /* \"#utility.yul\":1418:2180   */\n      swap3\n      swap6\n      pop\n      swap3\n      swap6\n      swap1\n      swap4\n      pop\n      jump\t// out\n        /* \"#utility.yul\":2186:2304   */\n    tag_114:\n        /* \"#utility.yul\":2273:2297   */\n      tag_116\n        /* \"#utility.yul\":2291:2296   */\n      dup2\n        /* \"#utility.yul\":2273:2297   */\n      tag_117\n      jump\t// in\n    tag_116:\n        /* \"#utility.yul\":2268:2271   */\n      dup3\n        /* \"#utility.yul\":2261:2298   */\n      mstore\n        /* \"#utility.yul\":2251:2304   */\n      pop\n      pop\n      jump\t// out\n        /* \"#utility.yul\":2310:2619   */\n    tag_118:\n      0x00\n        /* \"#utility.yul\":2473:2540   */\n      tag_120\n        /* \"#utility.yul\":2537:2539   */\n      0x0b\n        /* \"#utility.yul\":2532:2535   */\n      dup4\n        /* \"#utility.yul\":2473:2540   */\n      tag_121\n      jump\t// in\n    tag_120:\n        /* \"#utility.yul\":2466:2540   */\n      swap2\n      pop\n        /* \"#utility.yul\":2570:2583   */\n      0x43616c6c206661696c6564000000000000000000000000000000000000000000\n        /* \"#utility.yul\":2566:2567   */\n      0x00\n        /* \"#utility.yul\":2561:2564   */\n      dup4\n        /* \"#utility.yul\":2557:2568   */\n      add\n        /* \"#utility.yul\":2550:2584   */\n      mstore\n        /* \"#utility.yul\":2610:2612   */\n      0x20\n        /* \"#utility.yul\":2605:2608   */\n      dup3\n        /* \"#utility.yul\":2601:2613   */\n      add\n        /* \"#utility.yul\":2594:2613   */\n      swap1\n      pop\n        /* \"#utility.yul\":2456:2619   */\n      swap2\n      swap1\n      pop\n      jump\t// out\n        /* \"#utility.yul\":2625:2941   */\n    tag_122:\n      0x00\n        /* \"#utility.yul\":2788:2855   */\n      tag_124\n        /* \"#utility.yul\":2852:2854   */\n      0x12\n        /* \"#utility.yul\":2847:2850   */\n      dup4\n        /* \"#utility.yul\":2788:2855   */\n      tag_121\n      jump\t// in\n    tag_124:\n        /* \"#utility.yul\":2781:2855   */\n      swap2\n      pop\n        /* \"#utility.yul\":2885:2905   */\n      0x4469646e27742073656e6420656e6f7567680000000000000000000000000000\n        /* \"#utility.yul\":2881:2882   */\n      0x00\n        /* \"#utility.yul\":2876:2879   */\n      dup4\n        /* \"#utility.yul\":2872:2883   */\n      add\n        /* \"#utility.yul\":2865:2906   */\n      mstore\n        /* \"#utility.yul\":2932:2934   */\n      0x20\n        /* \"#utility.yul\":2927:2930   */\n      dup3\n        /* \"#utility.yul\":2923:2935   */\n      add\n        /* \"#utility.yul\":2916:2935   */\n      swap1\n      pop\n        /* \"#utility.yul\":2771:2941   */\n      swap2\n      swap1\n      pop\n      jump\t// out\n        /* \"#utility.yul\":2947:3244   */\n    tag_125:\n      0x00\n        /* \"#utility.yul\":3127:3210   */\n      tag_127\n        /* \"#utility.yul\":3208:3209   */\n      0x00\n        /* \"#utility.yul\":3203:3206   */\n      dup4\n        /* \"#utility.yul\":3127:3210   */\n      tag_128\n      jump\t// in\n    tag_127:\n        /* \"#utility.yul\":3120:3210   */\n      swap2\n      pop\n        /* \"#utility.yul\":3236:3237   */\n      0x00\n        /* \"#utility.yul\":3231:3234   */\n      dup3\n        /* \"#utility.yul\":3227:3238   */\n      add\n        /* \"#utility.yul\":3220:3238   */\n      swap1\n      pop\n        /* \"#utility.yul\":3110:3244   */\n      swap2\n      swap1\n      pop\n      jump\t// out\n        /* \"#utility.yul\":3250:3368   */\n    tag_129:\n        /* \"#utility.yul\":3337:3361   */\n      tag_131\n        /* \"#utility.yul\":3355:3360   */\n      dup2\n        /* \"#utility.yul\":3337:3361   */\n      tag_132\n      jump\t// in\n    tag_131:\n        /* \"#utility.yul\":3332:3335   */\n      dup3\n        /* \"#utility.yul\":3325:3362   */\n      mstore\n        /* \"#utility.yul\":3315:3368   */\n      pop\n      pop\n      jump\t// out\n        /* \"#utility.yul\":3374:3753   */\n    tag_43:\n      0x00\n        /* \"#utility.yul\":3580:3727   */\n      tag_134\n        /* \"#utility.yul\":3723:3726   */\n      dup3\n        /* \"#utility.yul\":3580:3727   */\n      tag_125\n      jump\t// in\n    tag_134:\n        /* \"#utility.yul\":3573:3727   */\n      swap2\n      pop\n        /* \"#utility.yul\":3744:3747   */\n      dup2\n        /* \"#utility.yul\":3737:3747   */\n      swap1\n      pop\n        /* \"#utility.yul\":3562:3753   */\n      swap2\n      swap1\n      pop\n      jump\t// out\n        /* \"#utility.yul\":3759:3981   */\n    tag_29:\n      0x00\n        /* \"#utility.yul\":3890:3892   */\n      0x20\n        /* \"#utility.yul\":3879:3888   */\n      dup3\n        /* \"#utility.yul\":3875:3893   */\n      add\n        /* \"#utility.yul\":3867:3893   */\n      swap1\n      pop\n        /* \"#utility.yul\":3903:3974   */\n      tag_136\n        /* \"#utility.yul\":3971:3972   */\n      0x00\n        /* \"#utility.yul\":3960:3969   */\n      dup4\n        /* \"#utility.yul\":3956:3973   */\n      add\n        /* \"#utility.yul\":3947:3953   */\n      dup5\n        /* \"#utility.yul\":3903:3974   */\n      tag_114\n      jump\t// in\n    tag_136:\n        /* \"#utility.yul\":3857:3981   */\n      swap3\n      swap2\n      pop\n      pop\n      jump\t// out\n        /* \"#utility.yul\":3987:4406   */\n    tag_49:\n      0x00\n        /* \"#utility.yul\":4191:4193   */\n      0x20\n        /* \"#utility.yul\":4180:4189   */\n      dup3\n        /* \"#utility.yul\":4176:4194   */\n      add\n        /* \"#utility.yul\":4168:4194   */\n      swap1\n      pop\n        /* \"#utility.yul\":4240:4249   */\n      dup2\n        /* \"#utility.yul\":4234:4238   */\n      dup2\n        /* \"#utility.yul\":4230:4250   */\n      sub\n        /* \"#utility.yul\":4226:4227   */\n      0x00\n        /* \"#utility.yul\":4215:4224   */\n      dup4\n        /* \"#utility.yul\":4211:4228   */\n      add\n        /* \"#utility.yul\":4204:4251   */\n      mstore\n        /* \"#utility.yul\":4268:4399   */\n      tag_138\n        /* \"#utility.yul\":4394:4398   */\n      dup2\n        /* \"#utility.yul\":4268:4399   */\n      tag_118\n      jump\t// in\n    tag_138:\n        /* \"#utility.yul\":4260:4399   */\n      swap1\n      pop\n        /* \"#utility.yul\":4158:4406   */\n      swap2\n      swap1\n      pop\n      jump\t// out\n        /* \"#utility.yul\":4412:4831   */\n    tag_55:\n      0x00\n        /* \"#utility.yul\":4616:4618   */\n      0x20\n        /* \"#utility.yul\":4605:4614   */\n      dup3\n        /* \"#utility.yul\":4601:4619   */\n      add\n        /* \"#utility.yul\":4593:4619   */\n      swap1\n      pop\n        /* \"#utility.yul\":4665:4674   */\n      dup2\n        /* \"#utility.yul\":4659:4663   */\n      dup2\n        /* \"#utility.yul\":4655:4675   */\n      sub\n        /* \"#utility.yul\":4651:4652   */\n      0x00\n        /* \"#utility.yul\":4640:4649   */\n      dup4\n        /* \"#utility.yul\":4636:4653   */\n      add\n        /* \"#utility.yul\":4629:4676   */\n      mstore\n        /* \"#utility.yul\":4693:4824   */\n      tag_140\n        /* \"#utility.yul\":4819:4823   */\n      dup2\n        /* \"#utility.yul\":4693:4824   */\n      tag_122\n      jump\t// in\n    tag_140:\n        /* \"#utility.yul\":4685:4824   */\n      swap1\n      pop\n        /* \"#utility.yul\":4583:4831   */\n      swap2\n      swap1\n      pop\n      jump\t// out\n        /* \"#utility.yul\":4837:5059   */\n    tag_13:\n      0x00\n        /* \"#utility.yul\":4968:4970   */\n      0x20\n        /* \"#utility.yul\":4957:4966   */\n      dup3\n        /* \"#utility.yul\":4953:4971   */\n      add\n        /* \"#utility.yul\":4945:4971   */\n      swap1\n      pop\n        /* \"#utility.yul\":4981:5052   */\n      tag_142\n        /* \"#utility.yul\":5049:5050   */\n      0x00\n        /* \"#utility.yul\":5038:5047   */\n      dup4\n        /* \"#utility.yul\":5034:5051   */\n      add\n        /* \"#utility.yul\":5025:5031   */\n      dup5\n        /* \"#utility.yul\":4981:5052   */\n      tag_129\n      jump\t// in\n    tag_142:\n        /* \"#utility.yul\":4935:5059   */\n      swap3\n      swap2\n      pop\n      pop\n      jump\t// out\n        /* \"#utility.yul\":5065:5212   */\n    tag_128:\n      0x00\n        /* \"#utility.yul\":5203:5206   */\n      dup2\n        /* \"#utility.yul\":5188:5206   */\n      swap1\n      pop\n        /* \"#utility.yul\":5178:5212   */\n      swap3\n      swap2\n      pop\n      pop\n      jump\t// out\n        /* \"#utility.yul\":5218:5387   */\n    tag_121:\n      0x00\n        /* \"#utility.yul\":5336:5342   */\n      dup3\n        /* \"#utility.yul\":5331:5334   */\n      dup3\n        /* \"#utility.yul\":5324:5343   */\n      mstore\n        /* \"#utility.yul\":5376:5380   */\n      0x20\n        /* \"#utility.yul\":5371:5374   */\n      dup3\n        /* \"#utility.yul\":5367:5381   */\n      add\n        /* \"#utility.yul\":5352:5381   */\n      swap1\n      pop\n        /* \"#utility.yul\":5314:5387   */\n      swap3\n      swap2\n      pop\n      pop\n      jump\t// out\n        /* \"#utility.yul\":5393:5578   */\n    tag_65:\n      0x00\n        /* \"#utility.yul\":5450:5470   */\n      tag_146\n        /* \"#utility.yul\":5468:5469   */\n      dup3\n        /* \"#utility.yul\":5450:5470   */\n      tag_132\n      jump\t// in\n    tag_146:\n        /* \"#utility.yul\":5445:5470   */\n      swap2\n      pop\n        /* \"#utility.yul\":5484:5504   */\n      tag_147\n        /* \"#utility.yul\":5502:5503   */\n      dup4\n        /* \"#utility.yul\":5484:5504   */\n      tag_132\n      jump\t// in\n    tag_147:\n        /* \"#utility.yul\":5479:5504   */\n      swap3\n      pop\n        /* \"#utility.yul\":5523:5524   */\n      dup3\n        /* \"#utility.yul\":5513:5515   */\n      tag_148\n      jumpi\n        /* \"#utility.yul\":5528:5546   */\n      tag_149\n      tag_150\n      jump\t// in\n    tag_149:\n        /* \"#utility.yul\":5513:5515   */\n    tag_148:\n        /* \"#utility.yul\":5570:5571   */\n      dup3\n        /* \"#utility.yul\":5567:5568   */\n      dup3\n        /* \"#utility.yul\":5563:5572   */\n      div\n        /* \"#utility.yul\":5558:5572   */\n      swap1\n      pop\n        /* \"#utility.yul\":5435:5578   */\n      swap3\n      swap2\n      pop\n      pop\n      jump\t// out\n        /* \"#utility.yul\":5584:6575   */\n    tag_73:\n      0x00\n        /* \"#utility.yul\":5646:5665   */\n      tag_152\n        /* \"#utility.yul\":5663:5664   */\n      dup3\n        /* \"#utility.yul\":5646:5665   */\n      tag_153\n      jump\t// in\n    tag_152:\n        /* \"#utility.yul\":5641:5665   */\n      swap2\n      pop\n        /* \"#utility.yul\":5679:5698   */\n      tag_154\n        /* \"#utility.yul\":5696:5697   */\n      dup4\n        /* \"#utility.yul\":5679:5698   */\n      tag_153\n      jump\t// in\n    tag_154:\n        /* \"#utility.yul\":5674:5698   */\n      swap3\n      pop\n        /* \"#utility.yul\":5880:5881   */\n      dup3\n        /* \"#utility.yul\":5812:5878   */\n      0x7fffffffffffffffffffffffffffffffffffffffffffffffffffffffffffffff\n        /* \"#utility.yul\":5808:5882   */\n      div\n        /* \"#utility.yul\":5805:5806   */\n      dup3\n        /* \"#utility.yul\":5802:5883   */\n      gt\n        /* \"#utility.yul\":5797:5798   */\n      0x00\n        /* \"#utility.yul\":5794:5795   */\n      dup5\n        /* \"#utility.yul\":5790:5799   */\n      sgt\n        /* \"#utility.yul\":5786:5787   */\n      0x00\n        /* \"#utility.yul\":5783:5784   */\n      dup5\n        /* \"#utility.yul\":5779:5788   */\n      sgt\n        /* \"#utility.yul\":5775:5800   */\n      and\n        /* \"#utility.yul\":5771:5884   */\n      and\n        /* \"#utility.yul\":5768:5770   */\n      iszero\n      tag_155\n      jumpi\n        /* \"#utility.yul\":5887:5905   */\n      tag_156\n      tag_157\n      jump\t// in\n    tag_156:\n        /* \"#utility.yul\":5768:5770   */\n    tag_155:\n        /* \"#utility.yul\":6091:6092   */\n      dup2\n        /* \"#utility.yul\":6023:6089   */\n      0x8000000000000000000000000000000000000000000000000000000000000000\n        /* \"#utility.yul\":6018:6093   */\n      sdiv\n        /* \"#utility.yul\":6015:6016   */\n      dup4\n        /* \"#utility.yul\":6011:6094   */\n      slt\n        /* \"#utility.yul\":6006:6007   */\n      0x00\n        /* \"#utility.yul\":6003:6004   */\n      dup5\n        /* \"#utility.yul\":5999:6008   */\n      slt\n        /* \"#utility.yul\":5995:5996   */\n      0x00\n        /* \"#utility.yul\":5992:5993   */\n      dup5\n        /* \"#utility.yul\":5988:5997   */\n      sgt\n        /* \"#utility.yul\":5984:6009   */\n      and\n        /* \"#utility.yul\":5980:6095   */\n      and\n        /* \"#utility.yul\":5977:5979   */\n      iszero\n      tag_158\n      jumpi\n        /* \"#utility.yul\":6098:6116   */\n      tag_159\n      tag_157\n      jump\t// in\n    tag_159:\n        /* \"#utility.yul\":5977:5979   */\n    tag_158:\n        /* \"#utility.yul\":6302:6303   */\n      dup3\n        /* \"#utility.yul\":6234:6300   */\n      0x8000000000000000000000000000000000000000000000000000000000000000\n        /* \"#utility.yul\":6229:6304   */\n      sdiv\n        /* \"#utility.yul\":6226:6227   */\n      dup3\n        /* \"#utility.yul\":6222:6305   */\n      slt\n        /* \"#utility.yul\":6217:6218   */\n      0x00\n        /* \"#utility.yul\":6214:6215   */\n      dup5\n        /* \"#utility.yul\":6210:6219   */\n      sgt\n        /* \"#utility.yul\":6206:6207   */\n      0x00\n        /* \"#utility.yul\":6203:6204   */\n      dup5\n        /* \"#utility.yul\":6199:6208   */\n      slt\n        /* \"#utility.yul\":6195:6220   */\n      and\n        /* \"#utility.yul\":6191:6306   */\n      and\n        /* \"#utility.yul\":6188:6190   */\n      iszero\n      tag_160\n      jumpi\n        /* \"#utility.yul\":6309:6327   */\n      tag_161\n      tag_157\n      jump\t// in\n    tag_161:\n        /* \"#utility.yul\":6188:6190   */\n    tag_160:\n        /* \"#utility.yul\":6512:6513   */\n      dup3\n        /* \"#utility.yul\":6444:6510   */\n      0x7fffffffffffffffffffffffffffffffffffffffffffffffffffffffffffffff\n        /* \"#utility.yul\":6439:6514   */\n      sdiv\n        /* \"#utility.yul\":6436:6437   */\n      dup3\n        /* \"#utility.yul\":6432:6515   */\n      slt\n        /* \"#utility.yul\":6427:6428   */\n      0x00\n        /* \"#utility.yul\":6424:6425   */\n      dup5\n        /* \"#utility.yul\":6420:6429   */\n      slt\n        /* \"#utility.yul\":6416:6417   */\n      0x00\n        /* \"#utility.yul\":6413:6414   */\n      dup5\n        /* \"#utility.yul\":6409:6418   */\n      slt\n        /* \"#utility.yul\":6405:6430   */\n      and\n        /* \"#utility.yul\":6401:6516   */\n      and\n        /* \"#utility.yul\":6398:6400   */\n      iszero\n      tag_162\n      jumpi\n        /* \"#utility.yul\":6519:6537   */\n      tag_163\n      tag_157\n      jump\t// in\n    tag_163:\n        /* \"#utility.yul\":6398:6400   */\n    tag_162:\n        /* \"#utility.yul\":6567:6568   */\n      dup3\n        /* \"#utility.yul\":6564:6565   */\n      dup3\n        /* \"#utility.yul\":6560:6569   */\n      mul\n        /* \"#utility.yul\":6549:6569   */\n      swap1\n      pop\n        /* \"#utility.yul\":5631:6575   */\n      swap3\n      swap2\n      pop\n      pop\n      jump\t// out\n        /* \"#utility.yul\":6581:6929   */\n    tag_63:\n      0x00\n        /* \"#utility.yul\":6644:6664   */\n      tag_165\n        /* \"#utility.yul\":6662:6663   */\n      dup3\n        /* \"#utility.yul\":6644:6664   */\n      tag_132\n      jump\t// in\n    tag_165:\n        /* \"#utility.yul\":6639:6664   */\n      swap2\n      pop\n        /* \"#utility.yul\":6678:6698   */\n      tag_166\n        /* \"#utility.yul\":6696:6697   */\n      dup4\n        /* \"#utility.yul\":6678:6698   */\n      tag_132\n      jump\t// in\n    tag_166:\n        /* \"#utility.yul\":6673:6698   */\n      swap3\n      pop\n        /* \"#utility.yul\":6866:6867   */\n      dup2\n        /* \"#utility.yul\":6798:6864   */\n      0xffffffffffffffffffffffffffffffffffffffffffffffffffffffffffffffff\n        /* \"#utility.yul\":6794:6868   */\n      div\n        /* \"#utility.yul\":6791:6792   */\n      dup4\n        /* \"#utility.yul\":6788:6869   */\n      gt\n        /* \"#utility.yul\":6783:6784   */\n      dup3\n        /* \"#utility.yul\":6776:6785   */\n      iszero\n        /* \"#utility.yul\":6769:6786   */\n      iszero\n        /* \"#utility.yul\":6765:6870   */\n      and\n        /* \"#utility.yul\":6762:6764   */\n      iszero\n      tag_167\n      jumpi\n        /* \"#utility.yul\":6873:6891   */\n      tag_168\n      tag_157\n      jump\t// in\n    tag_168:\n        /* \"#utility.yul\":6762:6764   */\n    tag_167:\n        /* \"#utility.yul\":6921:6922   */\n      dup3\n        /* \"#utility.yul\":6918:6919   */\n      dup3\n        /* \"#utility.yul\":6914:6923   */\n      mul\n        /* \"#utility.yul\":6903:6923   */\n      swap1\n      pop\n        /* \"#utility.yul\":6629:6929   */\n      swap3\n      swap2\n      pop\n      pop\n      jump\t// out\n        /* \"#utility.yul\":6935:7031   */\n    tag_117:\n      0x00\n        /* \"#utility.yul\":7001:7025   */\n      tag_170\n        /* \"#utility.yul\":7019:7024   */\n      dup3\n        /* \"#utility.yul\":7001:7025   */\n      tag_171\n      jump\t// in\n    tag_170:\n        /* \"#utility.yul\":6990:7025   */\n      swap1\n      pop\n        /* \"#utility.yul\":6980:7031   */\n      swap2\n      swap1\n      pop\n      jump\t// out\n        /* \"#utility.yul\":7037:7113   */\n    tag_153:\n      0x00\n        /* \"#utility.yul\":7102:7107   */\n      dup2\n        /* \"#utility.yul\":7091:7107   */\n      swap1\n      pop\n        /* \"#utility.yul\":7081:7113   */\n      swap2\n      swap1\n      pop\n      jump\t// out\n        /* \"#utility.yul\":7119:7245   */\n    tag_171:\n      0x00\n        /* \"#utility.yul\":7196:7238   */\n      0xffffffffffffffffffffffffffffffffffffffff\n        /* \"#utility.yul\":7189:7194   */\n      dup3\n        /* \"#utility.yul\":7185:7239   */\n      and\n        /* \"#utility.yul\":7174:7239   */\n      swap1\n      pop\n        /* \"#utility.yul\":7164:7245   */\n      swap2\n      swap1\n      pop\n      jump\t// out\n        /* \"#utility.yul\":7251:7328   */\n    tag_132:\n      0x00\n        /* \"#utility.yul\":7317:7322   */\n      dup2\n        /* \"#utility.yul\":7306:7322   */\n      swap1\n      pop\n        /* \"#utility.yul\":7296:7328   */\n      swap2\n      swap1\n      pop\n      jump\t// out\n        /* \"#utility.yul\":7334:7439   */\n    tag_175:\n      0x00\n        /* \"#utility.yul\":7410:7432   */\n      0xffffffffffffffffffff\n        /* \"#utility.yul\":7403:7408   */\n      dup3\n        /* \"#utility.yul\":7399:7433   */\n      and\n        /* \"#utility.yul\":7388:7433   */\n      swap1\n      pop\n        /* \"#utility.yul\":7378:7439   */\n      swap2\n      swap1\n      pop\n      jump\t// out\n        /* \"#utility.yul\":7445:7678   */\n    tag_37:\n      0x00\n        /* \"#utility.yul\":7507:7531   */\n      tag_178\n        /* \"#utility.yul\":7525:7530   */\n      dup3\n        /* \"#utility.yul\":7507:7531   */\n      tag_132\n      jump\t// in\n    tag_178:\n        /* \"#utility.yul\":7498:7531   */\n      swap2\n      pop\n        /* \"#utility.yul\":7553:7619   */\n      0xffffffffffffffffffffffffffffffffffffffffffffffffffffffffffffffff\n        /* \"#utility.yul\":7546:7551   */\n      dup3\n        /* \"#utility.yul\":7543:7620   */\n      eq\n        /* \"#utility.yul\":7540:7542   */\n      iszero\n      tag_179\n      jumpi\n        /* \"#utility.yul\":7623:7641   */\n      tag_180\n      tag_157\n      jump\t// in\n    tag_180:\n        /* \"#utility.yul\":7540:7542   */\n    tag_179:\n        /* \"#utility.yul\":7670:7671   */\n      0x01\n        /* \"#utility.yul\":7663:7668   */\n      dup3\n        /* \"#utility.yul\":7659:7672   */\n      add\n        /* \"#utility.yul\":7652:7672   */\n      swap1\n      pop\n        /* \"#utility.yul\":7488:7678   */\n      swap2\n      swap1\n      pop\n      jump\t// out\n        /* \"#utility.yul\":7684:7864   */\n    tag_157:\n        /* \"#utility.yul\":7732:7809   */\n      0x4e487b7100000000000000000000000000000000000000000000000000000000\n        /* \"#utility.yul\":7729:7730   */\n      0x00\n        /* \"#utility.yul\":7722:7810   */\n      mstore\n        /* \"#utility.yul\":7829:7833   */\n      0x11\n        /* \"#utility.yul\":7826:7827   */\n      0x04\n        /* \"#utility.yul\":7819:7834   */\n      mstore\n        /* \"#utility.yul\":7853:7857   */\n      0x24\n        /* \"#utility.yul\":7850:7851   */\n      0x00\n        /* \"#utility.yul\":7843:7858   */\n      revert\n        /* \"#utility.yul\":7870:8050   */\n    tag_150:\n        /* \"#utility.yul\":7918:7995   */\n      0x4e487b7100000000000000000000000000000000000000000000000000000000\n        /* \"#utility.yul\":7915:7916   */\n      0x00\n        /* \"#utility.yul\":7908:7996   */\n      mstore\n        /* \"#utility.yul\":8015:8019   */\n      0x12\n        /* \"#utility.yul\":8012:8013   */\n      0x04\n        /* \"#utility.yul\":8005:8020   */\n      mstore\n        /* \"#utility.yul\":8039:8043   */\n      0x24\n        /* \"#utility.yul\":8036:8037   */\n      0x00\n        /* \"#utility.yul\":8029:8044   */\n      revert\n        /* \"#utility.yul\":8056:8178   */\n    tag_85:\n        /* \"#utility.yul\":8129:8153   */\n      tag_184\n        /* \"#utility.yul\":8147:8152   */\n      dup2\n        /* \"#utility.yul\":8129:8153   */\n      tag_117\n      jump\t// in\n    tag_184:\n        /* \"#utility.yul\":8122:8127   */\n      dup2\n        /* \"#utility.yul\":8119:8154   */\n      eq\n        /* \"#utility.yul\":8109:8111   */\n      tag_185\n      jumpi\n        /* \"#utility.yul\":8168:8169   */\n      0x00\n        /* \"#utility.yul\":8165:8166   */\n      dup1\n        /* \"#utility.yul\":8158:8170   */\n      revert\n        /* \"#utility.yul\":8109:8111   */\n    tag_185:\n        /* \"#utility.yul\":8099:8178   */\n      pop\n      jump\t// out\n        /* \"#utility.yul\":8184:8304   */\n    tag_89:\n        /* \"#utility.yul\":8256:8279   */\n      tag_187\n        /* \"#utility.yul\":8273:8278   */\n      dup2\n        /* \"#utility.yul\":8256:8279   */\n      tag_153\n      jump\t// in\n    tag_187:\n        /* \"#utility.yul\":8249:8254   */\n      dup2\n        /* \"#utility.yul\":8246:8280   */\n      eq\n        /* \"#utility.yul\":8236:8238   */\n      tag_188\n      jumpi\n        /* \"#utility.yul\":8294:8295   */\n      0x00\n        /* \"#utility.yul\":8291:8292   */\n      dup1\n        /* \"#utility.yul\":8284:8296   */\n      revert\n        /* \"#utility.yul\":8236:8238   */\n    tag_188:\n        /* \"#utility.yul\":8226:8304   */\n      pop\n      jump\t// out\n        /* \"#utility.yul\":8310:8432   */\n    tag_93:\n        /* \"#utility.yul\":8383:8407   */\n      tag_190\n        /* \"#utility.yul\":8401:8406   */\n      dup2\n        /* \"#utility.yul\":8383:8407   */\n      tag_132\n      jump\t// in\n    tag_190:\n        /* \"#utility.yul\":8376:8381   */\n      dup2\n        /* \"#utility.yul\":8373:8408   */\n      eq\n        /* \"#utility.yul\":8363:8365   */\n      tag_191\n      jumpi\n        /* \"#utility.yul\":8422:8423   */\n      0x00\n        /* \"#utility.yul\":8419:8420   */\n      dup1\n        /* \"#utility.yul\":8412:8424   */\n      revert\n        /* \"#utility.yul\":8363:8365   */\n    tag_191:\n        /* \"#utility.yul\":8353:8432   */\n      pop\n      jump\t// out\n        /* \"#utility.yul\":8438:8558   */\n    tag_100:\n        /* \"#utility.yul\":8510:8533   */\n      tag_193\n        /* \"#utility.yul\":8527:8532   */\n      dup2\n        /* \"#utility.yul\":8510:8533   */\n      tag_175\n      jump\t// in\n    tag_193:\n        /* \"#utility.yul\":8503:8508   */\n      dup2\n        /* \"#utility.yul\":8500:8534   */\n      eq\n        /* \"#utility.yul\":8490:8492   */\n      tag_194\n      jumpi\n        /* \"#utility.yul\":8548:8549   */\n      0x00\n        /* \"#utility.yul\":8545:8546   */\n      dup1\n        /* \"#utility.yul\":8538:8550   */\n      revert\n        /* \"#utility.yul\":8490:8492   */\n    tag_194:\n        /* \"#utility.yul\":8480:8558   */\n      pop\n      jump\t// out\n\n    auxdata: 0xa26469706673582212203dfa14be45b4fc659a43fc1804b7a7beb005f44e3812211137efdb87c36411db64736f6c63430008000033\n}\n",
				"bytecode": {
					"linkReferences": {},
					"object": "60806040526802b5e3af16b188000060005534801561001d57600080fd5b50610bd08061002d6000396000f3fe60806040526004361061004a5760003560e01c80632e7154291461004f5780633ccfd60b1461008c57806351b80e41146100a3578063b60d4288146100ce578063dc0d3dff146100d8575b600080fd5b34801561005b57600080fd5b5061007660048036038101906100719190610671565b610115565b6040516100839190610862565b60405180910390f35b34801561009857600080fd5b506100a161012d565b005b3480156100af57600080fd5b506100b8610334565b6040516100c59190610862565b60405180910390f35b6100d661033a565b005b3480156100e457600080fd5b506100ff60048036038101906100fa919061069a565b610430565b60405161010c9190610807565b60405180910390f35b60026020528060005260406000206000915090505481565b60005b60018054905081116101fe57600060018281548110610178577f4e487b7100000000000000000000000000000000000000000000000000000000600052603260045260246000fd5b9060005260206000200160009054906101000a900473ffffffffffffffffffffffffffffffffffffffff1690506000600260008373ffffffffffffffffffffffffffffffffffffffff1673ffffffffffffffffffffffffffffffffffffffff168152602001908152602001600020819055505080806101f690610a97565b915050610130565b50600067ffffffffffffffff811115610240577f4e487b7100000000000000000000000000000000000000000000000000000000600052604160045260246000fd5b60405190808252806020026020018201604052801561026e5781602001602082028036833780820191505090505b5060019080519060200190610284929190610561565b5060003373ffffffffffffffffffffffffffffffffffffffff16476040516102ab906107f2565b60006040518083038185875af1925050503d80600081146102e8576040519150601f19603f3d011682016040523d82523d6000602084013e6102ed565b606091505b5050905080610331576040517f08c379a000000000000000000000000000000000000000000000000000000000815260040161032890610822565b60405180910390fd5b50565b60005481565b6000546103463461046f565b1015610387576040517f08c379a000000000000000000000000000000000000000000000000000000000815260040161037e90610842565b60405180910390fd5b6001339080600181540180825580915050600190039060005260206000200160009091909190916101000a81548173ffffffffffffffffffffffffffffffffffffffff021916908373ffffffffffffffffffffffffffffffffffffffff16021790555034600260003373ffffffffffffffffffffffffffffffffffffffff1673ffffffffffffffffffffffffffffffffffffffff16815260200190815260200160002081905550565b6001818154811061044057600080fd5b906000526020600020016000915054906101000a900473ffffffffffffffffffffffffffffffffffffffff1681565b60008061047a6104a9565b90506000670de0b6b3a7640000848361049391906109e1565b61049d9190610899565b90508092505050919050565b600080738a753747a1fa494ec906ce90e9f37563a8af630e905060008173ffffffffffffffffffffffffffffffffffffffff1663feaf968c6040518163ffffffff1660e01b815260040160a06040518083038186803b15801561050b57600080fd5b505afa15801561051f573d6000803e3d6000fd5b505050506040513d601f19601f8201168201806040525081019061054391906106c3565b5050509150506402540be4008161055a91906108ca565b9250505090565b8280548282559060005260206000209081019282156105da579160200282015b828111156105d95782518260006101000a81548173ffffffffffffffffffffffffffffffffffffffff021916908373ffffffffffffffffffffffffffffffffffffffff16021790555091602001919060010190610581565b5b5090506105e791906105eb565b5090565b5b808211156106045760008160009055506001016105ec565b5090565b60008135905061061781610b3e565b92915050565b60008151905061062c81610b55565b92915050565b60008135905061064181610b6c565b92915050565b60008151905061065681610b6c565b92915050565b60008151905061066b81610b83565b92915050565b60006020828403121561068357600080fd5b600061069184828501610608565b91505092915050565b6000602082840312156106ac57600080fd5b60006106ba84828501610632565b91505092915050565b600080600080600060a086880312156106db57600080fd5b60006106e98882890161065c565b95505060206106fa8882890161061d565b945050604061070b88828901610647565b935050606061071c88828901610647565b925050608061072d8882890161065c565b9150509295509295909350565b61074381610a3b565b82525050565b6000610756600b83610888565b91507f43616c6c206661696c65640000000000000000000000000000000000000000006000830152602082019050919050565b6000610796601283610888565b91507f4469646e27742073656e6420656e6f75676800000000000000000000000000006000830152602082019050919050565b60006107d660008361087d565b9150600082019050919050565b6107ec81610a77565b82525050565b60006107fd826107c9565b9150819050919050565b600060208201905061081c600083018461073a565b92915050565b6000602082019050818103600083015261083b81610749565b9050919050565b6000602082019050818103600083015261085b81610789565b9050919050565b600060208201905061087760008301846107e3565b92915050565b600081905092915050565b600082825260208201905092915050565b60006108a482610a77565b91506108af83610a77565b9250826108bf576108be610b0f565b5b828204905092915050565b60006108d582610a4d565b91506108e083610a4d565b9250827f7fffffffffffffffffffffffffffffffffffffffffffffffffffffffffffffff048211600084136000841316161561091f5761091e610ae0565b5b817f8000000000000000000000000000000000000000000000000000000000000000058312600084126000841316161561095c5761095b610ae0565b5b827f8000000000000000000000000000000000000000000000000000000000000000058212600084136000841216161561099957610998610ae0565b5b827f7fffffffffffffffffffffffffffffffffffffffffffffffffffffffffffffff05821260008412600084121616156109d6576109d5610ae0565b5b828202905092915050565b60006109ec82610a77565b91506109f783610a77565b9250817fffffffffffffffffffffffffffffffffffffffffffffffffffffffffffffffff0483118215151615610a3057610a2f610ae0565b5b828202905092915050565b6000610a4682610a57565b9050919050565b6000819050919050565b600073ffffffffffffffffffffffffffffffffffffffff82169050919050565b6000819050919050565b600069ffffffffffffffffffff82169050919050565b6000610aa282610a77565b91507fffffffffffffffffffffffffffffffffffffffffffffffffffffffffffffffff821415610ad557610ad4610ae0565b5b600182019050919050565b7f4e487b7100000000000000000000000000000000000000000000000000000000600052601160045260246000fd5b7f4e487b7100000000000000000000000000000000000000000000000000000000600052601260045260246000fd5b610b4781610a3b565b8114610b5257600080fd5b50565b610b5e81610a4d565b8114610b6957600080fd5b50565b610b7581610a77565b8114610b8057600080fd5b50565b610b8c81610a81565b8114610b9757600080fd5b5056fea26469706673582212203dfa14be45b4fc659a43fc1804b7a7beb005f44e3812211137efdb87c36411db64736f6c63430008000033",
					"opcodes": "PUSH1 0x80 PUSH1 0x40 MSTORE PUSH9 0x2B5E3AF16B1880000 PUSH1 0x0 SSTORE CALLVALUE DUP1 ISZERO PUSH2 0x1D JUMPI PUSH1 0x0 DUP1 REVERT JUMPDEST POP PUSH2 0xBD0 DUP1 PUSH2 0x2D PUSH1 0x0 CODECOPY PUSH1 0x0 RETURN INVALID PUSH1 0x80 PUSH1 0x40 MSTORE PUSH1 0x4 CALLDATASIZE LT PUSH2 0x4A JUMPI PUSH1 0x0 CALLDATALOAD PUSH1 0xE0 SHR DUP1 PUSH4 0x2E715429 EQ PUSH2 0x4F JUMPI DUP1 PUSH4 0x3CCFD60B EQ PUSH2 0x8C JUMPI DUP1 PUSH4 0x51B80E41 EQ PUSH2 0xA3 JUMPI DUP1 PUSH4 0xB60D4288 EQ PUSH2 0xCE JUMPI DUP1 PUSH4 0xDC0D3DFF EQ PUSH2 0xD8 JUMPI JUMPDEST PUSH1 0x0 DUP1 REVERT JUMPDEST CALLVALUE DUP1 ISZERO PUSH2 0x5B JUMPI PUSH1 0x0 DUP1 REVERT JUMPDEST POP PUSH2 0x76 PUSH1 0x4 DUP1 CALLDATASIZE SUB DUP2 ADD SWAP1 PUSH2 0x71 SWAP2 SWAP1 PUSH2 0x671 JUMP JUMPDEST PUSH2 0x115 JUMP JUMPDEST PUSH1 0x40 MLOAD PUSH2 0x83 SWAP2 SWAP1 PUSH2 0x862 JUMP JUMPDEST PUSH1 0x40 MLOAD DUP1 SWAP2 SUB SWAP1 RETURN JUMPDEST CALLVALUE DUP1 ISZERO PUSH2 0x98 JUMPI PUSH1 0x0 DUP1 REVERT JUMPDEST POP PUSH2 0xA1 PUSH2 0x12D JUMP JUMPDEST STOP JUMPDEST CALLVALUE DUP1 ISZERO PUSH2 0xAF JUMPI PUSH1 0x0 DUP1 REVERT JUMPDEST POP PUSH2 0xB8 PUSH2 0x334 JUMP JUMPDEST PUSH1 0x40 MLOAD PUSH2 0xC5 SWAP2 SWAP1 PUSH2 0x862 JUMP JUMPDEST PUSH1 0x40 MLOAD DUP1 SWAP2 SUB SWAP1 RETURN JUMPDEST PUSH2 0xD6 PUSH2 0x33A JUMP JUMPDEST STOP JUMPDEST CALLVALUE DUP1 ISZERO PUSH2 0xE4 JUMPI PUSH1 0x0 DUP1 REVERT JUMPDEST POP PUSH2 0xFF PUSH1 0x4 DUP1 CALLDATASIZE SUB DUP2 ADD SWAP1 PUSH2 0xFA SWAP2 SWAP1 PUSH2 0x69A JUMP JUMPDEST PUSH2 0x430 JUMP JUMPDEST PUSH1 0x40 MLOAD PUSH2 0x10C SWAP2 SWAP1 PUSH2 0x807 JUMP JUMPDEST PUSH1 0x40 MLOAD DUP1 SWAP2 SUB SWAP1 RETURN JUMPDEST PUSH1 0x2 PUSH1 0x20 MSTORE DUP1 PUSH1 0x0 MSTORE PUSH1 0x40 PUSH1 0x0 KECCAK256 PUSH1 0x0 SWAP2 POP SWAP1 POP SLOAD DUP2 JUMP JUMPDEST PUSH1 0x0 JUMPDEST PUSH1 0x1 DUP1 SLOAD SWAP1 POP DUP2 GT PUSH2 0x1FE JUMPI PUSH1 0x0 PUSH1 0x1 DUP3 DUP2 SLOAD DUP2 LT PUSH2 0x178 JUMPI PUSH32 0x4E487B7100000000000000000000000000000000000000000000000000000000 PUSH1 0x0 MSTORE PUSH1 0x32 PUSH1 0x4 MSTORE PUSH1 0x24 PUSH1 0x0 REVERT JUMPDEST SWAP1 PUSH1 0x0 MSTORE PUSH1 0x20 PUSH1 0x0 KECCAK256 ADD PUSH1 0x0 SWAP1 SLOAD SWAP1 PUSH2 0x100 EXP SWAP1 DIV PUSH20 0xFFFFFFFFFFFFFFFFFFFFFFFFFFFFFFFFFFFFFFFF AND SWAP1 POP PUSH1 0x0 PUSH1 0x2 PUSH1 0x0 DUP4 PUSH20 0xFFFFFFFFFFFFFFFFFFFFFFFFFFFFFFFFFFFFFFFF AND PUSH20 0xFFFFFFFFFFFFFFFFFFFFFFFFFFFFFFFFFFFFFFFF AND DUP2 MSTORE PUSH1 0x20 ADD SWAP1 DUP2 MSTORE PUSH1 0x20 ADD PUSH1 0x0 KECCAK256 DUP2 SWAP1 SSTORE POP POP DUP1 DUP1 PUSH2 0x1F6 SWAP1 PUSH2 0xA97 JUMP JUMPDEST SWAP2 POP POP PUSH2 0x130 JUMP JUMPDEST POP PUSH1 0x0 PUSH8 0xFFFFFFFFFFFFFFFF DUP2 GT ISZERO PUSH2 0x240 JUMPI PUSH32 0x4E487B7100000000000000000000000000000000000000000000000000000000 PUSH1 0x0 MSTORE PUSH1 0x41 PUSH1 0x4 MSTORE PUSH1 0x24 PUSH1 0x0 REVERT JUMPDEST PUSH1 0x40 MLOAD SWAP1 DUP1 DUP3 MSTORE DUP1 PUSH1 0x20 MUL PUSH1 0x20 ADD DUP3 ADD PUSH1 0x40 MSTORE DUP1 ISZERO PUSH2 0x26E JUMPI DUP2 PUSH1 0x20 ADD PUSH1 0x20 DUP3 MUL DUP1 CALLDATASIZE DUP4 CALLDATACOPY DUP1 DUP3 ADD SWAP2 POP POP SWAP1 POP JUMPDEST POP PUSH1 0x1 SWAP1 DUP1 MLOAD SWAP1 PUSH1 0x20 ADD SWAP1 PUSH2 0x284 SWAP3 SWAP2 SWAP1 PUSH2 0x561 JUMP JUMPDEST POP PUSH1 0x0 CALLER PUSH20 0xFFFFFFFFFFFFFFFFFFFFFFFFFFFFFFFFFFFFFFFF AND SELFBALANCE PUSH1 0x40 MLOAD PUSH2 0x2AB SWAP1 PUSH2 0x7F2 JUMP JUMPDEST PUSH1 0x0 PUSH1 0x40 MLOAD DUP1 DUP4 SUB DUP2 DUP6 DUP8 GAS CALL SWAP3 POP POP POP RETURNDATASIZE DUP1 PUSH1 0x0 DUP2 EQ PUSH2 0x2E8 JUMPI PUSH1 0x40 MLOAD SWAP2 POP PUSH1 0x1F NOT PUSH1 0x3F RETURNDATASIZE ADD AND DUP3 ADD PUSH1 0x40 MSTORE RETURNDATASIZE DUP3 MSTORE RETURNDATASIZE PUSH1 0x0 PUSH1 0x20 DUP5 ADD RETURNDATACOPY PUSH2 0x2ED JUMP JUMPDEST PUSH1 0x60 SWAP2 POP JUMPDEST POP POP SWAP1 POP DUP1 PUSH2 0x331 JUMPI PUSH1 0x40 MLOAD PUSH32 0x8C379A000000000000000000000000000000000000000000000000000000000 DUP2 MSTORE PUSH1 0x4 ADD PUSH2 0x328 SWAP1 PUSH2 0x822 JUMP JUMPDEST PUSH1 0x40 MLOAD DUP1 SWAP2 SUB SWAP1 REVERT JUMPDEST POP JUMP JUMPDEST PUSH1 0x0 SLOAD DUP2 JUMP JUMPDEST PUSH1 0x0 SLOAD PUSH2 0x346 CALLVALUE PUSH2 0x46F JUMP JUMPDEST LT ISZERO PUSH2 0x387 JUMPI PUSH1 0x40 MLOAD PUSH32 0x8C379A000000000000000000000000000000000000000000000000000000000 DUP2 MSTORE PUSH1 0x4 ADD PUSH2 0x37E SWAP1 PUSH2 0x842 JUMP JUMPDEST PUSH1 0x40 MLOAD DUP1 SWAP2 SUB SWAP1 REVERT JUMPDEST PUSH1 0x1 CALLER SWAP1 DUP1 PUSH1 0x1 DUP2 SLOAD ADD DUP1 DUP3 SSTORE DUP1 SWAP2 POP POP PUSH1 0x1 SWAP1 SUB SWAP1 PUSH1 0x0 MSTORE PUSH1 0x20 PUSH1 0x0 KECCAK256 ADD PUSH1 0x0 SWAP1 SWAP2 SWAP1 SWAP2 SWAP1 SWAP2 PUSH2 0x100 EXP DUP2 SLOAD DUP2 PUSH20 0xFFFFFFFFFFFFFFFFFFFFFFFFFFFFFFFFFFFFFFFF MUL NOT AND SWAP1 DUP4 PUSH20 0xFFFFFFFFFFFFFFFFFFFFFFFFFFFFFFFFFFFFFFFF AND MUL OR SWAP1 SSTORE POP CALLVALUE PUSH1 0x2 PUSH1 0x0 CALLER PUSH20 0xFFFFFFFFFFFFFFFFFFFFFFFFFFFFFFFFFFFFFFFF AND PUSH20 0xFFFFFFFFFFFFFFFFFFFFFFFFFFFFFFFFFFFFFFFF AND DUP2 MSTORE PUSH1 0x20 ADD SWAP1 DUP2 MSTORE PUSH1 0x20 ADD PUSH1 0x0 KECCAK256 DUP2 SWAP1 SSTORE POP JUMP JUMPDEST PUSH1 0x1 DUP2 DUP2 SLOAD DUP2 LT PUSH2 0x440 JUMPI PUSH1 0x0 DUP1 REVERT JUMPDEST SWAP1 PUSH1 0x0 MSTORE PUSH1 0x20 PUSH1 0x0 KECCAK256 ADD PUSH1 0x0 SWAP2 POP SLOAD SWAP1 PUSH2 0x100 EXP SWAP1 DIV PUSH20 0xFFFFFFFFFFFFFFFFFFFFFFFFFFFFFFFFFFFFFFFF AND DUP2 JUMP JUMPDEST PUSH1 0x0 DUP1 PUSH2 0x47A PUSH2 0x4A9 JUMP JUMPDEST SWAP1 POP PUSH1 0x0 PUSH8 0xDE0B6B3A7640000 DUP5 DUP4 PUSH2 0x493 SWAP2 SWAP1 PUSH2 0x9E1 JUMP JUMPDEST PUSH2 0x49D SWAP2 SWAP1 PUSH2 0x899 JUMP JUMPDEST SWAP1 POP DUP1 SWAP3 POP POP POP SWAP2 SWAP1 POP JUMP JUMPDEST PUSH1 0x0 DUP1 PUSH20 0x8A753747A1FA494EC906CE90E9F37563A8AF630E SWAP1 POP PUSH1 0x0 DUP2 PUSH20 0xFFFFFFFFFFFFFFFFFFFFFFFFFFFFFFFFFFFFFFFF AND PUSH4 0xFEAF968C PUSH1 0x40 MLOAD DUP2 PUSH4 0xFFFFFFFF AND PUSH1 0xE0 SHL DUP2 MSTORE PUSH1 0x4 ADD PUSH1 0xA0 PUSH1 0x40 MLOAD DUP1 DUP4 SUB DUP2 DUP7 DUP1 EXTCODESIZE ISZERO DUP1 ISZERO PUSH2 0x50B JUMPI PUSH1 0x0 DUP1 REVERT JUMPDEST POP GAS STATICCALL ISZERO DUP1 ISZERO PUSH2 0x51F JUMPI RETURNDATASIZE PUSH1 0x0 DUP1 RETURNDATACOPY RETURNDATASIZE PUSH1 0x0 REVERT JUMPDEST POP POP POP POP PUSH1 0x40 MLOAD RETURNDATASIZE PUSH1 0x1F NOT PUSH1 0x1F DUP3 ADD AND DUP3 ADD DUP1 PUSH1 0x40 MSTORE POP DUP2 ADD SWAP1 PUSH2 0x543 SWAP2 SWAP1 PUSH2 0x6C3 JUMP JUMPDEST POP POP POP SWAP2 POP POP PUSH5 0x2540BE400 DUP2 PUSH2 0x55A SWAP2 SWAP1 PUSH2 0x8CA JUMP JUMPDEST SWAP3 POP POP POP SWAP1 JUMP JUMPDEST DUP3 DUP1 SLOAD DUP3 DUP3 SSTORE SWAP1 PUSH1 0x0 MSTORE PUSH1 0x20 PUSH1 0x0 KECCAK256 SWAP1 DUP2 ADD SWAP3 DUP3 ISZERO PUSH2 0x5DA JUMPI SWAP2 PUSH1 0x20 MUL DUP3 ADD JUMPDEST DUP3 DUP2 GT ISZERO PUSH2 0x5D9 JUMPI DUP3 MLOAD DUP3 PUSH1 0x0 PUSH2 0x100 EXP DUP2 SLOAD DUP2 PUSH20 0xFFFFFFFFFFFFFFFFFFFFFFFFFFFFFFFFFFFFFFFF MUL NOT AND SWAP1 DUP4 PUSH20 0xFFFFFFFFFFFFFFFFFFFFFFFFFFFFFFFFFFFFFFFF AND MUL OR SWAP1 SSTORE POP SWAP2 PUSH1 0x20 ADD SWAP2 SWAP1 PUSH1 0x1 ADD SWAP1 PUSH2 0x581 JUMP JUMPDEST JUMPDEST POP SWAP1 POP PUSH2 0x5E7 SWAP2 SWAP1 PUSH2 0x5EB JUMP JUMPDEST POP SWAP1 JUMP JUMPDEST JUMPDEST DUP1 DUP3 GT ISZERO PUSH2 0x604 JUMPI PUSH1 0x0 DUP2 PUSH1 0x0 SWAP1 SSTORE POP PUSH1 0x1 ADD PUSH2 0x5EC JUMP JUMPDEST POP SWAP1 JUMP JUMPDEST PUSH1 0x0 DUP2 CALLDATALOAD SWAP1 POP PUSH2 0x617 DUP2 PUSH2 0xB3E JUMP JUMPDEST SWAP3 SWAP2 POP POP JUMP JUMPDEST PUSH1 0x0 DUP2 MLOAD SWAP1 POP PUSH2 0x62C DUP2 PUSH2 0xB55 JUMP JUMPDEST SWAP3 SWAP2 POP POP JUMP JUMPDEST PUSH1 0x0 DUP2 CALLDATALOAD SWAP1 POP PUSH2 0x641 DUP2 PUSH2 0xB6C JUMP JUMPDEST SWAP3 SWAP2 POP POP JUMP JUMPDEST PUSH1 0x0 DUP2 MLOAD SWAP1 POP PUSH2 0x656 DUP2 PUSH2 0xB6C JUMP JUMPDEST SWAP3 SWAP2 POP POP JUMP JUMPDEST PUSH1 0x0 DUP2 MLOAD SWAP1 POP PUSH2 0x66B DUP2 PUSH2 0xB83 JUMP JUMPDEST SWAP3 SWAP2 POP POP JUMP JUMPDEST PUSH1 0x0 PUSH1 0x20 DUP3 DUP5 SUB SLT ISZERO PUSH2 0x683 JUMPI PUSH1 0x0 DUP1 REVERT JUMPDEST PUSH1 0x0 PUSH2 0x691 DUP5 DUP3 DUP6 ADD PUSH2 0x608 JUMP JUMPDEST SWAP2 POP POP SWAP3 SWAP2 POP POP JUMP JUMPDEST PUSH1 0x0 PUSH1 0x20 DUP3 DUP5 SUB SLT ISZERO PUSH2 0x6AC JUMPI PUSH1 0x0 DUP1 REVERT JUMPDEST PUSH1 0x0 PUSH2 0x6BA DUP5 DUP3 DUP6 ADD PUSH2 0x632 JUMP JUMPDEST SWAP2 POP POP SWAP3 SWAP2 POP POP JUMP JUMPDEST PUSH1 0x0 DUP1 PUSH1 0x0 DUP1 PUSH1 0x0 PUSH1 0xA0 DUP7 DUP9 SUB SLT ISZERO PUSH2 0x6DB JUMPI PUSH1 0x0 DUP1 REVERT JUMPDEST PUSH1 0x0 PUSH2 0x6E9 DUP9 DUP3 DUP10 ADD PUSH2 0x65C JUMP JUMPDEST SWAP6 POP POP PUSH1 0x20 PUSH2 0x6FA DUP9 DUP3 DUP10 ADD PUSH2 0x61D JUMP JUMPDEST SWAP5 POP POP PUSH1 0x40 PUSH2 0x70B DUP9 DUP3 DUP10 ADD PUSH2 0x647 JUMP JUMPDEST SWAP4 POP POP PUSH1 0x60 PUSH2 0x71C DUP9 DUP3 DUP10 ADD PUSH2 0x647 JUMP JUMPDEST SWAP3 POP POP PUSH1 0x80 PUSH2 0x72D DUP9 DUP3 DUP10 ADD PUSH2 0x65C JUMP JUMPDEST SWAP2 POP POP SWAP3 SWAP6 POP SWAP3 SWAP6 SWAP1 SWAP4 POP JUMP JUMPDEST PUSH2 0x743 DUP2 PUSH2 0xA3B JUMP JUMPDEST DUP3 MSTORE POP POP JUMP JUMPDEST PUSH1 0x0 PUSH2 0x756 PUSH1 0xB DUP4 PUSH2 0x888 JUMP JUMPDEST SWAP2 POP PUSH32 0x43616C6C206661696C6564000000000000000000000000000000000000000000 PUSH1 0x0 DUP4 ADD MSTORE PUSH1 0x20 DUP3 ADD SWAP1 POP SWAP2 SWAP1 POP JUMP JUMPDEST PUSH1 0x0 PUSH2 0x796 PUSH1 0x12 DUP4 PUSH2 0x888 JUMP JUMPDEST SWAP2 POP PUSH32 0x4469646E27742073656E6420656E6F7567680000000000000000000000000000 PUSH1 0x0 DUP4 ADD MSTORE PUSH1 0x20 DUP3 ADD SWAP1 POP SWAP2 SWAP1 POP JUMP JUMPDEST PUSH1 0x0 PUSH2 0x7D6 PUSH1 0x0 DUP4 PUSH2 0x87D JUMP JUMPDEST SWAP2 POP PUSH1 0x0 DUP3 ADD SWAP1 POP SWAP2 SWAP1 POP JUMP JUMPDEST PUSH2 0x7EC DUP2 PUSH2 0xA77 JUMP JUMPDEST DUP3 MSTORE POP POP JUMP JUMPDEST PUSH1 0x0 PUSH2 0x7FD DUP3 PUSH2 0x7C9 JUMP JUMPDEST SWAP2 POP DUP2 SWAP1 POP SWAP2 SWAP1 POP JUMP JUMPDEST PUSH1 0x0 PUSH1 0x20 DUP3 ADD SWAP1 POP PUSH2 0x81C PUSH1 0x0 DUP4 ADD DUP5 PUSH2 0x73A JUMP JUMPDEST SWAP3 SWAP2 POP POP JUMP JUMPDEST PUSH1 0x0 PUSH1 0x20 DUP3 ADD SWAP1 POP DUP2 DUP2 SUB PUSH1 0x0 DUP4 ADD MSTORE PUSH2 0x83B DUP2 PUSH2 0x749 JUMP JUMPDEST SWAP1 POP SWAP2 SWAP1 POP JUMP JUMPDEST PUSH1 0x0 PUSH1 0x20 DUP3 ADD SWAP1 POP DUP2 DUP2 SUB PUSH1 0x0 DUP4 ADD MSTORE PUSH2 0x85B DUP2 PUSH2 0x789 JUMP JUMPDEST SWAP1 POP SWAP2 SWAP1 POP JUMP JUMPDEST PUSH1 0x0 PUSH1 0x20 DUP3 ADD SWAP1 POP PUSH2 0x877 PUSH1 0x0 DUP4 ADD DUP5 PUSH2 0x7E3 JUMP JUMPDEST SWAP3 SWAP2 POP POP JUMP JUMPDEST PUSH1 0x0 DUP2 SWAP1 POP SWAP3 SWAP2 POP POP JUMP JUMPDEST PUSH1 0x0 DUP3 DUP3 MSTORE PUSH1 0x20 DUP3 ADD SWAP1 POP SWAP3 SWAP2 POP POP JUMP JUMPDEST PUSH1 0x0 PUSH2 0x8A4 DUP3 PUSH2 0xA77 JUMP JUMPDEST SWAP2 POP PUSH2 0x8AF DUP4 PUSH2 0xA77 JUMP JUMPDEST SWAP3 POP DUP3 PUSH2 0x8BF JUMPI PUSH2 0x8BE PUSH2 0xB0F JUMP JUMPDEST JUMPDEST DUP3 DUP3 DIV SWAP1 POP SWAP3 SWAP2 POP POP JUMP JUMPDEST PUSH1 0x0 PUSH2 0x8D5 DUP3 PUSH2 0xA4D JUMP JUMPDEST SWAP2 POP PUSH2 0x8E0 DUP4 PUSH2 0xA4D JUMP JUMPDEST SWAP3 POP DUP3 PUSH32 0x7FFFFFFFFFFFFFFFFFFFFFFFFFFFFFFFFFFFFFFFFFFFFFFFFFFFFFFFFFFFFFFF DIV DUP3 GT PUSH1 0x0 DUP5 SGT PUSH1 0x0 DUP5 SGT AND AND ISZERO PUSH2 0x91F JUMPI PUSH2 0x91E PUSH2 0xAE0 JUMP JUMPDEST JUMPDEST DUP2 PUSH32 0x8000000000000000000000000000000000000000000000000000000000000000 SDIV DUP4 SLT PUSH1 0x0 DUP5 SLT PUSH1 0x0 DUP5 SGT AND AND ISZERO PUSH2 0x95C JUMPI PUSH2 0x95B PUSH2 0xAE0 JUMP JUMPDEST JUMPDEST DUP3 PUSH32 0x8000000000000000000000000000000000000000000000000000000000000000 SDIV DUP3 SLT PUSH1 0x0 DUP5 SGT PUSH1 0x0 DUP5 SLT AND AND ISZERO PUSH2 0x999 JUMPI PUSH2 0x998 PUSH2 0xAE0 JUMP JUMPDEST JUMPDEST DUP3 PUSH32 0x7FFFFFFFFFFFFFFFFFFFFFFFFFFFFFFFFFFFFFFFFFFFFFFFFFFFFFFFFFFFFFFF SDIV DUP3 SLT PUSH1 0x0 DUP5 SLT PUSH1 0x0 DUP5 SLT AND AND ISZERO PUSH2 0x9D6 JUMPI PUSH2 0x9D5 PUSH2 0xAE0 JUMP JUMPDEST JUMPDEST DUP3 DUP3 MUL SWAP1 POP SWAP3 SWAP2 POP POP JUMP JUMPDEST PUSH1 0x0 PUSH2 0x9EC DUP3 PUSH2 0xA77 JUMP JUMPDEST SWAP2 POP PUSH2 0x9F7 DUP4 PUSH2 0xA77 JUMP JUMPDEST SWAP3 POP DUP2 PUSH32 0xFFFFFFFFFFFFFFFFFFFFFFFFFFFFFFFFFFFFFFFFFFFFFFFFFFFFFFFFFFFFFFFF DIV DUP4 GT DUP3 ISZERO ISZERO AND ISZERO PUSH2 0xA30 JUMPI PUSH2 0xA2F PUSH2 0xAE0 JUMP JUMPDEST JUMPDEST DUP3 DUP3 MUL SWAP1 POP SWAP3 SWAP2 POP POP JUMP JUMPDEST PUSH1 0x0 PUSH2 0xA46 DUP3 PUSH2 0xA57 JUMP JUMPDEST SWAP1 POP SWAP2 SWAP1 POP JUMP JUMPDEST PUSH1 0x0 DUP2 SWAP1 POP SWAP2 SWAP1 POP JUMP JUMPDEST PUSH1 0x0 PUSH20 0xFFFFFFFFFFFFFFFFFFFFFFFFFFFFFFFFFFFFFFFF DUP3 AND SWAP1 POP SWAP2 SWAP1 POP JUMP JUMPDEST PUSH1 0x0 DUP2 SWAP1 POP SWAP2 SWAP1 POP JUMP JUMPDEST PUSH1 0x0 PUSH10 0xFFFFFFFFFFFFFFFFFFFF DUP3 AND SWAP1 POP SWAP2 SWAP1 POP JUMP JUMPDEST PUSH1 0x0 PUSH2 0xAA2 DUP3 PUSH2 0xA77 JUMP JUMPDEST SWAP2 POP PUSH32 0xFFFFFFFFFFFFFFFFFFFFFFFFFFFFFFFFFFFFFFFFFFFFFFFFFFFFFFFFFFFFFFFF DUP3 EQ ISZERO PUSH2 0xAD5 JUMPI PUSH2 0xAD4 PUSH2 0xAE0 JUMP JUMPDEST JUMPDEST PUSH1 0x1 DUP3 ADD SWAP1 POP SWAP2 SWAP1 POP JUMP JUMPDEST PUSH32 0x4E487B7100000000000000000000000000000000000000000000000000000000 PUSH1 0x0 MSTORE PUSH1 0x11 PUSH1 0x4 MSTORE PUSH1 0x24 PUSH1 0x0 REVERT JUMPDEST PUSH32 0x4E487B7100000000000000000000000000000000000000000000000000000000 PUSH1 0x0 MSTORE PUSH1 0x12 PUSH1 0x4 MSTORE PUSH1 0x24 PUSH1 0x0 REVERT JUMPDEST PUSH2 0xB47 DUP2 PUSH2 0xA3B JUMP JUMPDEST DUP2 EQ PUSH2 0xB52 JUMPI PUSH1 0x0 DUP1 REVERT JUMPDEST POP JUMP JUMPDEST PUSH2 0xB5E DUP2 PUSH2 0xA4D JUMP JUMPDEST DUP2 EQ PUSH2 0xB69 JUMPI PUSH1 0x0 DUP1 REVERT JUMPDEST POP JUMP JUMPDEST PUSH2 0xB75 DUP2 PUSH2 0xA77 JUMP JUMPDEST DUP2 EQ PUSH2 0xB80 JUMPI PUSH1 0x0 DUP1 REVERT JUMPDEST POP JUMP JUMPDEST PUSH2 0xB8C DUP2 PUSH2 0xA81 JUMP JUMPDEST DUP2 EQ PUSH2 0xB97 JUMPI PUSH1 0x0 DUP1 REVERT JUMPDEST POP JUMP INVALID LOG2 PUSH5 0x6970667358 0x22 SLT KECCAK256 RETURNDATASIZE STATICCALL EQ 0xBE GASLIMIT 0xB4 0xFC PUSH6 0x9A43FC1804B7 0xA7 0xBE 0xB0 SDIV DELEGATECALL 0x4E CODESIZE SLT 0x21 GT CALLDATACOPY 0xEF 0xDB DUP8 0xC3 PUSH5 0x11DB64736F PUSH13 0x63430008000033000000000000 "
				},
				"gasEstimates": {
					"creation": {
						"codeDepositCost": "604800",
						"executionCost": "20644",
						"totalCost": "625444"
					},
					"external": {
						"addressToAmtFunded(address)": "1492",
						"fund()": "infinite",
						"funders(uint256)": "2422",
						"minUsd()": "1151",
						"withdraw()": "infinite"
					}
				},
				"methodIdentifiers": {
					"addressToAmtFunded(address)": "2e715429",
					"fund()": "b60d4288",
					"funders(uint256)": "dc0d3dff",
					"minUsd()": "51b80e41",
					"withdraw()": "3ccfd60b"
				}
			},
			"storageLayout": {
				"storage": [
					{
						"astId": 56,
						"contract": "contracts/FundMe.sol:FundMe",
						"label": "minUsd",
						"offset": 0,
						"slot": "0",
						"type": "t_uint256"
					},
					{
						"astId": 59,
						"contract": "contracts/FundMe.sol:FundMe",
						"label": "funders",
						"offset": 0,
						"slot": "1",
						"type": "t_array(t_address)dyn_storage"
					},
					{
						"astId": 63,
						"contract": "contracts/FundMe.sol:FundMe",
						"label": "addressToAmtFunded",
						"offset": 0,
						"slot": "2",
						"type": "t_mapping(t_address,t_uint256)"
					}
				],
				"types": {
					"t_address": {
						"encoding": "inplace",
						"label": "address",
						"numberOfBytes": "20"
					},
					"t_array(t_address)dyn_storage": {
						"base": "t_address",
						"encoding": "dynamic_array",
						"label": "address[]",
						"numberOfBytes": "32"
					},
					"t_mapping(t_address,t_uint256)": {
						"encoding": "mapping",
						"key": "t_address",
						"label": "mapping(address => uint256)",
						"numberOfBytes": "32",
						"value": "t_uint256"
					},
					"t_uint256": {
						"encoding": "inplace",
						"label": "uint256",
						"numberOfBytes": "32"
					}
				}
			},
			"userdoc": {
				"kind": "user",
				"methods": {},
				"version": 1
			}
		}
	}
}